{
  "_format": "hh-sol-artifact-1",
  "contractName": "RouterImmutable",
  "sourceName": "contracts/dependencies/RouterImmutable.sol",
  "abi": [
    {
      "inputs": [
        {
          "internalType": "address",
          "name": "_pluginMap",
          "type": "address"
        }
      ],
      "stateMutability": "nonpayable",
      "type": "constructor"
    },
    {
      "anonymous": false,
      "inputs": [
        {
          "indexed": true,
          "internalType": "bytes4",
          "name": "functionSelector",
          "type": "bytes4"
        },
        {
          "indexed": true,
          "internalType": "address",
          "name": "pluginAddress",
          "type": "address"
        }
      ],
      "name": "PluginAdded",
      "type": "event"
    },
    {
      "anonymous": false,
      "inputs": [
        {
          "indexed": true,
          "internalType": "bytes4",
          "name": "functionSelector",
          "type": "bytes4"
        },
        {
          "indexed": true,
          "internalType": "address",
          "name": "pluginAddress",
          "type": "address"
        }
      ],
      "name": "PluginRemoved",
      "type": "event"
    },
    {
      "anonymous": false,
      "inputs": [
        {
          "indexed": true,
          "internalType": "bytes4",
          "name": "functionSelector",
          "type": "bytes4"
        },
        {
          "indexed": true,
          "internalType": "string",
          "name": "functionSignature",
          "type": "string"
        },
        {
          "indexed": true,
          "internalType": "address",
          "name": "pluginAddress",
          "type": "address"
        }
      ],
      "name": "PluginSet",
      "type": "event"
    },
    {
      "anonymous": false,
      "inputs": [
        {
          "indexed": true,
          "internalType": "bytes4",
          "name": "functionSelector",
          "type": "bytes4"
        },
        {
          "indexed": true,
          "internalType": "address",
          "name": "oldPluginAddress",
          "type": "address"
        },
        {
          "indexed": true,
          "internalType": "address",
          "name": "newPluginAddress",
          "type": "address"
        }
      ],
      "name": "PluginUpdated",
      "type": "event"
    },
    {
      "stateMutability": "payable",
      "type": "fallback"
    },
    {
      "inputs": [
        {
          "internalType": "bytes4",
          "name": "_selector",
          "type": "bytes4"
        }
      ],
      "name": "_getPluginForFunction",
      "outputs": [
        {
          "internalType": "address",
          "name": "",
          "type": "address"
        }
      ],
      "stateMutability": "view",
      "type": "function"
    },
    {
      "inputs": [
        {
          "components": [
            {
              "internalType": "bytes4",
              "name": "functionSelector",
              "type": "bytes4"
            },
            {
              "internalType": "string",
              "name": "functionSignature",
              "type": "string"
            },
            {
              "internalType": "address",
              "name": "pluginAddress",
              "type": "address"
            }
          ],
          "internalType": "struct IPluginMap.Plugin",
          "name": "_plugin",
          "type": "tuple"
        }
      ],
      "name": "addPlugin",
      "outputs": [],
      "stateMutability": "nonpayable",
      "type": "function"
    },
    {
      "inputs": [
        {
          "internalType": "address",
          "name": "_pluginAddress",
          "type": "address"
        }
      ],
      "name": "getAllFunctionsOfPlugin",
      "outputs": [
        {
          "internalType": "bytes4[]",
          "name": "registered",
          "type": "bytes4[]"
        }
      ],
      "stateMutability": "view",
      "type": "function"
    },
    {
      "inputs": [],
      "name": "getAllPlugins",
      "outputs": [
        {
          "components": [
            {
              "internalType": "bytes4",
              "name": "functionSelector",
              "type": "bytes4"
            },
            {
              "internalType": "string",
              "name": "functionSignature",
              "type": "string"
            },
            {
              "internalType": "address",
              "name": "pluginAddress",
              "type": "address"
            }
          ],
          "internalType": "struct IPluginMap.Plugin[]",
          "name": "registered",
          "type": "tuple[]"
        }
      ],
      "stateMutability": "view",
      "type": "function"
    },
    {
      "inputs": [
        {
          "internalType": "bytes4",
          "name": "_selector",
          "type": "bytes4"
        }
      ],
      "name": "getPluginForFunction",
      "outputs": [
        {
          "internalType": "address",
          "name": "",
          "type": "address"
        }
      ],
      "stateMutability": "view",
      "type": "function"
    },
    {
      "inputs": [
        {
          "internalType": "bytes[]",
          "name": "data",
          "type": "bytes[]"
        }
      ],
      "name": "multicall",
      "outputs": [
        {
          "internalType": "bytes[]",
          "name": "results",
          "type": "bytes[]"
        }
      ],
      "stateMutability": "nonpayable",
      "type": "function"
    },
    {
      "inputs": [],
      "name": "pluginMap",
      "outputs": [
        {
          "internalType": "address",
          "name": "",
          "type": "address"
        }
      ],
      "stateMutability": "view",
      "type": "function"
    },
    {
      "inputs": [
        {
          "internalType": "bytes4",
          "name": "_selector",
          "type": "bytes4"
        }
      ],
      "name": "removePlugin",
      "outputs": [],
      "stateMutability": "nonpayable",
      "type": "function"
    },
    {
      "inputs": [
        {
          "internalType": "bytes4",
          "name": "interfaceId",
          "type": "bytes4"
        }
      ],
      "name": "supportsInterface",
      "outputs": [
        {
          "internalType": "bool",
          "name": "",
          "type": "bool"
        }
      ],
      "stateMutability": "view",
      "type": "function"
    },
    {
      "inputs": [
        {
          "components": [
            {
              "internalType": "bytes4",
              "name": "functionSelector",
              "type": "bytes4"
            },
            {
              "internalType": "string",
              "name": "functionSignature",
              "type": "string"
            },
            {
              "internalType": "address",
              "name": "pluginAddress",
              "type": "address"
            }
          ],
          "internalType": "struct IPluginMap.Plugin",
          "name": "_plugin",
          "type": "tuple"
        }
      ],
      "name": "updatePlugin",
      "outputs": [],
      "stateMutability": "nonpayable",
      "type": "function"
    },
    {
      "stateMutability": "payable",
      "type": "receive"
    }
  ],
  "bytecode": "0x60a060405234801561001057600080fd5b506040516116e23803806116e283398101604081905261002f91610040565b6001600160a01b0316608052610070565b60006020828403121561005257600080fd5b81516001600160a01b038116811461006957600080fd5b9392505050565b60805161163c6100a66000396000818160e4015281816102bb0152818161047c015281816107440152610b24015261163c6000f3fe6080604052600436106100955760003560e01c8063a520a38a11610059578063a520a38a14610229578063a5342fdf14610261578063ac9650d81461027c578063b48912da146102a9578063c511f8fb146102dd5761009c565b806301ffc9a7146101655780631ab6b7051461019a5780634cb5d8fd146101ba5780635c573f2e146101da5780636b86400e146102075761009c565b3661009c57005b60006100b36000356001600160e01b0319166102f8565b90506001600160a01b03811661015a5760405163529051c560e11b81526000356001600160e01b03191660048201527f00000000000000000000000000000000000000000000000000000000000000006001600160a01b03169063a520a38a90602401602060405180830381865afa158015610133573d6000803e3d6000fd5b505050506040513d601f19601f820116820180604052508101906101579190610e6a565b90505b6101638161033f565b005b34801561017157600080fd5b50610185610180366004610e9d565b610363565b60405190151581526020015b60405180910390f35b3480156101a657600080fd5b506101636101b5366004610f5d565b61039a565b3480156101c657600080fd5b506101636101d5366004610f5d565b6103e3565b3480156101e657600080fd5b506101fa6101f536600461102e565b610421565b604051610191919061104b565b34801561021357600080fd5b5061021c610711565b60405161019191906110e9565b34801561023557600080fd5b50610249610244366004610e9d565b610ae9565b6040516001600160a01b039091168152602001610191565b34801561026d57600080fd5b506101636101d5366004610e9d565b34801561028857600080fd5b5061029c61029736600461117f565b610ba5565b60405161019191906111f4565b3480156102b557600080fd5b506102497f000000000000000000000000000000000000000000000000000000000000000081565b3480156102e957600080fd5b506102496102f8366004610e9d565b6001600160e01b03191660009081527f1a3e4131826bb378aa43abb34a33a366bc4a35b55ab18a884fa205b59285ec4860205260409020600201546001600160a01b031690565b3660008037600080366000845af43d6000803e80801561035e573d6000f35b3d6000fd5b60006001600160e01b0319821663f337402760e01b148061039457506301ffc9a760e01b6001600160e01b03198316145b92915050565b60405162461bcd60e51b8152602060048201526016602482015275149bdd5d195c8e88139bdd08185d5d1a1bdc9a5e995960521b60448201526064015b60405180910390fd5b50565b60405162461bcd60e51b815260206004820152601360248201527213585c0e88139bdd08185d5d1a1bdc9a5e9959606a1b60448201526064016103d7565b606060007f1a3e4131826bb378aa43abb34a33a366bc4a35b55ab18a884fa205b59285ec456001600160a01b0384811660008181526002840160205260408082209051632e2b9f9760e11b81526004810193909352939450917f00000000000000000000000000000000000000000000000000000000000000001690635c573f2e90602401600060405180830381865afa1580156104c3573d6000803e3d6000fd5b505050506040513d6000823e601f3d908101601f191682016040526104eb919081019061127a565b80519091506000816104fc85610c9a565b610506919061132a565b905060005b8281101561059e576105498482815181106105285761052861133d565b60200260200101516001600160e01b03191686610ca490919063ffffffff16565b1561058c57610559600183611353565b9150600060e01b8482815181106105725761057261133d565b6001600160e01b0319909216602092830291909101909101525b61059760018261132a565b905061050b565b508067ffffffffffffffff8111156105b8576105b8610eba565b6040519080825280602002602001820160405280156105e1578160200160208202803683370190505b5095506000805b838110156106825784516000908690839081106106075761060761133d565b60200260200101516001600160e01b03191614610670578481815181106106305761063061133d565b602002602001015188838061064490611366565b9450815181106106565761065661133d565b6001600160e01b0319909216602092830291909101909101525b61067b60018261132a565b90506105e8565b5061068c85610c9a565b925060005b83811015610705576001600160a01b038916600090815260028801602052604090206106bd9082610cbc565b88836106c881611366565b9450815181106106da576106da61133d565b6001600160e01b0319909216602092830291909101909101526106fe60018261132a565b9050610691565b50505050505050919050565b606060007f1a3e4131826bb378aa43abb34a33a366bc4a35b55ab18a884fa205b59285ec459050600081600001905060007f00000000000000000000000000000000000000000000000000000000000000006001600160a01b0316636b86400e6040518163ffffffff1660e01b8152600401600060405180830381865afa1580156107a0573d6000803e3d6000fd5b505050506040513d6000823e601f3d908101601f191682016040526107c8919081019061137f565b905060006107d583610c9a565b825190915060006107e6828461132a565b905060005b838110156108a25760005b8381101561088f578581815181106108105761081061133d565b6020908102919091010151516001600160e01b0319166108308884610cbc565b6001600160e01b0319160361087d5761084a600184611353565b9250600060e01b8682815181106108635761086361133d565b60209081029190910101516001600160e01b031990911690525b61088860018261132a565b90506107f6565b5061089b60018261132a565b90506107eb565b508067ffffffffffffffff8111156108bc576108bc610eba565b60405190808252806020026020018201604052801561090c57816020015b604080516060808201835260008083526020830191909152918101919091528152602001906001900390816108da5790505b5096506000805b838110156109a45785516000908790839081106109325761093261133d565b6020026020010151600001516001600160e01b031916146109925785818151811061095f5761095f61133d565b60200260200101518983815181106109795761097961133d565b602090810291909101015261098f60018361132a565b91505b61099d60018261132a565b9050610913565b5060005b84811015610ade576003880160006109c08984610cbc565b6001600160e01b031990811682526020808301939093526040918201600020825160608101909352805460e01b90911682526001810180549293919291840191610a09906114c0565b80601f0160208091040260200160405190810160405280929190818152602001828054610a35906114c0565b8015610a825780601f10610a5757610100808354040283529160200191610a82565b820191906000526020600020905b815481529060010190602001808311610a6557829003601f168201915b5050509183525050600291909101546001600160a01b031660209091015289518a9084908110610ab457610ab461133d565b6020908102919091010152610aca60018361132a565b9150610ad760018261132a565b90506109a8565b505050505050505090565b600080610af5836102f8565b90506001600160a01b038116610b9c5760405163529051c560e11b81526001600160e01b0319841660048201527f00000000000000000000000000000000000000000000000000000000000000006001600160a01b03169063a520a38a90602401602060405180830381865afa158015610b73573d6000803e3d6000fd5b505050506040513d601f19601f82011682018060405250810190610b979190610e6a565b610b9e565b805b9392505050565b60608167ffffffffffffffff811115610bc057610bc0610eba565b604051908082528060200260200182016040528015610bf357816020015b6060815260200190600190039081610bde5790505b50905060005b82811015610c9357610c6330858584818110610c1757610c1761133d565b9050602002810190610c2991906114fa565b8080601f016020809104026020016040519081016040528093929190818152602001838380828437600092019190915250610cc892505050565b828281518110610c7557610c7561133d565b60200260200101819052508080610c8b90611366565b915050610bf9565b5092915050565b6000610394825490565b60008181526001830160205260408120541515610b9e565b6000610b9e8383610ced565b6060610b9e83836040518060600160405280602781526020016115e060279139610d17565b6000826000018281548110610d0457610d0461133d565b9060005260206000200154905092915050565b60606001600160a01b0384163b610d7f5760405162461bcd60e51b815260206004820152602660248201527f416464726573733a2064656c65676174652063616c6c20746f206e6f6e2d636f6044820152651b9d1c9858dd60d21b60648201526084016103d7565b600080856001600160a01b031685604051610d9a9190611548565b600060405180830381855af49150503d8060008114610dd5576040519150601f19603f3d011682016040523d82523d6000602084013e610dda565b606091505b5091509150610dea828286610df4565b9695505050505050565b60608315610e03575081610b9e565b825115610e135782518084602001fd5b8160405162461bcd60e51b81526004016103d791906115cc565b80821115610e415760008155600101610e2d565b5090565b6001600160a01b03811681146103e057600080fd5b8051610e6581610e45565b919050565b600060208284031215610e7c57600080fd5b8151610b9e81610e45565b6001600160e01b0319811681146103e057600080fd5b600060208284031215610eaf57600080fd5b8135610b9e81610e87565b634e487b7160e01b600052604160045260246000fd5b6040516060810167ffffffffffffffff81118282101715610ef357610ef3610eba565b60405290565b604051601f8201601f1916810167ffffffffffffffff81118282101715610f2257610f22610eba565b604052919050565b600067ffffffffffffffff821115610f4457610f44610eba565b50601f01601f191660200190565b8035610e6581610e45565b60006020808385031215610f7057600080fd5b823567ffffffffffffffff80821115610f8857600080fd5b9084019060608287031215610f9c57600080fd5b610fa4610ed0565b8235610faf81610e87565b81528284013582811115610fc257600080fd5b83019150601f82018713610fd557600080fd5b8135610fe8610fe382610f2a565b610ef9565b8181528886838601011115610ffc57600080fd5b818685018783013760008683830101528086840152505061101f60408401610f52565b60408201529695505050505050565b60006020828403121561104057600080fd5b8135610b9e81610e45565b6020808252825182820181905260009190848201906040850190845b8181101561108d5783516001600160e01b03191683529284019291840191600101611067565b50909695505050505050565b60005b838110156110b457818101518382015260200161109c565b50506000910152565b600081518084526110d5816020860160208601611099565b601f01601f19169290920160200192915050565b60006020808301818452808551808352604092508286019150828160051b87010184880160005b8381101561117157888303603f19018552815180516001600160e01b03191684528781015160608986018190529061114a828701826110bd565b928901516001600160a01b0316958901959095525094870194925090860190600101611110565b509098975050505050505050565b6000806020838503121561119257600080fd5b823567ffffffffffffffff808211156111aa57600080fd5b818501915085601f8301126111be57600080fd5b8135818111156111cd57600080fd5b8660208260051b85010111156111e257600080fd5b60209290920196919550909350505050565b6000602080830181845280855180835260408601915060408160051b870101925083870160005b8281101561124957603f198886030184526112378583516110bd565b9450928501929085019060010161121b565b5092979650505050505050565b600067ffffffffffffffff82111561127057611270610eba565b5060051b60200190565b6000602080838503121561128d57600080fd5b825167ffffffffffffffff8111156112a457600080fd5b8301601f810185136112b557600080fd5b80516112c3610fe382611256565b81815260059190911b820183019083810190878311156112e257600080fd5b928401925b828410156113095783516112fa81610e87565b825292840192908401906112e7565b979650505050505050565b634e487b7160e01b600052601160045260246000fd5b8082018082111561039457610394611314565b634e487b7160e01b600052603260045260246000fd5b8181038181111561039457610394611314565b60006001820161137857611378611314565b5060010190565b6000602080838503121561139257600080fd5b825167ffffffffffffffff808211156113aa57600080fd5b818501915085601f8301126113be57600080fd5b81516113cc610fe382611256565b81815260059190911b830184019084810190888311156113eb57600080fd5b8585015b838110156114b35780518581111561140657600080fd5b86016060818c03601f1901121561141d5760008081fd5b611425610ed0565b8882015161143281610e87565b8152604082810151888111156114485760008081fd5b8301603f81018e1361145a5760008081fd5b8a81015161146a610fe382610f2a565b8181528f8483850101111561147f5760008081fd5b61148e828e8301868601611099565b848d0152506114a1905060608401610e5a565b908201528452509186019186016113ef565b5098975050505050505050565b600181811c908216806114d457607f821691505b6020821081036114f457634e487b7160e01b600052602260045260246000fd5b50919050565b6000808335601e1984360301811261151157600080fd5b83018035915067ffffffffffffffff82111561152c57600080fd5b60200191503681900382131561154157600080fd5b9250929050565b6000825161155a818460208701611099565b9190910192915050565b8181101561157757828155600101611564565b505050505050565b8281101561159e5788860151825594840194600190910190840161157f565b50858210156115bc5787850151600019600388901b60f8161c191681555b5050505050600190811b01905550565b602081526000610b9e60208301846110bd56fe416464726573733a206c6f772d6c6576656c2064656c65676174652063616c6c206661696c6564a26469706673582212209741513c014dad057c40c93ab68b89ca613f85cccf89cacb51900eb427710b3764736f6c63430008110033",
  "linkReferences": {},
  "deployedLinkReferences": {}
}