{"contracts/dependencies/PermissionsStorage.sol":{"PermissionsStorage":{"abi":[{"inputs":[],"name":"PERMISSIONS_STORAGE_POSITION","outputs":[{"internalType":"bytes32","name":"","type":"bytes32"}],"stateMutability":"view","type":"function"}],"evm":{"bytecode":{"linkReferences":{},"object":"60a6610038600b82828239805160001a607314602b57634e487b7160e01b600052600060045260246000fd5b30600052607381538281f3fe730000000000000000000000000000000000000000301460806040526004361060335760003560e01c80630998ed3b146038575b600080fd5b605e7fd0ebebe8e6445c62babf8fef767eb39f1002bb957bb5b83258275a4e46428ed581565b60405190815260200160405180910390f3fea26469706673582212201ea480235bf659544dcee3e43cead8cd66ea8f241595296b740095d8b180a0e164736f6c63430008110033","opcodes":"PUSH1 0xA6 PUSH2 0x38 PUSH1 0xB DUP3 DUP3 DUP3 CODECOPY DUP1 MLOAD PUSH1 0x0 BYTE PUSH1 0x73 EQ PUSH1 0x2B JUMPI PUSH4 0x4E487B71 PUSH1 0xE0 SHL PUSH1 0x0 MSTORE PUSH1 0x0 PUSH1 0x4 MSTORE PUSH1 0x24 PUSH1 0x0 REVERT JUMPDEST ADDRESS PUSH1 0x0 MSTORE PUSH1 0x73 DUP2 MSTORE8 DUP3 DUP2 RETURN INVALID PUSH20 0x0 ADDRESS EQ PUSH1 0x80 PUSH1 0x40 MSTORE PUSH1 0x4 CALLDATASIZE LT PUSH1 0x33 JUMPI PUSH1 0x0 CALLDATALOAD PUSH1 0xE0 SHR DUP1 PUSH4 0x998ED3B EQ PUSH1 0x38 JUMPI JUMPDEST PUSH1 0x0 DUP1 REVERT JUMPDEST PUSH1 0x5E PUSH32 0xD0EBEBE8E6445C62BABF8FEF767EB39F1002BB957BB5B83258275A4E46428ED5 DUP2 JUMP JUMPDEST PUSH1 0x40 MLOAD SWAP1 DUP2 MSTORE PUSH1 0x20 ADD PUSH1 0x40 MLOAD DUP1 SWAP2 SUB SWAP1 RETURN INVALID LOG2 PUSH5 0x6970667358 0x22 SLT KECCAK256 0x1E LOG4 DUP1 0x23 JUMPDEST 0xF6 MSIZE SLOAD 0x4D 0xCE 0xE3 0xE4 EXTCODECOPY 0xEA 0xD8 0xCD PUSH7 0xEA8F241595296B PUSH21 0x95D8B180A0E164736F6C63430008110033000000 "},"methodIdentifiers":{"PERMISSIONS_STORAGE_POSITION()":"0998ed3b"}}}}}