{"contracts/dependencies/Router.sol":{"RouterStorage":{"abi":[{"inputs":[],"name":"ROUTER_STORAGE_POSITION","outputs":[{"internalType":"bytes32","name":"","type":"bytes32"}],"stateMutability":"view","type":"function"}],"evm":{"bytecode":{"linkReferences":{},"object":"60a6610038600b82828239805160001a607314602b57634e487b7160e01b600052600060045260246000fd5b30600052607381538281f3fe730000000000000000000000000000000000000000301460806040526004361060335760003560e01c80632be9b20e146038575b600080fd5b605e7f1a3e4131826bb378aa43abb34a33a366bc4a35b55ab18a884fa205b59285ec4581565b60405190815260200160405180910390f3fea264697066735822122059389a72d66454939a1c96ea4b8cc823c06484f12d69656fc57365c8d38fe68864736f6c63430008110033","opcodes":"PUSH1 0xA6 PUSH2 0x38 PUSH1 0xB DUP3 DUP3 DUP3 CODECOPY DUP1 MLOAD PUSH1 0x0 BYTE PUSH1 0x73 EQ PUSH1 0x2B JUMPI PUSH4 0x4E487B71 PUSH1 0xE0 SHL PUSH1 0x0 MSTORE PUSH1 0x0 PUSH1 0x4 MSTORE PUSH1 0x24 PUSH1 0x0 REVERT JUMPDEST ADDRESS PUSH1 0x0 MSTORE PUSH1 0x73 DUP2 MSTORE8 DUP3 DUP2 RETURN INVALID PUSH20 0x0 ADDRESS EQ PUSH1 0x80 PUSH1 0x40 MSTORE PUSH1 0x4 CALLDATASIZE LT PUSH1 0x33 JUMPI PUSH1 0x0 CALLDATALOAD PUSH1 0xE0 SHR DUP1 PUSH4 0x2BE9B20E EQ PUSH1 0x38 JUMPI JUMPDEST PUSH1 0x0 DUP1 REVERT JUMPDEST PUSH1 0x5E PUSH32 0x1A3E4131826BB378AA43ABB34A33A366BC4A35B55AB18A884FA205B59285EC45 DUP2 JUMP JUMPDEST PUSH1 0x40 MLOAD SWAP1 DUP2 MSTORE PUSH1 0x20 ADD PUSH1 0x40 MLOAD DUP1 SWAP2 SUB SWAP1 RETURN INVALID LOG2 PUSH5 0x6970667358 0x22 SLT KECCAK256 MSIZE CODESIZE SWAP11 PUSH19 0xD66454939A1C96EA4B8CC823C06484F12D6965 PUSH16 0xC57365C8D38FE68864736F6C63430008 GT STOP CALLER "},"methodIdentifiers":{"ROUTER_STORAGE_POSITION()":"2be9b20e"}}}}}