{"contracts/dependencies/PlatformFeeStorage.sol":{"PlatformFeeStorage":{"abi":[{"inputs":[],"name":"PLATFORM_FEE_STORAGE_POSITION","outputs":[{"internalType":"bytes32","name":"","type":"bytes32"}],"stateMutability":"view","type":"function"}],"evm":{"bytecode":{"linkReferences":{},"object":"60a6610038600b82828239805160001a607314602b57634e487b7160e01b600052600060045260246000fd5b30600052607381538281f3fe730000000000000000000000000000000000000000301460806040526004361060335760003560e01c806327789ec8146038575b600080fd5b605e7f4aeb3f25cc46659cf4e4966e5c48b11e9400e6e4bfafae7e3dc6cc3fbc858deb81565b60405190815260200160405180910390f3fea264697066735822122001740ed61b6ad35f11cb9faaba97fa3600868af95535cb56852634ae73f0f76b64736f6c63430008110033","opcodes":"PUSH1 0xA6 PUSH2 0x38 PUSH1 0xB DUP3 DUP3 DUP3 CODECOPY DUP1 MLOAD PUSH1 0x0 BYTE PUSH1 0x73 EQ PUSH1 0x2B JUMPI PUSH4 0x4E487B71 PUSH1 0xE0 SHL PUSH1 0x0 MSTORE PUSH1 0x0 PUSH1 0x4 MSTORE PUSH1 0x24 PUSH1 0x0 REVERT JUMPDEST ADDRESS PUSH1 0x0 MSTORE PUSH1 0x73 DUP2 MSTORE8 DUP3 DUP2 RETURN INVALID PUSH20 0x0 ADDRESS EQ PUSH1 0x80 PUSH1 0x40 MSTORE PUSH1 0x4 CALLDATASIZE LT PUSH1 0x33 JUMPI PUSH1 0x0 CALLDATALOAD PUSH1 0xE0 SHR DUP1 PUSH4 0x27789EC8 EQ PUSH1 0x38 JUMPI JUMPDEST PUSH1 0x0 DUP1 REVERT JUMPDEST PUSH1 0x5E PUSH32 0x4AEB3F25CC46659CF4E4966E5C48B11E9400E6E4BFAFAE7E3DC6CC3FBC858DEB DUP2 JUMP JUMPDEST PUSH1 0x40 MLOAD SWAP1 DUP2 MSTORE PUSH1 0x20 ADD PUSH1 0x40 MLOAD DUP1 SWAP2 SUB SWAP1 RETURN INVALID LOG2 PUSH5 0x6970667358 0x22 SLT KECCAK256 ADD PUSH21 0xED61B6AD35F11CB9FAABA97FA3600868AF95535CB JUMP DUP6 0x26 CALLVALUE 0xAE PUSH20 0xF0F76B64736F6C63430008110033000000000000 "},"methodIdentifiers":{"PLATFORM_FEE_STORAGE_POSITION()":"27789ec8"}}}}}