{"contracts/dependencies/ReentrancyGuardStorage.sol":{"ReentrancyGuardStorage":{"abi":[{"inputs":[],"name":"REENTRANCY_GUARD_STORAGE_POSITION","outputs":[{"internalType":"bytes32","name":"","type":"bytes32"}],"stateMutability":"view","type":"function"}],"evm":{"bytecode":{"linkReferences":{},"object":"60a6610038600b82828239805160001a607314602b57634e487b7160e01b600052600060045260246000fd5b30600052607381538281f3fe730000000000000000000000000000000000000000301460806040526004361060335760003560e01c8063984b83ff146038575b600080fd5b605e7fbbf78d3411d42a81effd97bb8c69faae4e77e75cec462245c1001191a0634c6f81565b60405190815260200160405180910390f3fea2646970667358221220b85ffad67080837ffc015118c7e00929aee373e33e5976d2cb4661608fe57df964736f6c63430008110033","opcodes":"PUSH1 0xA6 PUSH2 0x38 PUSH1 0xB DUP3 DUP3 DUP3 CODECOPY DUP1 MLOAD PUSH1 0x0 BYTE PUSH1 0x73 EQ PUSH1 0x2B JUMPI PUSH4 0x4E487B71 PUSH1 0xE0 SHL PUSH1 0x0 MSTORE PUSH1 0x0 PUSH1 0x4 MSTORE PUSH1 0x24 PUSH1 0x0 REVERT JUMPDEST ADDRESS PUSH1 0x0 MSTORE PUSH1 0x73 DUP2 MSTORE8 DUP3 DUP2 RETURN INVALID PUSH20 0x0 ADDRESS EQ PUSH1 0x80 PUSH1 0x40 MSTORE PUSH1 0x4 CALLDATASIZE LT PUSH1 0x33 JUMPI PUSH1 0x0 CALLDATALOAD PUSH1 0xE0 SHR DUP1 PUSH4 0x984B83FF EQ PUSH1 0x38 JUMPI JUMPDEST PUSH1 0x0 DUP1 REVERT JUMPDEST PUSH1 0x5E PUSH32 0xBBF78D3411D42A81EFFD97BB8C69FAAE4E77E75CEC462245C1001191A0634C6F DUP2 JUMP JUMPDEST PUSH1 0x40 MLOAD SWAP1 DUP2 MSTORE PUSH1 0x20 ADD PUSH1 0x40 MLOAD DUP1 SWAP2 SUB SWAP1 RETURN INVALID LOG2 PUSH5 0x6970667358 0x22 SLT KECCAK256 0xB8 0x5F STATICCALL 0xD6 PUSH17 0x80837FFC015118C7E00929AEE373E33E59 PUSH23 0xD2CB4661608FE57DF964736F6C63430008110033000000 "},"methodIdentifiers":{"REENTRANCY_GUARD_STORAGE_POSITION()":"984b83ff"}}}}}