{"contracts/MarketplaceV3x.sol":{"MarketplaceV3x":{"abi":[{"inputs":[{"internalType":"address","name":"_pluginMap","type":"address"}],"stateMutability":"nonpayable","type":"constructor"},{"anonymous":false,"inputs":[{"indexed":false,"internalType":"string","name":"prevURI","type":"string"},{"indexed":false,"internalType":"string","name":"newURI","type":"string"}],"name":"ContractURIUpdated","type":"event"},{"anonymous":false,"inputs":[{"indexed":true,"internalType":"address","name":"platformFeeRecipient","type":"address"},{"indexed":false,"internalType":"uint256","name":"platformFeeBps","type":"uint256"}],"name":"PlatformFeeInfoUpdated","type":"event"},{"anonymous":false,"inputs":[{"indexed":true,"internalType":"bytes4","name":"functionSelector","type":"bytes4"},{"indexed":true,"internalType":"address","name":"pluginAddress","type":"address"}],"name":"PluginAdded","type":"event"},{"anonymous":false,"inputs":[{"indexed":true,"internalType":"bytes4","name":"functionSelector","type":"bytes4"},{"indexed":true,"internalType":"address","name":"pluginAddress","type":"address"}],"name":"PluginRemoved","type":"event"},{"anonymous":false,"inputs":[{"indexed":true,"internalType":"bytes4","name":"functionSelector","type":"bytes4"},{"indexed":true,"internalType":"string","name":"functionSignature","type":"string"},{"indexed":true,"internalType":"address","name":"pluginAddress","type":"address"}],"name":"PluginSet","type":"event"},{"anonymous":false,"inputs":[{"indexed":true,"internalType":"bytes4","name":"functionSelector","type":"bytes4"},{"indexed":true,"internalType":"address","name":"oldPluginAddress","type":"address"},{"indexed":true,"internalType":"address","name":"newPluginAddress","type":"address"}],"name":"PluginUpdated","type":"event"},{"anonymous":false,"inputs":[{"indexed":true,"internalType":"bytes32","name":"role","type":"bytes32"},{"indexed":true,"internalType":"bytes32","name":"previousAdminRole","type":"bytes32"},{"indexed":true,"internalType":"bytes32","name":"newAdminRole","type":"bytes32"}],"name":"RoleAdminChanged","type":"event"},{"anonymous":false,"inputs":[{"indexed":true,"internalType":"bytes32","name":"role","type":"bytes32"},{"indexed":true,"internalType":"address","name":"account","type":"address"},{"indexed":true,"internalType":"address","name":"sender","type":"address"}],"name":"RoleGranted","type":"event"},{"anonymous":false,"inputs":[{"indexed":true,"internalType":"bytes32","name":"role","type":"bytes32"},{"indexed":true,"internalType":"address","name":"account","type":"address"},{"indexed":true,"internalType":"address","name":"sender","type":"address"}],"name":"RoleRevoked","type":"event"},{"stateMutability":"payable","type":"fallback"},{"inputs":[],"name":"DEFAULT_ADMIN_ROLE","outputs":[{"internalType":"bytes32","name":"","type":"bytes32"}],"stateMutability":"view","type":"function"},{"inputs":[{"internalType":"bytes4","name":"_selector","type":"bytes4"}],"name":"_getPluginForFunction","outputs":[{"internalType":"address","name":"","type":"address"}],"stateMutability":"view","type":"function"},{"inputs":[{"components":[{"internalType":"bytes4","name":"functionSelector","type":"bytes4"},{"internalType":"string","name":"functionSignature","type":"string"},{"internalType":"address","name":"pluginAddress","type":"address"}],"internalType":"struct IPluginMap.Plugin","name":"_plugin","type":"tuple"}],"name":"addPlugin","outputs":[],"stateMutability":"nonpayable","type":"function"},{"inputs":[],"name":"contractType","outputs":[{"internalType":"bytes32","name":"","type":"bytes32"}],"stateMutability":"pure","type":"function"},{"inputs":[],"name":"contractURI","outputs":[{"internalType":"string","name":"","type":"string"}],"stateMutability":"view","type":"function"},{"inputs":[],"name":"contractVersion","outputs":[{"internalType":"uint8","name":"","type":"uint8"}],"stateMutability":"pure","type":"function"},{"inputs":[{"internalType":"address","name":"_pluginAddress","type":"address"}],"name":"getAllFunctionsOfPlugin","outputs":[{"internalType":"bytes4[]","name":"registered","type":"bytes4[]"}],"stateMutability":"view","type":"function"},{"inputs":[],"name":"getAllPlugins","outputs":[{"components":[{"internalType":"bytes4","name":"functionSelector","type":"bytes4"},{"internalType":"string","name":"functionSignature","type":"string"},{"internalType":"address","name":"pluginAddress","type":"address"}],"internalType":"struct IPluginMap.Plugin[]","name":"registered","type":"tuple[]"}],"stateMutability":"view","type":"function"},{"inputs":[],"name":"getPlatformFeeInfo","outputs":[{"internalType":"address","name":"","type":"address"},{"internalType":"uint16","name":"","type":"uint16"}],"stateMutability":"view","type":"function"},{"inputs":[{"internalType":"bytes4","name":"_selector","type":"bytes4"}],"name":"getPluginForFunction","outputs":[{"internalType":"address","name":"","type":"address"}],"stateMutability":"view","type":"function"},{"inputs":[{"internalType":"bytes32","name":"role","type":"bytes32"}],"name":"getRoleAdmin","outputs":[{"internalType":"bytes32","name":"","type":"bytes32"}],"stateMutability":"view","type":"function"},{"inputs":[{"internalType":"bytes32","name":"role","type":"bytes32"},{"internalType":"uint256","name":"index","type":"uint256"}],"name":"getRoleMember","outputs":[{"internalType":"address","name":"member","type":"address"}],"stateMutability":"view","type":"function"},{"inputs":[{"internalType":"bytes32","name":"role","type":"bytes32"}],"name":"getRoleMemberCount","outputs":[{"internalType":"uint256","name":"count","type":"uint256"}],"stateMutability":"view","type":"function"},{"inputs":[{"internalType":"bytes32","name":"role","type":"bytes32"},{"internalType":"address","name":"account","type":"address"}],"name":"grantRole","outputs":[],"stateMutability":"nonpayable","type":"function"},{"inputs":[{"internalType":"bytes32","name":"role","type":"bytes32"},{"internalType":"address","name":"account","type":"address"}],"name":"hasRole","outputs":[{"internalType":"bool","name":"","type":"bool"}],"stateMutability":"view","type":"function"},{"inputs":[{"internalType":"bytes32","name":"role","type":"bytes32"},{"internalType":"address","name":"account","type":"address"}],"name":"hasRoleWithSwitch","outputs":[{"internalType":"bool","name":"","type":"bool"}],"stateMutability":"view","type":"function"},{"inputs":[{"internalType":"address","name":"_defaultAdmin","type":"address"},{"internalType":"string","name":"_contractURI","type":"string"},{"internalType":"address[]","name":"_trustedForwarders","type":"address[]"},{"internalType":"address","name":"_platformFeeRecipient","type":"address"},{"internalType":"uint16","name":"_platformFeeBps","type":"uint16"},{"internalType":"address","name":"_nftCollection1","type":"address"},{"internalType":"address","name":"_nftCollection2","type":"address"},{"internalType":"address","name":"_nftCollection3","type":"address"},{"internalType":"address","name":"_nftCollection4","type":"address"},{"internalType":"address","name":"_nftCollection5","type":"address"}],"name":"initialize","outputs":[],"stateMutability":"nonpayable","type":"function"},{"inputs":[{"internalType":"address","name":"forwarder","type":"address"}],"name":"isTrustedForwarder","outputs":[{"internalType":"bool","name":"","type":"bool"}],"stateMutability":"view","type":"function"},{"inputs":[{"internalType":"bytes[]","name":"data","type":"bytes[]"}],"name":"multicall","outputs":[{"internalType":"bytes[]","name":"results","type":"bytes[]"}],"stateMutability":"nonpayable","type":"function"},{"inputs":[],"name":"nftCollection1","outputs":[{"internalType":"address","name":"","type":"address"}],"stateMutability":"view","type":"function"},{"inputs":[],"name":"nftCollection2","outputs":[{"internalType":"address","name":"","type":"address"}],"stateMutability":"view","type":"function"},{"inputs":[],"name":"nftCollection3","outputs":[{"internalType":"address","name":"","type":"address"}],"stateMutability":"view","type":"function"},{"inputs":[],"name":"nftCollection4","outputs":[{"internalType":"address","name":"","type":"address"}],"stateMutability":"view","type":"function"},{"inputs":[],"name":"nftCollection5","outputs":[{"internalType":"address","name":"","type":"address"}],"stateMutability":"view","type":"function"},{"inputs":[{"internalType":"address","name":"","type":"address"},{"internalType":"address","name":"","type":"address"},{"internalType":"uint256[]","name":"","type":"uint256[]"},{"internalType":"uint256[]","name":"","type":"uint256[]"},{"internalType":"bytes","name":"","type":"bytes"}],"name":"onERC1155BatchReceived","outputs":[{"internalType":"bytes4","name":"","type":"bytes4"}],"stateMutability":"nonpayable","type":"function"},{"inputs":[{"internalType":"address","name":"","type":"address"},{"internalType":"address","name":"","type":"address"},{"internalType":"uint256","name":"","type":"uint256"},{"internalType":"uint256","name":"","type":"uint256"},{"internalType":"bytes","name":"","type":"bytes"}],"name":"onERC1155Received","outputs":[{"internalType":"bytes4","name":"","type":"bytes4"}],"stateMutability":"nonpayable","type":"function"},{"inputs":[{"internalType":"address","name":"","type":"address"},{"internalType":"address","name":"","type":"address"},{"internalType":"uint256","name":"","type":"uint256"},{"internalType":"bytes","name":"","type":"bytes"}],"name":"onERC721Received","outputs":[{"internalType":"bytes4","name":"","type":"bytes4"}],"stateMutability":"pure","type":"function"},{"inputs":[],"name":"pluginMap","outputs":[{"internalType":"address","name":"","type":"address"}],"stateMutability":"view","type":"function"},{"inputs":[{"internalType":"bytes4","name":"_selector","type":"bytes4"}],"name":"removePlugin","outputs":[],"stateMutability":"nonpayable","type":"function"},{"inputs":[{"internalType":"bytes32","name":"role","type":"bytes32"},{"internalType":"address","name":"account","type":"address"}],"name":"renounceRole","outputs":[],"stateMutability":"nonpayable","type":"function"},{"inputs":[{"internalType":"bytes32","name":"role","type":"bytes32"},{"internalType":"address","name":"account","type":"address"}],"name":"revokeRole","outputs":[],"stateMutability":"nonpayable","type":"function"},{"inputs":[{"internalType":"string","name":"_uri","type":"string"}],"name":"setContractURI","outputs":[],"stateMutability":"nonpayable","type":"function"},{"inputs":[{"internalType":"address","name":"_platformFeeRecipient","type":"address"},{"internalType":"uint256","name":"_platformFeeBps","type":"uint256"}],"name":"setPlatformFeeInfo","outputs":[],"stateMutability":"nonpayable","type":"function"},{"inputs":[{"internalType":"bytes4","name":"interfaceId","type":"bytes4"}],"name":"supportsInterface","outputs":[{"internalType":"bool","name":"","type":"bool"}],"stateMutability":"view","type":"function"},{"inputs":[{"components":[{"internalType":"bytes4","name":"functionSelector","type":"bytes4"},{"internalType":"string","name":"functionSignature","type":"string"},{"internalType":"address","name":"pluginAddress","type":"address"}],"internalType":"struct IPluginMap.Plugin","name":"_plugin","type":"tuple"}],"name":"updatePlugin","outputs":[],"stateMutability":"nonpayable","type":"function"},{"stateMutability":"payable","type":"receive"}],"evm":{"bytecode":{"linkReferences":{},"object":"60a06040523480156200001157600080fd5b506040516200302738038062003027833981016040819052620000349162000046565b6001600160a01b031660805262000078565b6000602082840312156200005957600080fd5b81516001600160a01b03811681146200007157600080fd5b9392505050565b608051612f77620000b0600039600081816102570152818161069e01528181610cfb01528181610fc201526115840152612f776000f3fe6080604052600436106102085760003560e01c8063938e3d7b11610118578063bc197c81116100a0578063cb2ef6f71161006f578063cb2ef6f71461074c578063d45573f614610770578063d547741f146107c6578063e8a3d485146107e6578063f23a6e61146108085761020f565b8063bc197c81146106c0578063bd8d5dd0146106ec578063c511f8fb1461070c578063ca15c8731461072c5761020f565b8063a32fa5b3116100e7578063a32fa5b314610604578063a520a38a14610624578063a5342fdf14610644578063ac9650d81461065f578063b48912da1461068c5761020f565b8063938e3d7b146105935780639858fb6d146105b3578063a0a8e460146105d3578063a217fddf146105ef5761020f565b806336568abe1161019b5780635c573f2e1161016a5780635c573f2e146104e45780636b86400e146105115780638343d5b5146105335780639010d07c1461055357806391d14854146105735761020f565b806336568abe146104645780633ab6a05a146104845780634cb5d8fd146104a4578063572b6c05146104c45761020f565b80631e7ac488116101d75780631e7ac488146103aa57806321f6baff146103ca578063248a9ca3146103ea5780632f2ff15d146104445761020f565b806301ffc9a7146102d85780631179f5091461030d578063150b7a02146103455780631ab6b7051461038a5761020f565b3661020f57005b60006102266000356001600160e01b031916610834565b90506001600160a01b0381166102cd5760405163529051c560e11b81526000356001600160e01b03191660048201527f00000000000000000000000000000000000000000000000000000000000000006001600160a01b03169063a520a38a90602401602060405180830381865afa1580156102a6573d6000803e3d6000fd5b505050506040513d601f19601f820116820180604052508101906102ca9190612198565b90505b6102d68161087b565b005b3480156102e457600080fd5b506102f86102f33660046121cb565b6108a4565b60405190151581526020015b60405180910390f35b34801561031957600080fd5b5060015461032d906001600160a01b031681565b6040516001600160a01b039091168152602001610304565b34801561035157600080fd5b506103716103603660046121f3565b630a85bd0160e11b95945050505050565b6040516001600160e01b03199091168152602001610304565b34801561039657600080fd5b506102d66103a536600461237c565b6108ea565b3480156103b657600080fd5b506102d66103c5366004612412565b610933565b3480156103d657600080fd5b5060045461032d906001600160a01b031681565b3480156103f657600080fd5b5061043661040536600461243e565b60009081527fd0ebebe8e6445c62babf8fef767eb39f1002bb957bb5b83258275a4e46428ed6602052604090205490565b604051908152602001610304565b34801561045057600080fd5b506102d661045f366004612457565b610986565b34801561047057600080fd5b506102d661047f366004612457565b610a50565b34801561049057600080fd5b506102d661049f36600461252b565b610ac2565b3480156104b057600080fd5b506102d66104bf36600461237c565b610c25565b3480156104d057600080fd5b506102f86104df366004612615565b610c63565b3480156104f057600080fd5b506105046104ff366004612615565b610ca0565b6040516103049190612632565b34801561051d57600080fd5b50610526610f8f565b60405161030491906126d0565b34801561053f57600080fd5b5060035461032d906001600160a01b031681565b34801561055f57600080fd5b5061032d61056e366004612766565b611366565b34801561057f57600080fd5b506102f861058e366004612457565b611461565b34801561059f57600080fd5b506102d66105ae366004612788565b611499565b3480156105bf57600080fd5b5060025461032d906001600160a01b031681565b3480156105df57600080fd5b5060405160018152602001610304565b3480156105fb57600080fd5b50610436600081565b34801561061057600080fd5b506102f861061f366004612457565b6114e7565b34801561063057600080fd5b5061032d61063f3660046121cb565b611549565b34801561065057600080fd5b506102d66104bf3660046121cb565b34801561066b57600080fd5b5061067f61067a3660046127c4565b611605565b6040516103049190612838565b34801561069857600080fd5b5061032d7f000000000000000000000000000000000000000000000000000000000000000081565b3480156106cc57600080fd5b506103716106db3660046128f5565b63bc197c8160e01b95945050505050565b3480156106f857600080fd5b5060005461032d906001600160a01b031681565b34801561071857600080fd5b5061032d6107273660046121cb565b610834565b34801561073857600080fd5b5061043661074736600461243e565b6116f9565b34801561075857600080fd5b506d09ac2e4d6cae8e0d8c2c6caac66f60931b610436565b34801561077c57600080fd5b507f4aeb3f25cc46659cf4e4966e5c48b11e9400e6e4bfafae7e3dc6cc3fbc858deb54604080516001600160a01b0383168152600160a01b90920461ffff16602083015201610304565b3480156107d257600080fd5b506102d66107e1366004612457565b611790565b3480156107f257600080fd5b506107fb6117e4565b60405161030491906129a2565b34801561081457600080fd5b506103716108233660046129b5565b63f23a6e6160e01b95945050505050565b6001600160e01b03191660009081527f1a3e4131826bb378aa43abb34a33a366bc4a35b55ab18a884fa205b59285ec4860205260409020600201546001600160a01b031690565b3660008037600080366000845af43d6000803e80801561089a573d6000f35b3d6000fd5b505050565b60006001600160e01b03198216630271189760e51b14806108d557506001600160e01b03198216630a85bd0160e11b145b806108e457506108e48261189a565b92915050565b60405162461bcd60e51b8152602060048201526016602482015275149bdd5d195c8e88139bdd08185d5d1a1bdc9a5e995960521b60448201526064015b60405180910390fd5b50565b61093b6118cf565b6109785760405162461bcd60e51b815260206004820152600e60248201526d139bdd08185d5d1a1bdc9a5e995960921b6044820152606401610927565b61098282826118e2565b5050565b60008281527fd0ebebe8e6445c62babf8fef767eb39f1002bb957bb5b83258275a4e46428ed66020526040902054600080516020612edb833981519152906109d5906109d06119b0565b6119d2565b6000838152602082815260408083206001600160a01b038616845290915290205460ff1615610a465760405162461bcd60e51b815260206004820152601d60248201527f43616e206f6e6c79206772616e7420746f206e6f6e20686f6c646572730000006044820152606401610927565b61089f8383611a60565b806001600160a01b0316610a626119b0565b6001600160a01b031614610ab85760405162461bcd60e51b815260206004820152601a60248201527f43616e206f6e6c792072656e6f756e636520666f722073656c660000000000006044820152606401610927565b6109828282611a74565b7f627d6cbb4eb558f37de3c2ec08b04710e54e06be936a302f087f7bfb80f39ae0805460ff1615610b2c5760405162461bcd60e51b815260206004820152601460248201527320b63932b0b23c9034b734ba34b0b634bd32b21760611b6044820152606401610927565b805460ff19166001178155610b3f611ad8565b610b4889611b03565b610b518a611b0c565b610b5f888861ffff166118e2565b610b6a60008c611a60565b610b957ff94103142c1baabe9ac2b5d1487bf783de9e69cfeea9a72f5c9c94afd7877b8c6000611a60565b610bc07f86d5cf0a6bdc8d859ba3bdc97043337c82a0e609035f378e419298b6a3e00ae66000611a60565b50600080546001600160a01b03199081166001600160a01b039788161790915560018054821695871695909517909455600280548516938616939093179092556003805484169185169190911790556004805490921692169190911790555050505050565b60405162461bcd60e51b815260206004820152601360248201527213585c0e88139bdd08185d5d1a1bdc9a5e9959606a1b6044820152606401610927565b6001600160a01b031660009081527fa140e363058a6cf3ca062c5e378319d7ddd21cedfbdca620f1c65b05028f156c602052604090205460ff1690565b606060007f1a3e4131826bb378aa43abb34a33a366bc4a35b55ab18a884fa205b59285ec456001600160a01b0384811660008181526002840160205260408082209051632e2b9f9760e11b81526004810193909352939450917f00000000000000000000000000000000000000000000000000000000000000001690635c573f2e90602401600060405180830381865afa158015610d42573d6000803e3d6000fd5b505050506040513d6000823e601f3d908101601f19168201604052610d6a9190810190612a1d565b8051909150600081610d7b85611c0d565b610d859190612acc565b905060005b82811015610e1d57610dc8848281518110610da757610da7612adf565b60200260200101516001600160e01b03191686611c1790919063ffffffff16565b15610e0b57610dd8600183612af5565b9150600060e01b848281518110610df157610df1612adf565b6001600160e01b0319909216602092830291909101909101525b610e16600182612acc565b9050610d8a565b50806001600160401b03811115610e3657610e36612291565b604051908082528060200260200182016040528015610e5f578160200160208202803683370190505b5095506000805b83811015610f00578451600090869083908110610e8557610e85612adf565b60200260200101516001600160e01b03191614610eee57848181518110610eae57610eae612adf565b6020026020010151888380610ec290612b08565b945081518110610ed457610ed4612adf565b6001600160e01b0319909216602092830291909101909101525b610ef9600182612acc565b9050610e66565b50610f0a85611c0d565b925060005b83811015610f83576001600160a01b03891660009081526002880160205260409020610f3b9082611c2f565b8883610f4681612b08565b945081518110610f5857610f58612adf565b6001600160e01b031990921660209283029190910190910152610f7c600182612acc565b9050610f0f565b50505050505050919050565b606060007f1a3e4131826bb378aa43abb34a33a366bc4a35b55ab18a884fa205b59285ec459050600081600001905060007f00000000000000000000000000000000000000000000000000000000000000006001600160a01b0316636b86400e6040518163ffffffff1660e01b8152600401600060405180830381865afa15801561101e573d6000803e3d6000fd5b505050506040513d6000823e601f3d908101601f191682016040526110469190810190612b21565b9050600061105383611c0d565b825190915060006110648284612acc565b905060005b838110156111205760005b8381101561110d5785818151811061108e5761108e612adf565b6020908102919091010151516001600160e01b0319166110ae8884611c2f565b6001600160e01b031916036110fb576110c8600184612af5565b9250600060e01b8682815181106110e1576110e1612adf565b60209081029190910101516001600160e01b031990911690525b611106600182612acc565b9050611074565b50611119600182612acc565b9050611069565b50806001600160401b0381111561113957611139612291565b60405190808252806020026020018201604052801561118957816020015b604080516060808201835260008083526020830191909152918101919091528152602001906001900390816111575790505b5096506000805b838110156112215785516000908790839081106111af576111af612adf565b6020026020010151600001516001600160e01b0319161461120f578581815181106111dc576111dc612adf565b60200260200101518983815181106111f6576111f6612adf565b602090810291909101015261120c600183612acc565b91505b61121a600182612acc565b9050611190565b5060005b8481101561135b5760038801600061123d8984611c2f565b6001600160e01b031990811682526020808301939093526040918201600020825160608101909352805460e01b9091168252600181018054929391929184019161128690612c61565b80601f01602080910402602001604051908101604052809291908181526020018280546112b290612c61565b80156112ff5780601f106112d4576101008083540402835291602001916112ff565b820191906000526020600020905b8154815290600101906020018083116112e257829003601f168201915b5050509183525050600291909101546001600160a01b031660209091015289518a908490811061133157611331612adf565b6020908102919091010152611347600183612acc565b9150611354600182612acc565b9050611225565b505050505050505090565b6000828152600080516020612f228339815191526020819052604082205482805b82811015611457576000878152602085815260408083208484526001019091529020546001600160a01b031615611402578582036113f0576000878152602094855260408082209282526001909201909452909220546001600160a01b031692506108e4915050565b6113fb600183612acc565b9150611445565b61140d876000611461565b8015611432575060008781526020858152604080832083805260020190915290205481145b1561144557611442600183612acc565b91505b611450600182612acc565b9050611387565b5050505092915050565b6000918252600080516020612edb833981519152602090815260408084206001600160a01b0393909316845291905290205460ff1690565b6114a16118cf565b6114de5760405162461bcd60e51b815260206004820152600e60248201526d139bdd08185d5d1a1bdc9a5e995960921b6044820152606401610927565b61093081611b0c565b6000828152600080516020612edb8339815191526020818152604080842084805290915282205460ff1661153f576000848152602091825260408082206001600160a01b0386168352909252205460ff1690506108e4565b5060019392505050565b60008061155583610834565b90506001600160a01b0381166115fc5760405163529051c560e11b81526001600160e01b0319841660048201527f00000000000000000000000000000000000000000000000000000000000000006001600160a01b03169063a520a38a90602401602060405180830381865afa1580156115d3573d6000803e3d6000fd5b505050506040513d601f19601f820116820180604052508101906115f79190612198565b6115fe565b805b9392505050565b6060816001600160401b0381111561161f5761161f612291565b60405190808252806020026020018201604052801561165257816020015b606081526020019060019003908161163d5790505b50905060005b828110156116f2576116c23085858481811061167657611676612adf565b90506020028101906116889190612c9b565b8080601f016020809104026020016040519081016040528093929190818152602001838380828437600092019190915250611c3b92505050565b8282815181106116d4576116d4612adf565b602002602001018190525080806116ea90612b08565b915050611658565b5092915050565b6000818152600080516020612f2283398151915260208190526040822054825b8181101561176a576000858152602084815260408083208484526001019091529020546001600160a01b03161561175857611755600185612acc565b93505b611763600182612acc565b9050611719565b50611776846000611461565b1561178957611786600184612acc565b92505b5050919050565b60008281527fd0ebebe8e6445c62babf8fef767eb39f1002bb957bb5b83258275a4e46428ed66020526040902054600080516020612edb833981519152906117da906109d06119b0565b61089f8383611a74565b7fa7d40346e44ca145e94a946aa34a7d4a67245577dc18699a626fe0ffc6ce3281805460609190819061181690612c61565b80601f016020809104026020016040519081016040528092919081815260200182805461184290612c61565b801561188f5780601f106118645761010080835404028352916020019161188f565b820191906000526020600020905b81548152906001019060200180831161187257829003601f168201915b505050505091505090565b60006001600160e01b0319821663f337402760e01b14806108e457506301ffc9a760e01b6001600160e01b03198316146108e4565b60006118dd8161058e6119b0565b905090565b7f4aeb3f25cc46659cf4e4966e5c48b11e9400e6e4bfafae7e3dc6cc3fbc858deb6127108211156119475760405162461bcd60e51b815260206004820152600f60248201526e45786365656473206d61782062707360881b6044820152606401610927565b80546001600160b01b031916600160a01b61ffff8416026001600160a01b031916176001600160a01b03841690811782556040518381527fe2497bd806ec41a6e0dd992c29a72efc0ef8fec9092d1978fd4a1e00b2f183049060200160405180910390a2505050565b60006119bb33610c63565b156119cd575060131936013560601c90565b503390565b6000828152600080516020612edb833981519152602081815260408084206001600160a01b03861685529091529091205460ff1661089f57611a1e826001600160a01b03166014611c60565b611a29846020611c60565b604051602001611a3a929190612e11565b60408051601f198184030181529082905262461bcd60e51b8252610927916004016129a2565b611a6a8282611dfb565b6109828282611e86565b611a7e8282611f02565b6000828152600080516020612f22833981519152602090815260408083206001600160a01b03851680855260028201808552838620805487526001909301855292852080546001600160a01b031916905584529152555050565b611b0160017fbbf78d3411d42a81effd97bb8c69faae4e77e75cec462245c1001191a0634c6f55565b565b61093081611f90565b7fa7d40346e44ca145e94a946aa34a7d4a67245577dc18699a626fe0ffc6ce328180546000908290611b3d90612c61565b80601f0160208091040260200160405190810160405280929190818152602001828054611b6990612c61565b8015611bb65780601f10611b8b57610100808354040283529160200191611bb6565b820191906000526020600020905b815481529060010190602001808311611b9957829003601f168201915b5050505050905082826000019081611bce9190612d52565b507fc9c7c3fe08b88b4df9d4d47ef47d2c43d55c025a0ba88ca442580ed9e7348a168184604051611c00929190612e7e565b60405180910390a1505050565b60006108e4825490565b600081815260018301602052604081205415156115fe565b60006115fe838361201b565b60606115fe8383604051806060016040528060278152602001612efb60279139612045565b60606000611c6f836002612eac565b611c7a906002612acc565b6001600160401b03811115611c9157611c91612291565b6040519080825280601f01601f191660200182016040528015611cbb576020820181803683370190505b509050600360fc1b81600081518110611cd657611cd6612adf565b60200101906001600160f81b031916908160001a905350600f60fb1b81600181518110611d0557611d05612adf565b60200101906001600160f81b031916908160001a9053506000611d29846002612eac565b611d34906001612acc565b90505b6001811115611dac576f181899199a1a9b1b9c1cb0b131b232b360811b85600f1660108110611d6857611d68612adf565b1a60f81b828281518110611d7e57611d7e612adf565b60200101906001600160f81b031916908160001a90535060049490941c93611da581612ec3565b9050611d37565b5083156115fe5760405162461bcd60e51b815260206004820181905260248201527f537472696e67733a20686578206c656e67746820696e73756666696369656e746044820152606401610927565b6000600080516020612edb8339815191526000848152602082815260408083206001600160a01b03871684529091529020805460ff191660011790559050611e416119b0565b6001600160a01b0316826001600160a01b0316847f2f8788117e7eff1d82e926ec794901d17c78024a50270940304540a733656f0d60405160405180910390a4505050565b6000828152600080516020612f228339815191526020819052604082208054919260019190611eb58385612acc565b909155505060009384526020918252604080852082865260018101845281862080546001600160a01b039096166001600160a01b0319909616861790559385526002909301909152912055565b600080516020612edb833981519152611f1b83836119d2565b6000838152602082815260408083206001600160a01b03861684529091529020805460ff19169055611f4b6119b0565b6001600160a01b0316826001600160a01b0316847ff6391f5c32d9c69d2a47ea670b442974b53935d1edc7fd64eb21e047a839171b60405160405180910390a4505050565b7fa140e363058a6cf3ca062c5e378319d7ddd21cedfbdca620f1c65b05028f156c60005b825181101561089f576001826000016000858481518110611fd757611fd7612adf565b6020908102919091018101516001600160a01b03168252810191909152604001600020805460ff19169115159190911790558061201381612b08565b915050611fb4565b600082600001828154811061203257612032612adf565b9060005260206000200154905092915050565b60606001600160a01b0384163b6120ad5760405162461bcd60e51b815260206004820152602660248201527f416464726573733a2064656c65676174652063616c6c20746f206e6f6e2d636f6044820152651b9d1c9858dd60d21b6064820152608401610927565b600080856001600160a01b0316856040516120c89190612ce8565b600060405180830381855af49150503d8060008114612103576040519150601f19603f3d011682016040523d82523d6000602084013e612108565b606091505b5091509150612118828286612122565b9695505050505050565b606083156121315750816115fe565b8251156121415782518084602001fd5b8160405162461bcd60e51b815260040161092791906129a2565b8082111561216f576000815560010161215b565b5090565b6001600160a01b038116811461093057600080fd5b805161219381612173565b919050565b6000602082840312156121aa57600080fd5b81516115fe81612173565b6001600160e01b03198116811461093057600080fd5b6000602082840312156121dd57600080fd5b81356115fe816121b5565b803561219381612173565b60008060008060006080868803121561220b57600080fd5b853561221681612173565b9450602086013561222681612173565b93506040860135925060608601356001600160401b038082111561224957600080fd5b818801915088601f83011261225d57600080fd5b81358181111561226c57600080fd5b89602082850101111561227e57600080fd5b9699959850939650602001949392505050565b634e487b7160e01b600052604160045260246000fd5b604051606081016001600160401b03811182821017156122c9576122c9612291565b60405290565b604051601f8201601f191681016001600160401b03811182821017156122f7576122f7612291565b604052919050565b60006001600160401b0382111561231857612318612291565b50601f01601f191660200190565b600082601f83011261233757600080fd5b813561234a612345826122ff565b6122cf565b81815284602083860101111561235f57600080fd5b816020850160208301376000918101602001919091529392505050565b60006020828403121561238e57600080fd5b81356001600160401b03808211156123a557600080fd5b90830190606082860312156123b957600080fd5b6123c16122a7565b82356123cc816121b5565b81526020830135828111156123e057600080fd5b6123ec87828601612326565b6020830152506040830135925061240283612173565b6040810192909252509392505050565b6000806040838503121561242557600080fd5b823561243081612173565b946020939093013593505050565b60006020828403121561245057600080fd5b5035919050565b6000806040838503121561246a57600080fd5b82359150602083013561247c81612173565b809150509250929050565b60006001600160401b038211156124a0576124a0612291565b5060051b60200190565b600082601f8301126124bb57600080fd5b813560206124cb61234583612487565b82815260059290921b840181019181810190868411156124ea57600080fd5b8286015b8481101561250e57803561250181612173565b83529183019183016124ee565b509695505050505050565b803561ffff8116811461219357600080fd5b6000806000806000806000806000806101408b8d03121561254b57600080fd5b6125548b6121e8565b995060208b01356001600160401b038082111561257057600080fd5b61257c8e838f01612326565b9a5060408d013591508082111561259257600080fd5b5061259f8d828e016124aa565b9850506125ae60608c016121e8565b96506125bc60808c01612519565b95506125ca60a08c016121e8565b94506125d860c08c016121e8565b93506125e660e08c016121e8565b92506125f56101008c016121e8565b91506126046101208c016121e8565b90509295989b9194979a5092959850565b60006020828403121561262757600080fd5b81356115fe81612173565b6020808252825182820181905260009190848201906040850190845b818110156126745783516001600160e01b0319168352928401929184019160010161264e565b50909695505050505050565b60005b8381101561269b578181015183820152602001612683565b50506000910152565b600081518084526126bc816020860160208601612680565b601f01601f19169290920160200192915050565b60006020808301818452808551808352604092508286019150828160051b87010184880160005b8381101561275857888303603f19018552815180516001600160e01b031916845287810151606089860181905290612731828701826126a4565b928901516001600160a01b03169589019590955250948701949250908601906001016126f7565b509098975050505050505050565b6000806040838503121561277957600080fd5b50508035926020909101359150565b60006020828403121561279a57600080fd5b81356001600160401b038111156127b057600080fd5b6127bc84828501612326565b949350505050565b600080602083850312156127d757600080fd5b82356001600160401b03808211156127ee57600080fd5b818501915085601f83011261280257600080fd5b81358181111561281157600080fd5b8660208260051b850101111561282657600080fd5b60209290920196919550909350505050565b6000602080830181845280855180835260408601915060408160051b870101925083870160005b8281101561288d57603f1988860301845261287b8583516126a4565b9450928501929085019060010161285f565b5092979650505050505050565b600082601f8301126128ab57600080fd5b813560206128bb61234583612487565b82815260059290921b840181019181810190868411156128da57600080fd5b8286015b8481101561250e57803583529183019183016128de565b600080600080600060a0868803121561290d57600080fd5b853561291881612173565b9450602086013561292881612173565b935060408601356001600160401b038082111561294457600080fd5b61295089838a0161289a565b9450606088013591508082111561296657600080fd5b61297289838a0161289a565b9350608088013591508082111561298857600080fd5b5061299588828901612326565b9150509295509295909350565b6020815260006115fe60208301846126a4565b600080600080600060a086880312156129cd57600080fd5b85356129d881612173565b945060208601356129e881612173565b9350604086013592506060860135915060808601356001600160401b03811115612a1157600080fd5b61299588828901612326565b60006020808385031215612a3057600080fd5b82516001600160401b03811115612a4657600080fd5b8301601f81018513612a5757600080fd5b8051612a6561234582612487565b81815260059190911b82018301908381019087831115612a8457600080fd5b928401925b82841015612aab578351612a9c816121b5565b82529284019290840190612a89565b979650505050505050565b634e487b7160e01b600052601160045260246000fd5b808201808211156108e4576108e4612ab6565b634e487b7160e01b600052603260045260246000fd5b818103818111156108e4576108e4612ab6565b600060018201612b1a57612b1a612ab6565b5060010190565b60006020808385031215612b3457600080fd5b82516001600160401b0380821115612b4b57600080fd5b818501915085601f830112612b5f57600080fd5b8151612b6d61234582612487565b81815260059190911b83018401908481019088831115612b8c57600080fd5b8585015b83811015612c5457805185811115612ba757600080fd5b86016060818c03601f19011215612bbe5760008081fd5b612bc66122a7565b88820151612bd3816121b5565b815260408281015188811115612be95760008081fd5b8301603f81018e13612bfb5760008081fd5b8a810151612c0b612345826122ff565b8181528f84838501011115612c205760008081fd5b612c2f828e8301868601612680565b848d015250612c42905060608401612188565b90820152845250918601918601612b90565b5098975050505050505050565b600181811c90821680612c7557607f821691505b602082108103612c9557634e487b7160e01b600052602260045260246000fd5b50919050565b6000808335601e19843603018112612cb257600080fd5b8301803591506001600160401b03821115612ccc57600080fd5b602001915036819003821315612ce157600080fd5b9250929050565b60008251612cfa818460208701612680565b9190910192915050565b601f82111561089f57600081815260208120601f850160051c81016020861015612d2b5750805b601f850160051c820191505b81811015612d4a57828155600101612d37565b505050505050565b81516001600160401b03811115612d6b57612d6b612291565b612d7f81612d798454612c61565b84612d04565b602080601f831160018114612db45760008415612d9c5750858301515b600019600386901b1c1916600185901b178555612d4a565b600085815260208120601f198616915b82811015612de357888601518255948401946001909101908401612dc4565b5085821015612e015787850151600019600388901b60f8161c191681555b5050505050600190811b01905550565b7402832b936b4b9b9b4b7b7399d1030b1b1b7bab73a1605d1b815260008351612e41816015850160208801612680565b7001034b99036b4b9b9b4b733903937b6329607d1b6015918401918201528351612e72816026840160208801612680565b01602601949350505050565b604081526000612e9160408301856126a4565b8281036020840152612ea381856126a4565b95945050505050565b80820281158282048414176108e4576108e4612ab6565b600081612ed257612ed2612ab6565b50600019019056fed0ebebe8e6445c62babf8fef767eb39f1002bb957bb5b83258275a4e46428ed5416464726573733a206c6f772d6c6576656c2064656c65676174652063616c6c206661696c65640c4ba382c0009cf238e4c1ca1a52f51c61e6248a70bdfb34e5ed49d5578a5c0ca2646970667358221220c0de5569b18f14c12a672334091cb6db45ce3892ca82e37bfe4c649ad68a953964736f6c63430008110033","opcodes":"PUSH1 0xA0 PUSH1 0x40 MSTORE CALLVALUE DUP1 ISZERO PUSH3 0x11 JUMPI PUSH1 0x0 DUP1 REVERT JUMPDEST POP PUSH1 0x40 MLOAD PUSH3 0x3027 CODESIZE SUB DUP1 PUSH3 0x3027 DUP4 CODECOPY DUP2 ADD PUSH1 0x40 DUP2 SWAP1 MSTORE PUSH3 0x34 SWAP2 PUSH3 0x46 JUMP JUMPDEST PUSH1 0x1 PUSH1 0x1 PUSH1 0xA0 SHL SUB AND PUSH1 0x80 MSTORE PUSH3 0x78 JUMP JUMPDEST PUSH1 0x0 PUSH1 0x20 DUP3 DUP5 SUB SLT ISZERO PUSH3 0x59 JUMPI PUSH1 0x0 DUP1 REVERT JUMPDEST DUP2 MLOAD PUSH1 0x1 PUSH1 0x1 PUSH1 0xA0 SHL SUB DUP2 AND DUP2 EQ PUSH3 0x71 JUMPI PUSH1 0x0 DUP1 REVERT JUMPDEST SWAP4 SWAP3 POP POP POP JUMP JUMPDEST PUSH1 0x80 MLOAD PUSH2 0x2F77 PUSH3 0xB0 PUSH1 0x0 CODECOPY PUSH1 0x0 DUP2 DUP2 PUSH2 0x257 ADD MSTORE DUP2 DUP2 PUSH2 0x69E ADD MSTORE DUP2 DUP2 PUSH2 0xCFB ADD MSTORE DUP2 DUP2 PUSH2 0xFC2 ADD MSTORE PUSH2 0x1584 ADD MSTORE PUSH2 0x2F77 PUSH1 0x0 RETURN INVALID PUSH1 0x80 PUSH1 0x40 MSTORE PUSH1 0x4 CALLDATASIZE LT PUSH2 0x208 JUMPI PUSH1 0x0 CALLDATALOAD PUSH1 0xE0 SHR DUP1 PUSH4 0x938E3D7B GT PUSH2 0x118 JUMPI DUP1 PUSH4 0xBC197C81 GT PUSH2 0xA0 JUMPI DUP1 PUSH4 0xCB2EF6F7 GT PUSH2 0x6F JUMPI DUP1 PUSH4 0xCB2EF6F7 EQ PUSH2 0x74C JUMPI DUP1 PUSH4 0xD45573F6 EQ PUSH2 0x770 JUMPI DUP1 PUSH4 0xD547741F EQ PUSH2 0x7C6 JUMPI DUP1 PUSH4 0xE8A3D485 EQ PUSH2 0x7E6 JUMPI DUP1 PUSH4 0xF23A6E61 EQ PUSH2 0x808 JUMPI PUSH2 0x20F JUMP JUMPDEST DUP1 PUSH4 0xBC197C81 EQ PUSH2 0x6C0 JUMPI DUP1 PUSH4 0xBD8D5DD0 EQ PUSH2 0x6EC JUMPI DUP1 PUSH4 0xC511F8FB EQ PUSH2 0x70C JUMPI DUP1 PUSH4 0xCA15C873 EQ PUSH2 0x72C JUMPI PUSH2 0x20F JUMP JUMPDEST DUP1 PUSH4 0xA32FA5B3 GT PUSH2 0xE7 JUMPI DUP1 PUSH4 0xA32FA5B3 EQ PUSH2 0x604 JUMPI DUP1 PUSH4 0xA520A38A EQ PUSH2 0x624 JUMPI DUP1 PUSH4 0xA5342FDF EQ PUSH2 0x644 JUMPI DUP1 PUSH4 0xAC9650D8 EQ PUSH2 0x65F JUMPI DUP1 PUSH4 0xB48912DA EQ PUSH2 0x68C JUMPI PUSH2 0x20F JUMP JUMPDEST DUP1 PUSH4 0x938E3D7B EQ PUSH2 0x593 JUMPI DUP1 PUSH4 0x9858FB6D EQ PUSH2 0x5B3 JUMPI DUP1 PUSH4 0xA0A8E460 EQ PUSH2 0x5D3 JUMPI DUP1 PUSH4 0xA217FDDF EQ PUSH2 0x5EF JUMPI PUSH2 0x20F JUMP JUMPDEST DUP1 PUSH4 0x36568ABE GT PUSH2 0x19B JUMPI DUP1 PUSH4 0x5C573F2E GT PUSH2 0x16A JUMPI DUP1 PUSH4 0x5C573F2E EQ PUSH2 0x4E4 JUMPI DUP1 PUSH4 0x6B86400E EQ PUSH2 0x511 JUMPI DUP1 PUSH4 0x8343D5B5 EQ PUSH2 0x533 JUMPI DUP1 PUSH4 0x9010D07C EQ PUSH2 0x553 JUMPI DUP1 PUSH4 0x91D14854 EQ PUSH2 0x573 JUMPI PUSH2 0x20F JUMP JUMPDEST DUP1 PUSH4 0x36568ABE EQ PUSH2 0x464 JUMPI DUP1 PUSH4 0x3AB6A05A EQ PUSH2 0x484 JUMPI DUP1 PUSH4 0x4CB5D8FD EQ PUSH2 0x4A4 JUMPI DUP1 PUSH4 0x572B6C05 EQ PUSH2 0x4C4 JUMPI PUSH2 0x20F JUMP JUMPDEST DUP1 PUSH4 0x1E7AC488 GT PUSH2 0x1D7 JUMPI DUP1 PUSH4 0x1E7AC488 EQ PUSH2 0x3AA JUMPI DUP1 PUSH4 0x21F6BAFF EQ PUSH2 0x3CA JUMPI DUP1 PUSH4 0x248A9CA3 EQ PUSH2 0x3EA JUMPI DUP1 PUSH4 0x2F2FF15D EQ PUSH2 0x444 JUMPI PUSH2 0x20F JUMP JUMPDEST DUP1 PUSH4 0x1FFC9A7 EQ PUSH2 0x2D8 JUMPI DUP1 PUSH4 0x1179F509 EQ PUSH2 0x30D JUMPI DUP1 PUSH4 0x150B7A02 EQ PUSH2 0x345 JUMPI DUP1 PUSH4 0x1AB6B705 EQ PUSH2 0x38A JUMPI PUSH2 0x20F JUMP JUMPDEST CALLDATASIZE PUSH2 0x20F JUMPI STOP JUMPDEST PUSH1 0x0 PUSH2 0x226 PUSH1 0x0 CALLDATALOAD PUSH1 0x1 PUSH1 0x1 PUSH1 0xE0 SHL SUB NOT AND PUSH2 0x834 JUMP JUMPDEST SWAP1 POP PUSH1 0x1 PUSH1 0x1 PUSH1 0xA0 SHL SUB DUP2 AND PUSH2 0x2CD JUMPI PUSH1 0x40 MLOAD PUSH4 0x529051C5 PUSH1 0xE1 SHL DUP2 MSTORE PUSH1 0x0 CALLDATALOAD PUSH1 0x1 PUSH1 0x1 PUSH1 0xE0 SHL SUB NOT AND PUSH1 0x4 DUP3 ADD MSTORE PUSH32 0x0 PUSH1 0x1 PUSH1 0x1 PUSH1 0xA0 SHL SUB AND SWAP1 PUSH4 0xA520A38A SWAP1 PUSH1 0x24 ADD PUSH1 0x20 PUSH1 0x40 MLOAD DUP1 DUP4 SUB DUP2 DUP7 GAS STATICCALL ISZERO DUP1 ISZERO PUSH2 0x2A6 JUMPI RETURNDATASIZE PUSH1 0x0 DUP1 RETURNDATACOPY RETURNDATASIZE PUSH1 0x0 REVERT JUMPDEST POP POP POP POP PUSH1 0x40 MLOAD RETURNDATASIZE PUSH1 0x1F NOT PUSH1 0x1F DUP3 ADD AND DUP3 ADD DUP1 PUSH1 0x40 MSTORE POP DUP2 ADD SWAP1 PUSH2 0x2CA SWAP2 SWAP1 PUSH2 0x2198 JUMP JUMPDEST SWAP1 POP JUMPDEST PUSH2 0x2D6 DUP2 PUSH2 0x87B JUMP JUMPDEST STOP JUMPDEST CALLVALUE DUP1 ISZERO PUSH2 0x2E4 JUMPI PUSH1 0x0 DUP1 REVERT JUMPDEST POP PUSH2 0x2F8 PUSH2 0x2F3 CALLDATASIZE PUSH1 0x4 PUSH2 0x21CB JUMP JUMPDEST PUSH2 0x8A4 JUMP JUMPDEST PUSH1 0x40 MLOAD SWAP1 ISZERO ISZERO DUP2 MSTORE PUSH1 0x20 ADD JUMPDEST PUSH1 0x40 MLOAD DUP1 SWAP2 SUB SWAP1 RETURN JUMPDEST CALLVALUE DUP1 ISZERO PUSH2 0x319 JUMPI PUSH1 0x0 DUP1 REVERT JUMPDEST POP PUSH1 0x1 SLOAD PUSH2 0x32D SWAP1 PUSH1 0x1 PUSH1 0x1 PUSH1 0xA0 SHL SUB AND DUP2 JUMP JUMPDEST PUSH1 0x40 MLOAD PUSH1 0x1 PUSH1 0x1 PUSH1 0xA0 SHL SUB SWAP1 SWAP2 AND DUP2 MSTORE PUSH1 0x20 ADD PUSH2 0x304 JUMP JUMPDEST CALLVALUE DUP1 ISZERO PUSH2 0x351 JUMPI PUSH1 0x0 DUP1 REVERT JUMPDEST POP PUSH2 0x371 PUSH2 0x360 CALLDATASIZE PUSH1 0x4 PUSH2 0x21F3 JUMP JUMPDEST PUSH4 0xA85BD01 PUSH1 0xE1 SHL SWAP6 SWAP5 POP POP POP POP POP JUMP JUMPDEST PUSH1 0x40 MLOAD PUSH1 0x1 PUSH1 0x1 PUSH1 0xE0 SHL SUB NOT SWAP1 SWAP2 AND DUP2 MSTORE PUSH1 0x20 ADD PUSH2 0x304 JUMP JUMPDEST CALLVALUE DUP1 ISZERO PUSH2 0x396 JUMPI PUSH1 0x0 DUP1 REVERT JUMPDEST POP PUSH2 0x2D6 PUSH2 0x3A5 CALLDATASIZE PUSH1 0x4 PUSH2 0x237C JUMP JUMPDEST PUSH2 0x8EA JUMP JUMPDEST CALLVALUE DUP1 ISZERO PUSH2 0x3B6 JUMPI PUSH1 0x0 DUP1 REVERT JUMPDEST POP PUSH2 0x2D6 PUSH2 0x3C5 CALLDATASIZE PUSH1 0x4 PUSH2 0x2412 JUMP JUMPDEST PUSH2 0x933 JUMP JUMPDEST CALLVALUE DUP1 ISZERO PUSH2 0x3D6 JUMPI PUSH1 0x0 DUP1 REVERT JUMPDEST POP PUSH1 0x4 SLOAD PUSH2 0x32D SWAP1 PUSH1 0x1 PUSH1 0x1 PUSH1 0xA0 SHL SUB AND DUP2 JUMP JUMPDEST CALLVALUE DUP1 ISZERO PUSH2 0x3F6 JUMPI PUSH1 0x0 DUP1 REVERT JUMPDEST POP PUSH2 0x436 PUSH2 0x405 CALLDATASIZE PUSH1 0x4 PUSH2 0x243E JUMP JUMPDEST PUSH1 0x0 SWAP1 DUP2 MSTORE PUSH32 0xD0EBEBE8E6445C62BABF8FEF767EB39F1002BB957BB5B83258275A4E46428ED6 PUSH1 0x20 MSTORE PUSH1 0x40 SWAP1 KECCAK256 SLOAD SWAP1 JUMP JUMPDEST PUSH1 0x40 MLOAD SWAP1 DUP2 MSTORE PUSH1 0x20 ADD PUSH2 0x304 JUMP JUMPDEST CALLVALUE DUP1 ISZERO PUSH2 0x450 JUMPI PUSH1 0x0 DUP1 REVERT JUMPDEST POP PUSH2 0x2D6 PUSH2 0x45F CALLDATASIZE PUSH1 0x4 PUSH2 0x2457 JUMP JUMPDEST PUSH2 0x986 JUMP JUMPDEST CALLVALUE DUP1 ISZERO PUSH2 0x470 JUMPI PUSH1 0x0 DUP1 REVERT JUMPDEST POP PUSH2 0x2D6 PUSH2 0x47F CALLDATASIZE PUSH1 0x4 PUSH2 0x2457 JUMP JUMPDEST PUSH2 0xA50 JUMP JUMPDEST CALLVALUE DUP1 ISZERO PUSH2 0x490 JUMPI PUSH1 0x0 DUP1 REVERT JUMPDEST POP PUSH2 0x2D6 PUSH2 0x49F CALLDATASIZE PUSH1 0x4 PUSH2 0x252B JUMP JUMPDEST PUSH2 0xAC2 JUMP JUMPDEST CALLVALUE DUP1 ISZERO PUSH2 0x4B0 JUMPI PUSH1 0x0 DUP1 REVERT JUMPDEST POP PUSH2 0x2D6 PUSH2 0x4BF CALLDATASIZE PUSH1 0x4 PUSH2 0x237C JUMP JUMPDEST PUSH2 0xC25 JUMP JUMPDEST CALLVALUE DUP1 ISZERO PUSH2 0x4D0 JUMPI PUSH1 0x0 DUP1 REVERT JUMPDEST POP PUSH2 0x2F8 PUSH2 0x4DF CALLDATASIZE PUSH1 0x4 PUSH2 0x2615 JUMP JUMPDEST PUSH2 0xC63 JUMP JUMPDEST CALLVALUE DUP1 ISZERO PUSH2 0x4F0 JUMPI PUSH1 0x0 DUP1 REVERT JUMPDEST POP PUSH2 0x504 PUSH2 0x4FF CALLDATASIZE PUSH1 0x4 PUSH2 0x2615 JUMP JUMPDEST PUSH2 0xCA0 JUMP JUMPDEST PUSH1 0x40 MLOAD PUSH2 0x304 SWAP2 SWAP1 PUSH2 0x2632 JUMP JUMPDEST CALLVALUE DUP1 ISZERO PUSH2 0x51D JUMPI PUSH1 0x0 DUP1 REVERT JUMPDEST POP PUSH2 0x526 PUSH2 0xF8F JUMP JUMPDEST PUSH1 0x40 MLOAD PUSH2 0x304 SWAP2 SWAP1 PUSH2 0x26D0 JUMP JUMPDEST CALLVALUE DUP1 ISZERO PUSH2 0x53F JUMPI PUSH1 0x0 DUP1 REVERT JUMPDEST POP PUSH1 0x3 SLOAD PUSH2 0x32D SWAP1 PUSH1 0x1 PUSH1 0x1 PUSH1 0xA0 SHL SUB AND DUP2 JUMP JUMPDEST CALLVALUE DUP1 ISZERO PUSH2 0x55F JUMPI PUSH1 0x0 DUP1 REVERT JUMPDEST POP PUSH2 0x32D PUSH2 0x56E CALLDATASIZE PUSH1 0x4 PUSH2 0x2766 JUMP JUMPDEST PUSH2 0x1366 JUMP JUMPDEST CALLVALUE DUP1 ISZERO PUSH2 0x57F JUMPI PUSH1 0x0 DUP1 REVERT JUMPDEST POP PUSH2 0x2F8 PUSH2 0x58E CALLDATASIZE PUSH1 0x4 PUSH2 0x2457 JUMP JUMPDEST PUSH2 0x1461 JUMP JUMPDEST CALLVALUE DUP1 ISZERO PUSH2 0x59F JUMPI PUSH1 0x0 DUP1 REVERT JUMPDEST POP PUSH2 0x2D6 PUSH2 0x5AE CALLDATASIZE PUSH1 0x4 PUSH2 0x2788 JUMP JUMPDEST PUSH2 0x1499 JUMP JUMPDEST CALLVALUE DUP1 ISZERO PUSH2 0x5BF JUMPI PUSH1 0x0 DUP1 REVERT JUMPDEST POP PUSH1 0x2 SLOAD PUSH2 0x32D SWAP1 PUSH1 0x1 PUSH1 0x1 PUSH1 0xA0 SHL SUB AND DUP2 JUMP JUMPDEST CALLVALUE DUP1 ISZERO PUSH2 0x5DF JUMPI PUSH1 0x0 DUP1 REVERT JUMPDEST POP PUSH1 0x40 MLOAD PUSH1 0x1 DUP2 MSTORE PUSH1 0x20 ADD PUSH2 0x304 JUMP JUMPDEST CALLVALUE DUP1 ISZERO PUSH2 0x5FB JUMPI PUSH1 0x0 DUP1 REVERT JUMPDEST POP PUSH2 0x436 PUSH1 0x0 DUP2 JUMP JUMPDEST CALLVALUE DUP1 ISZERO PUSH2 0x610 JUMPI PUSH1 0x0 DUP1 REVERT JUMPDEST POP PUSH2 0x2F8 PUSH2 0x61F CALLDATASIZE PUSH1 0x4 PUSH2 0x2457 JUMP JUMPDEST PUSH2 0x14E7 JUMP JUMPDEST CALLVALUE DUP1 ISZERO PUSH2 0x630 JUMPI PUSH1 0x0 DUP1 REVERT JUMPDEST POP PUSH2 0x32D PUSH2 0x63F CALLDATASIZE PUSH1 0x4 PUSH2 0x21CB JUMP JUMPDEST PUSH2 0x1549 JUMP JUMPDEST CALLVALUE DUP1 ISZERO PUSH2 0x650 JUMPI PUSH1 0x0 DUP1 REVERT JUMPDEST POP PUSH2 0x2D6 PUSH2 0x4BF CALLDATASIZE PUSH1 0x4 PUSH2 0x21CB JUMP JUMPDEST CALLVALUE DUP1 ISZERO PUSH2 0x66B JUMPI PUSH1 0x0 DUP1 REVERT JUMPDEST POP PUSH2 0x67F PUSH2 0x67A CALLDATASIZE PUSH1 0x4 PUSH2 0x27C4 JUMP JUMPDEST PUSH2 0x1605 JUMP JUMPDEST PUSH1 0x40 MLOAD PUSH2 0x304 SWAP2 SWAP1 PUSH2 0x2838 JUMP JUMPDEST CALLVALUE DUP1 ISZERO PUSH2 0x698 JUMPI PUSH1 0x0 DUP1 REVERT JUMPDEST POP PUSH2 0x32D PUSH32 0x0 DUP2 JUMP JUMPDEST CALLVALUE DUP1 ISZERO PUSH2 0x6CC JUMPI PUSH1 0x0 DUP1 REVERT JUMPDEST POP PUSH2 0x371 PUSH2 0x6DB CALLDATASIZE PUSH1 0x4 PUSH2 0x28F5 JUMP JUMPDEST PUSH4 0xBC197C81 PUSH1 0xE0 SHL SWAP6 SWAP5 POP POP POP POP POP JUMP JUMPDEST CALLVALUE DUP1 ISZERO PUSH2 0x6F8 JUMPI PUSH1 0x0 DUP1 REVERT JUMPDEST POP PUSH1 0x0 SLOAD PUSH2 0x32D SWAP1 PUSH1 0x1 PUSH1 0x1 PUSH1 0xA0 SHL SUB AND DUP2 JUMP JUMPDEST CALLVALUE DUP1 ISZERO PUSH2 0x718 JUMPI PUSH1 0x0 DUP1 REVERT JUMPDEST POP PUSH2 0x32D PUSH2 0x727 CALLDATASIZE PUSH1 0x4 PUSH2 0x21CB JUMP JUMPDEST PUSH2 0x834 JUMP JUMPDEST CALLVALUE DUP1 ISZERO PUSH2 0x738 JUMPI PUSH1 0x0 DUP1 REVERT JUMPDEST POP PUSH2 0x436 PUSH2 0x747 CALLDATASIZE PUSH1 0x4 PUSH2 0x243E JUMP JUMPDEST PUSH2 0x16F9 JUMP JUMPDEST CALLVALUE DUP1 ISZERO PUSH2 0x758 JUMPI PUSH1 0x0 DUP1 REVERT JUMPDEST POP PUSH14 0x9AC2E4D6CAE8E0D8C2C6CAAC66F PUSH1 0x93 SHL PUSH2 0x436 JUMP JUMPDEST CALLVALUE DUP1 ISZERO PUSH2 0x77C JUMPI PUSH1 0x0 DUP1 REVERT JUMPDEST POP PUSH32 0x4AEB3F25CC46659CF4E4966E5C48B11E9400E6E4BFAFAE7E3DC6CC3FBC858DEB SLOAD PUSH1 0x40 DUP1 MLOAD PUSH1 0x1 PUSH1 0x1 PUSH1 0xA0 SHL SUB DUP4 AND DUP2 MSTORE PUSH1 0x1 PUSH1 0xA0 SHL SWAP1 SWAP3 DIV PUSH2 0xFFFF AND PUSH1 0x20 DUP4 ADD MSTORE ADD PUSH2 0x304 JUMP JUMPDEST CALLVALUE DUP1 ISZERO PUSH2 0x7D2 JUMPI PUSH1 0x0 DUP1 REVERT JUMPDEST POP PUSH2 0x2D6 PUSH2 0x7E1 CALLDATASIZE PUSH1 0x4 PUSH2 0x2457 JUMP JUMPDEST PUSH2 0x1790 JUMP JUMPDEST CALLVALUE DUP1 ISZERO PUSH2 0x7F2 JUMPI PUSH1 0x0 DUP1 REVERT JUMPDEST POP PUSH2 0x7FB PUSH2 0x17E4 JUMP JUMPDEST PUSH1 0x40 MLOAD PUSH2 0x304 SWAP2 SWAP1 PUSH2 0x29A2 JUMP JUMPDEST CALLVALUE DUP1 ISZERO PUSH2 0x814 JUMPI PUSH1 0x0 DUP1 REVERT JUMPDEST POP PUSH2 0x371 PUSH2 0x823 CALLDATASIZE PUSH1 0x4 PUSH2 0x29B5 JUMP JUMPDEST PUSH4 0xF23A6E61 PUSH1 0xE0 SHL SWAP6 SWAP5 POP POP POP POP POP JUMP JUMPDEST PUSH1 0x1 PUSH1 0x1 PUSH1 0xE0 SHL SUB NOT AND PUSH1 0x0 SWAP1 DUP2 MSTORE PUSH32 0x1A3E4131826BB378AA43ABB34A33A366BC4A35B55AB18A884FA205B59285EC48 PUSH1 0x20 MSTORE PUSH1 0x40 SWAP1 KECCAK256 PUSH1 0x2 ADD SLOAD PUSH1 0x1 PUSH1 0x1 PUSH1 0xA0 SHL SUB AND SWAP1 JUMP JUMPDEST CALLDATASIZE PUSH1 0x0 DUP1 CALLDATACOPY PUSH1 0x0 DUP1 CALLDATASIZE PUSH1 0x0 DUP5 GAS DELEGATECALL RETURNDATASIZE PUSH1 0x0 DUP1 RETURNDATACOPY DUP1 DUP1 ISZERO PUSH2 0x89A JUMPI RETURNDATASIZE PUSH1 0x0 RETURN JUMPDEST RETURNDATASIZE PUSH1 0x0 REVERT JUMPDEST POP POP POP JUMP JUMPDEST PUSH1 0x0 PUSH1 0x1 PUSH1 0x1 PUSH1 0xE0 SHL SUB NOT DUP3 AND PUSH4 0x2711897 PUSH1 0xE5 SHL EQ DUP1 PUSH2 0x8D5 JUMPI POP PUSH1 0x1 PUSH1 0x1 PUSH1 0xE0 SHL SUB NOT DUP3 AND PUSH4 0xA85BD01 PUSH1 0xE1 SHL EQ JUMPDEST DUP1 PUSH2 0x8E4 JUMPI POP PUSH2 0x8E4 DUP3 PUSH2 0x189A JUMP JUMPDEST SWAP3 SWAP2 POP POP JUMP JUMPDEST PUSH1 0x40 MLOAD PUSH3 0x461BCD PUSH1 0xE5 SHL DUP2 MSTORE PUSH1 0x20 PUSH1 0x4 DUP3 ADD MSTORE PUSH1 0x16 PUSH1 0x24 DUP3 ADD MSTORE PUSH22 0x149BDD5D195C8E88139BDD08185D5D1A1BDC9A5E9959 PUSH1 0x52 SHL PUSH1 0x44 DUP3 ADD MSTORE PUSH1 0x64 ADD JUMPDEST PUSH1 0x40 MLOAD DUP1 SWAP2 SUB SWAP1 REVERT JUMPDEST POP JUMP JUMPDEST PUSH2 0x93B PUSH2 0x18CF JUMP JUMPDEST PUSH2 0x978 JUMPI PUSH1 0x40 MLOAD PUSH3 0x461BCD PUSH1 0xE5 SHL DUP2 MSTORE PUSH1 0x20 PUSH1 0x4 DUP3 ADD MSTORE PUSH1 0xE PUSH1 0x24 DUP3 ADD MSTORE PUSH14 0x139BDD08185D5D1A1BDC9A5E9959 PUSH1 0x92 SHL PUSH1 0x44 DUP3 ADD MSTORE PUSH1 0x64 ADD PUSH2 0x927 JUMP JUMPDEST PUSH2 0x982 DUP3 DUP3 PUSH2 0x18E2 JUMP JUMPDEST POP POP JUMP JUMPDEST PUSH1 0x0 DUP3 DUP2 MSTORE PUSH32 0xD0EBEBE8E6445C62BABF8FEF767EB39F1002BB957BB5B83258275A4E46428ED6 PUSH1 0x20 MSTORE PUSH1 0x40 SWAP1 KECCAK256 SLOAD PUSH1 0x0 DUP1 MLOAD PUSH1 0x20 PUSH2 0x2EDB DUP4 CODECOPY DUP2 MLOAD SWAP2 MSTORE SWAP1 PUSH2 0x9D5 SWAP1 PUSH2 0x9D0 PUSH2 0x19B0 JUMP JUMPDEST PUSH2 0x19D2 JUMP JUMPDEST PUSH1 0x0 DUP4 DUP2 MSTORE PUSH1 0x20 DUP3 DUP2 MSTORE PUSH1 0x40 DUP1 DUP4 KECCAK256 PUSH1 0x1 PUSH1 0x1 PUSH1 0xA0 SHL SUB DUP7 AND DUP5 MSTORE SWAP1 SWAP2 MSTORE SWAP1 KECCAK256 SLOAD PUSH1 0xFF AND ISZERO PUSH2 0xA46 JUMPI PUSH1 0x40 MLOAD PUSH3 0x461BCD PUSH1 0xE5 SHL DUP2 MSTORE PUSH1 0x20 PUSH1 0x4 DUP3 ADD MSTORE PUSH1 0x1D PUSH1 0x24 DUP3 ADD MSTORE PUSH32 0x43616E206F6E6C79206772616E7420746F206E6F6E20686F6C64657273000000 PUSH1 0x44 DUP3 ADD MSTORE PUSH1 0x64 ADD PUSH2 0x927 JUMP JUMPDEST PUSH2 0x89F DUP4 DUP4 PUSH2 0x1A60 JUMP JUMPDEST DUP1 PUSH1 0x1 PUSH1 0x1 PUSH1 0xA0 SHL SUB AND PUSH2 0xA62 PUSH2 0x19B0 JUMP JUMPDEST PUSH1 0x1 PUSH1 0x1 PUSH1 0xA0 SHL SUB AND EQ PUSH2 0xAB8 JUMPI PUSH1 0x40 MLOAD PUSH3 0x461BCD PUSH1 0xE5 SHL DUP2 MSTORE PUSH1 0x20 PUSH1 0x4 DUP3 ADD MSTORE PUSH1 0x1A PUSH1 0x24 DUP3 ADD MSTORE PUSH32 0x43616E206F6E6C792072656E6F756E636520666F722073656C66000000000000 PUSH1 0x44 DUP3 ADD MSTORE PUSH1 0x64 ADD PUSH2 0x927 JUMP JUMPDEST PUSH2 0x982 DUP3 DUP3 PUSH2 0x1A74 JUMP JUMPDEST PUSH32 0x627D6CBB4EB558F37DE3C2EC08B04710E54E06BE936A302F087F7BFB80F39AE0 DUP1 SLOAD PUSH1 0xFF AND ISZERO PUSH2 0xB2C JUMPI PUSH1 0x40 MLOAD PUSH3 0x461BCD PUSH1 0xE5 SHL DUP2 MSTORE PUSH1 0x20 PUSH1 0x4 DUP3 ADD MSTORE PUSH1 0x14 PUSH1 0x24 DUP3 ADD MSTORE PUSH20 0x20B63932B0B23C9034B734BA34B0B634BD32B217 PUSH1 0x61 SHL PUSH1 0x44 DUP3 ADD MSTORE PUSH1 0x64 ADD PUSH2 0x927 JUMP JUMPDEST DUP1 SLOAD PUSH1 0xFF NOT AND PUSH1 0x1 OR DUP2 SSTORE PUSH2 0xB3F PUSH2 0x1AD8 JUMP JUMPDEST PUSH2 0xB48 DUP10 PUSH2 0x1B03 JUMP JUMPDEST PUSH2 0xB51 DUP11 PUSH2 0x1B0C JUMP JUMPDEST PUSH2 0xB5F DUP9 DUP9 PUSH2 0xFFFF AND PUSH2 0x18E2 JUMP JUMPDEST PUSH2 0xB6A PUSH1 0x0 DUP13 PUSH2 0x1A60 JUMP JUMPDEST PUSH2 0xB95 PUSH32 0xF94103142C1BAABE9AC2B5D1487BF783DE9E69CFEEA9A72F5C9C94AFD7877B8C PUSH1 0x0 PUSH2 0x1A60 JUMP JUMPDEST PUSH2 0xBC0 PUSH32 0x86D5CF0A6BDC8D859BA3BDC97043337C82A0E609035F378E419298B6A3E00AE6 PUSH1 0x0 PUSH2 0x1A60 JUMP JUMPDEST POP PUSH1 0x0 DUP1 SLOAD PUSH1 0x1 PUSH1 0x1 PUSH1 0xA0 SHL SUB NOT SWAP1 DUP2 AND PUSH1 0x1 PUSH1 0x1 PUSH1 0xA0 SHL SUB SWAP8 DUP9 AND OR SWAP1 SWAP2 SSTORE PUSH1 0x1 DUP1 SLOAD DUP3 AND SWAP6 DUP8 AND SWAP6 SWAP1 SWAP6 OR SWAP1 SWAP5 SSTORE PUSH1 0x2 DUP1 SLOAD DUP6 AND SWAP4 DUP7 AND SWAP4 SWAP1 SWAP4 OR SWAP1 SWAP3 SSTORE PUSH1 0x3 DUP1 SLOAD DUP5 AND SWAP2 DUP6 AND SWAP2 SWAP1 SWAP2 OR SWAP1 SSTORE PUSH1 0x4 DUP1 SLOAD SWAP1 SWAP3 AND SWAP3 AND SWAP2 SWAP1 SWAP2 OR SWAP1 SSTORE POP POP POP POP POP JUMP JUMPDEST PUSH1 0x40 MLOAD PUSH3 0x461BCD PUSH1 0xE5 SHL DUP2 MSTORE PUSH1 0x20 PUSH1 0x4 DUP3 ADD MSTORE PUSH1 0x13 PUSH1 0x24 DUP3 ADD MSTORE PUSH19 0x13585C0E88139BDD08185D5D1A1BDC9A5E9959 PUSH1 0x6A SHL PUSH1 0x44 DUP3 ADD MSTORE PUSH1 0x64 ADD PUSH2 0x927 JUMP JUMPDEST PUSH1 0x1 PUSH1 0x1 PUSH1 0xA0 SHL SUB AND PUSH1 0x0 SWAP1 DUP2 MSTORE PUSH32 0xA140E363058A6CF3CA062C5E378319D7DDD21CEDFBDCA620F1C65B05028F156C PUSH1 0x20 MSTORE PUSH1 0x40 SWAP1 KECCAK256 SLOAD PUSH1 0xFF AND SWAP1 JUMP JUMPDEST PUSH1 0x60 PUSH1 0x0 PUSH32 0x1A3E4131826BB378AA43ABB34A33A366BC4A35B55AB18A884FA205B59285EC45 PUSH1 0x1 PUSH1 0x1 PUSH1 0xA0 SHL SUB DUP5 DUP2 AND PUSH1 0x0 DUP2 DUP2 MSTORE PUSH1 0x2 DUP5 ADD PUSH1 0x20 MSTORE PUSH1 0x40 DUP1 DUP3 KECCAK256 SWAP1 MLOAD PUSH4 0x2E2B9F97 PUSH1 0xE1 SHL DUP2 MSTORE PUSH1 0x4 DUP2 ADD SWAP4 SWAP1 SWAP4 MSTORE SWAP4 SWAP5 POP SWAP2 PUSH32 0x0 AND SWAP1 PUSH4 0x5C573F2E SWAP1 PUSH1 0x24 ADD PUSH1 0x0 PUSH1 0x40 MLOAD DUP1 DUP4 SUB DUP2 DUP7 GAS STATICCALL ISZERO DUP1 ISZERO PUSH2 0xD42 JUMPI RETURNDATASIZE PUSH1 0x0 DUP1 RETURNDATACOPY RETURNDATASIZE PUSH1 0x0 REVERT JUMPDEST POP POP POP POP PUSH1 0x40 MLOAD RETURNDATASIZE PUSH1 0x0 DUP3 RETURNDATACOPY PUSH1 0x1F RETURNDATASIZE SWAP1 DUP2 ADD PUSH1 0x1F NOT AND DUP3 ADD PUSH1 0x40 MSTORE PUSH2 0xD6A SWAP2 SWAP1 DUP2 ADD SWAP1 PUSH2 0x2A1D JUMP JUMPDEST DUP1 MLOAD SWAP1 SWAP2 POP PUSH1 0x0 DUP2 PUSH2 0xD7B DUP6 PUSH2 0x1C0D JUMP JUMPDEST PUSH2 0xD85 SWAP2 SWAP1 PUSH2 0x2ACC JUMP JUMPDEST SWAP1 POP PUSH1 0x0 JUMPDEST DUP3 DUP2 LT ISZERO PUSH2 0xE1D JUMPI PUSH2 0xDC8 DUP5 DUP3 DUP2 MLOAD DUP2 LT PUSH2 0xDA7 JUMPI PUSH2 0xDA7 PUSH2 0x2ADF JUMP JUMPDEST PUSH1 0x20 MUL PUSH1 0x20 ADD ADD MLOAD PUSH1 0x1 PUSH1 0x1 PUSH1 0xE0 SHL SUB NOT AND DUP7 PUSH2 0x1C17 SWAP1 SWAP2 SWAP1 PUSH4 0xFFFFFFFF AND JUMP JUMPDEST ISZERO PUSH2 0xE0B JUMPI PUSH2 0xDD8 PUSH1 0x1 DUP4 PUSH2 0x2AF5 JUMP JUMPDEST SWAP2 POP PUSH1 0x0 PUSH1 0xE0 SHL DUP5 DUP3 DUP2 MLOAD DUP2 LT PUSH2 0xDF1 JUMPI PUSH2 0xDF1 PUSH2 0x2ADF JUMP JUMPDEST PUSH1 0x1 PUSH1 0x1 PUSH1 0xE0 SHL SUB NOT SWAP1 SWAP3 AND PUSH1 0x20 SWAP3 DUP4 MUL SWAP2 SWAP1 SWAP2 ADD SWAP1 SWAP2 ADD MSTORE JUMPDEST PUSH2 0xE16 PUSH1 0x1 DUP3 PUSH2 0x2ACC JUMP JUMPDEST SWAP1 POP PUSH2 0xD8A JUMP JUMPDEST POP DUP1 PUSH1 0x1 PUSH1 0x1 PUSH1 0x40 SHL SUB DUP2 GT ISZERO PUSH2 0xE36 JUMPI PUSH2 0xE36 PUSH2 0x2291 JUMP JUMPDEST PUSH1 0x40 MLOAD SWAP1 DUP1 DUP3 MSTORE DUP1 PUSH1 0x20 MUL PUSH1 0x20 ADD DUP3 ADD PUSH1 0x40 MSTORE DUP1 ISZERO PUSH2 0xE5F JUMPI DUP2 PUSH1 0x20 ADD PUSH1 0x20 DUP3 MUL DUP1 CALLDATASIZE DUP4 CALLDATACOPY ADD SWAP1 POP JUMPDEST POP SWAP6 POP PUSH1 0x0 DUP1 JUMPDEST DUP4 DUP2 LT ISZERO PUSH2 0xF00 JUMPI DUP5 MLOAD PUSH1 0x0 SWAP1 DUP7 SWAP1 DUP4 SWAP1 DUP2 LT PUSH2 0xE85 JUMPI PUSH2 0xE85 PUSH2 0x2ADF JUMP JUMPDEST PUSH1 0x20 MUL PUSH1 0x20 ADD ADD MLOAD PUSH1 0x1 PUSH1 0x1 PUSH1 0xE0 SHL SUB NOT AND EQ PUSH2 0xEEE JUMPI DUP5 DUP2 DUP2 MLOAD DUP2 LT PUSH2 0xEAE JUMPI PUSH2 0xEAE PUSH2 0x2ADF JUMP JUMPDEST PUSH1 0x20 MUL PUSH1 0x20 ADD ADD MLOAD DUP9 DUP4 DUP1 PUSH2 0xEC2 SWAP1 PUSH2 0x2B08 JUMP JUMPDEST SWAP5 POP DUP2 MLOAD DUP2 LT PUSH2 0xED4 JUMPI PUSH2 0xED4 PUSH2 0x2ADF JUMP JUMPDEST PUSH1 0x1 PUSH1 0x1 PUSH1 0xE0 SHL SUB NOT SWAP1 SWAP3 AND PUSH1 0x20 SWAP3 DUP4 MUL SWAP2 SWAP1 SWAP2 ADD SWAP1 SWAP2 ADD MSTORE JUMPDEST PUSH2 0xEF9 PUSH1 0x1 DUP3 PUSH2 0x2ACC JUMP JUMPDEST SWAP1 POP PUSH2 0xE66 JUMP JUMPDEST POP PUSH2 0xF0A DUP6 PUSH2 0x1C0D JUMP JUMPDEST SWAP3 POP PUSH1 0x0 JUMPDEST DUP4 DUP2 LT ISZERO PUSH2 0xF83 JUMPI PUSH1 0x1 PUSH1 0x1 PUSH1 0xA0 SHL SUB DUP10 AND PUSH1 0x0 SWAP1 DUP2 MSTORE PUSH1 0x2 DUP9 ADD PUSH1 0x20 MSTORE PUSH1 0x40 SWAP1 KECCAK256 PUSH2 0xF3B SWAP1 DUP3 PUSH2 0x1C2F JUMP JUMPDEST DUP9 DUP4 PUSH2 0xF46 DUP2 PUSH2 0x2B08 JUMP JUMPDEST SWAP5 POP DUP2 MLOAD DUP2 LT PUSH2 0xF58 JUMPI PUSH2 0xF58 PUSH2 0x2ADF JUMP JUMPDEST PUSH1 0x1 PUSH1 0x1 PUSH1 0xE0 SHL SUB NOT SWAP1 SWAP3 AND PUSH1 0x20 SWAP3 DUP4 MUL SWAP2 SWAP1 SWAP2 ADD SWAP1 SWAP2 ADD MSTORE PUSH2 0xF7C PUSH1 0x1 DUP3 PUSH2 0x2ACC JUMP JUMPDEST SWAP1 POP PUSH2 0xF0F JUMP JUMPDEST POP POP POP POP POP POP POP SWAP2 SWAP1 POP JUMP JUMPDEST PUSH1 0x60 PUSH1 0x0 PUSH32 0x1A3E4131826BB378AA43ABB34A33A366BC4A35B55AB18A884FA205B59285EC45 SWAP1 POP PUSH1 0x0 DUP2 PUSH1 0x0 ADD SWAP1 POP PUSH1 0x0 PUSH32 0x0 PUSH1 0x1 PUSH1 0x1 PUSH1 0xA0 SHL SUB AND PUSH4 0x6B86400E PUSH1 0x40 MLOAD DUP2 PUSH4 0xFFFFFFFF AND PUSH1 0xE0 SHL DUP2 MSTORE PUSH1 0x4 ADD PUSH1 0x0 PUSH1 0x40 MLOAD DUP1 DUP4 SUB DUP2 DUP7 GAS STATICCALL ISZERO DUP1 ISZERO PUSH2 0x101E JUMPI RETURNDATASIZE PUSH1 0x0 DUP1 RETURNDATACOPY RETURNDATASIZE PUSH1 0x0 REVERT JUMPDEST POP POP POP POP PUSH1 0x40 MLOAD RETURNDATASIZE PUSH1 0x0 DUP3 RETURNDATACOPY PUSH1 0x1F RETURNDATASIZE SWAP1 DUP2 ADD PUSH1 0x1F NOT AND DUP3 ADD PUSH1 0x40 MSTORE PUSH2 0x1046 SWAP2 SWAP1 DUP2 ADD SWAP1 PUSH2 0x2B21 JUMP JUMPDEST SWAP1 POP PUSH1 0x0 PUSH2 0x1053 DUP4 PUSH2 0x1C0D JUMP JUMPDEST DUP3 MLOAD SWAP1 SWAP2 POP PUSH1 0x0 PUSH2 0x1064 DUP3 DUP5 PUSH2 0x2ACC JUMP JUMPDEST SWAP1 POP PUSH1 0x0 JUMPDEST DUP4 DUP2 LT ISZERO PUSH2 0x1120 JUMPI PUSH1 0x0 JUMPDEST DUP4 DUP2 LT ISZERO PUSH2 0x110D JUMPI DUP6 DUP2 DUP2 MLOAD DUP2 LT PUSH2 0x108E JUMPI PUSH2 0x108E PUSH2 0x2ADF JUMP JUMPDEST PUSH1 0x20 SWAP1 DUP2 MUL SWAP2 SWAP1 SWAP2 ADD ADD MLOAD MLOAD PUSH1 0x1 PUSH1 0x1 PUSH1 0xE0 SHL SUB NOT AND PUSH2 0x10AE DUP9 DUP5 PUSH2 0x1C2F JUMP JUMPDEST PUSH1 0x1 PUSH1 0x1 PUSH1 0xE0 SHL SUB NOT AND SUB PUSH2 0x10FB JUMPI PUSH2 0x10C8 PUSH1 0x1 DUP5 PUSH2 0x2AF5 JUMP JUMPDEST SWAP3 POP PUSH1 0x0 PUSH1 0xE0 SHL DUP7 DUP3 DUP2 MLOAD DUP2 LT PUSH2 0x10E1 JUMPI PUSH2 0x10E1 PUSH2 0x2ADF JUMP JUMPDEST PUSH1 0x20 SWAP1 DUP2 MUL SWAP2 SWAP1 SWAP2 ADD ADD MLOAD PUSH1 0x1 PUSH1 0x1 PUSH1 0xE0 SHL SUB NOT SWAP1 SWAP2 AND SWAP1 MSTORE JUMPDEST PUSH2 0x1106 PUSH1 0x1 DUP3 PUSH2 0x2ACC JUMP JUMPDEST SWAP1 POP PUSH2 0x1074 JUMP JUMPDEST POP PUSH2 0x1119 PUSH1 0x1 DUP3 PUSH2 0x2ACC JUMP JUMPDEST SWAP1 POP PUSH2 0x1069 JUMP JUMPDEST POP DUP1 PUSH1 0x1 PUSH1 0x1 PUSH1 0x40 SHL SUB DUP2 GT ISZERO PUSH2 0x1139 JUMPI PUSH2 0x1139 PUSH2 0x2291 JUMP JUMPDEST PUSH1 0x40 MLOAD SWAP1 DUP1 DUP3 MSTORE DUP1 PUSH1 0x20 MUL PUSH1 0x20 ADD DUP3 ADD PUSH1 0x40 MSTORE DUP1 ISZERO PUSH2 0x1189 JUMPI DUP2 PUSH1 0x20 ADD JUMPDEST PUSH1 0x40 DUP1 MLOAD PUSH1 0x60 DUP1 DUP3 ADD DUP4 MSTORE PUSH1 0x0 DUP1 DUP4 MSTORE PUSH1 0x20 DUP4 ADD SWAP2 SWAP1 SWAP2 MSTORE SWAP2 DUP2 ADD SWAP2 SWAP1 SWAP2 MSTORE DUP2 MSTORE PUSH1 0x20 ADD SWAP1 PUSH1 0x1 SWAP1 SUB SWAP1 DUP2 PUSH2 0x1157 JUMPI SWAP1 POP JUMPDEST POP SWAP7 POP PUSH1 0x0 DUP1 JUMPDEST DUP4 DUP2 LT ISZERO PUSH2 0x1221 JUMPI DUP6 MLOAD PUSH1 0x0 SWAP1 DUP8 SWAP1 DUP4 SWAP1 DUP2 LT PUSH2 0x11AF JUMPI PUSH2 0x11AF PUSH2 0x2ADF JUMP JUMPDEST PUSH1 0x20 MUL PUSH1 0x20 ADD ADD MLOAD PUSH1 0x0 ADD MLOAD PUSH1 0x1 PUSH1 0x1 PUSH1 0xE0 SHL SUB NOT AND EQ PUSH2 0x120F JUMPI DUP6 DUP2 DUP2 MLOAD DUP2 LT PUSH2 0x11DC JUMPI PUSH2 0x11DC PUSH2 0x2ADF JUMP JUMPDEST PUSH1 0x20 MUL PUSH1 0x20 ADD ADD MLOAD DUP10 DUP4 DUP2 MLOAD DUP2 LT PUSH2 0x11F6 JUMPI PUSH2 0x11F6 PUSH2 0x2ADF JUMP JUMPDEST PUSH1 0x20 SWAP1 DUP2 MUL SWAP2 SWAP1 SWAP2 ADD ADD MSTORE PUSH2 0x120C PUSH1 0x1 DUP4 PUSH2 0x2ACC JUMP JUMPDEST SWAP2 POP JUMPDEST PUSH2 0x121A PUSH1 0x1 DUP3 PUSH2 0x2ACC JUMP JUMPDEST SWAP1 POP PUSH2 0x1190 JUMP JUMPDEST POP PUSH1 0x0 JUMPDEST DUP5 DUP2 LT ISZERO PUSH2 0x135B JUMPI PUSH1 0x3 DUP9 ADD PUSH1 0x0 PUSH2 0x123D DUP10 DUP5 PUSH2 0x1C2F JUMP JUMPDEST PUSH1 0x1 PUSH1 0x1 PUSH1 0xE0 SHL SUB NOT SWAP1 DUP2 AND DUP3 MSTORE PUSH1 0x20 DUP1 DUP4 ADD SWAP4 SWAP1 SWAP4 MSTORE PUSH1 0x40 SWAP2 DUP3 ADD PUSH1 0x0 KECCAK256 DUP3 MLOAD PUSH1 0x60 DUP2 ADD SWAP1 SWAP4 MSTORE DUP1 SLOAD PUSH1 0xE0 SHL SWAP1 SWAP2 AND DUP3 MSTORE PUSH1 0x1 DUP2 ADD DUP1 SLOAD SWAP3 SWAP4 SWAP2 SWAP3 SWAP2 DUP5 ADD SWAP2 PUSH2 0x1286 SWAP1 PUSH2 0x2C61 JUMP JUMPDEST DUP1 PUSH1 0x1F ADD PUSH1 0x20 DUP1 SWAP2 DIV MUL PUSH1 0x20 ADD PUSH1 0x40 MLOAD SWAP1 DUP2 ADD PUSH1 0x40 MSTORE DUP1 SWAP3 SWAP2 SWAP1 DUP2 DUP2 MSTORE PUSH1 0x20 ADD DUP3 DUP1 SLOAD PUSH2 0x12B2 SWAP1 PUSH2 0x2C61 JUMP JUMPDEST DUP1 ISZERO PUSH2 0x12FF JUMPI DUP1 PUSH1 0x1F LT PUSH2 0x12D4 JUMPI PUSH2 0x100 DUP1 DUP4 SLOAD DIV MUL DUP4 MSTORE SWAP2 PUSH1 0x20 ADD SWAP2 PUSH2 0x12FF JUMP JUMPDEST DUP3 ADD SWAP2 SWAP1 PUSH1 0x0 MSTORE PUSH1 0x20 PUSH1 0x0 KECCAK256 SWAP1 JUMPDEST DUP2 SLOAD DUP2 MSTORE SWAP1 PUSH1 0x1 ADD SWAP1 PUSH1 0x20 ADD DUP1 DUP4 GT PUSH2 0x12E2 JUMPI DUP3 SWAP1 SUB PUSH1 0x1F AND DUP3 ADD SWAP2 JUMPDEST POP POP POP SWAP2 DUP4 MSTORE POP POP PUSH1 0x2 SWAP2 SWAP1 SWAP2 ADD SLOAD PUSH1 0x1 PUSH1 0x1 PUSH1 0xA0 SHL SUB AND PUSH1 0x20 SWAP1 SWAP2 ADD MSTORE DUP10 MLOAD DUP11 SWAP1 DUP5 SWAP1 DUP2 LT PUSH2 0x1331 JUMPI PUSH2 0x1331 PUSH2 0x2ADF JUMP JUMPDEST PUSH1 0x20 SWAP1 DUP2 MUL SWAP2 SWAP1 SWAP2 ADD ADD MSTORE PUSH2 0x1347 PUSH1 0x1 DUP4 PUSH2 0x2ACC JUMP JUMPDEST SWAP2 POP PUSH2 0x1354 PUSH1 0x1 DUP3 PUSH2 0x2ACC JUMP JUMPDEST SWAP1 POP PUSH2 0x1225 JUMP JUMPDEST POP POP POP POP POP POP POP POP SWAP1 JUMP JUMPDEST PUSH1 0x0 DUP3 DUP2 MSTORE PUSH1 0x0 DUP1 MLOAD PUSH1 0x20 PUSH2 0x2F22 DUP4 CODECOPY DUP2 MLOAD SWAP2 MSTORE PUSH1 0x20 DUP2 SWAP1 MSTORE PUSH1 0x40 DUP3 KECCAK256 SLOAD DUP3 DUP1 JUMPDEST DUP3 DUP2 LT ISZERO PUSH2 0x1457 JUMPI PUSH1 0x0 DUP8 DUP2 MSTORE PUSH1 0x20 DUP6 DUP2 MSTORE PUSH1 0x40 DUP1 DUP4 KECCAK256 DUP5 DUP5 MSTORE PUSH1 0x1 ADD SWAP1 SWAP2 MSTORE SWAP1 KECCAK256 SLOAD PUSH1 0x1 PUSH1 0x1 PUSH1 0xA0 SHL SUB AND ISZERO PUSH2 0x1402 JUMPI DUP6 DUP3 SUB PUSH2 0x13F0 JUMPI PUSH1 0x0 DUP8 DUP2 MSTORE PUSH1 0x20 SWAP5 DUP6 MSTORE PUSH1 0x40 DUP1 DUP3 KECCAK256 SWAP3 DUP3 MSTORE PUSH1 0x1 SWAP1 SWAP3 ADD SWAP1 SWAP5 MSTORE SWAP1 SWAP3 KECCAK256 SLOAD PUSH1 0x1 PUSH1 0x1 PUSH1 0xA0 SHL SUB AND SWAP3 POP PUSH2 0x8E4 SWAP2 POP POP JUMP JUMPDEST PUSH2 0x13FB PUSH1 0x1 DUP4 PUSH2 0x2ACC JUMP JUMPDEST SWAP2 POP PUSH2 0x1445 JUMP JUMPDEST PUSH2 0x140D DUP8 PUSH1 0x0 PUSH2 0x1461 JUMP JUMPDEST DUP1 ISZERO PUSH2 0x1432 JUMPI POP PUSH1 0x0 DUP8 DUP2 MSTORE PUSH1 0x20 DUP6 DUP2 MSTORE PUSH1 0x40 DUP1 DUP4 KECCAK256 DUP4 DUP1 MSTORE PUSH1 0x2 ADD SWAP1 SWAP2 MSTORE SWAP1 KECCAK256 SLOAD DUP2 EQ JUMPDEST ISZERO PUSH2 0x1445 JUMPI PUSH2 0x1442 PUSH1 0x1 DUP4 PUSH2 0x2ACC JUMP JUMPDEST SWAP2 POP JUMPDEST PUSH2 0x1450 PUSH1 0x1 DUP3 PUSH2 0x2ACC JUMP JUMPDEST SWAP1 POP PUSH2 0x1387 JUMP JUMPDEST POP POP POP POP SWAP3 SWAP2 POP POP JUMP JUMPDEST PUSH1 0x0 SWAP2 DUP3 MSTORE PUSH1 0x0 DUP1 MLOAD PUSH1 0x20 PUSH2 0x2EDB DUP4 CODECOPY DUP2 MLOAD SWAP2 MSTORE PUSH1 0x20 SWAP1 DUP2 MSTORE PUSH1 0x40 DUP1 DUP5 KECCAK256 PUSH1 0x1 PUSH1 0x1 PUSH1 0xA0 SHL SUB SWAP4 SWAP1 SWAP4 AND DUP5 MSTORE SWAP2 SWAP1 MSTORE SWAP1 KECCAK256 SLOAD PUSH1 0xFF AND SWAP1 JUMP JUMPDEST PUSH2 0x14A1 PUSH2 0x18CF JUMP JUMPDEST PUSH2 0x14DE JUMPI PUSH1 0x40 MLOAD PUSH3 0x461BCD PUSH1 0xE5 SHL DUP2 MSTORE PUSH1 0x20 PUSH1 0x4 DUP3 ADD MSTORE PUSH1 0xE PUSH1 0x24 DUP3 ADD MSTORE PUSH14 0x139BDD08185D5D1A1BDC9A5E9959 PUSH1 0x92 SHL PUSH1 0x44 DUP3 ADD MSTORE PUSH1 0x64 ADD PUSH2 0x927 JUMP JUMPDEST PUSH2 0x930 DUP2 PUSH2 0x1B0C JUMP JUMPDEST PUSH1 0x0 DUP3 DUP2 MSTORE PUSH1 0x0 DUP1 MLOAD PUSH1 0x20 PUSH2 0x2EDB DUP4 CODECOPY DUP2 MLOAD SWAP2 MSTORE PUSH1 0x20 DUP2 DUP2 MSTORE PUSH1 0x40 DUP1 DUP5 KECCAK256 DUP5 DUP1 MSTORE SWAP1 SWAP2 MSTORE DUP3 KECCAK256 SLOAD PUSH1 0xFF AND PUSH2 0x153F JUMPI PUSH1 0x0 DUP5 DUP2 MSTORE PUSH1 0x20 SWAP2 DUP3 MSTORE PUSH1 0x40 DUP1 DUP3 KECCAK256 PUSH1 0x1 PUSH1 0x1 PUSH1 0xA0 SHL SUB DUP7 AND DUP4 MSTORE SWAP1 SWAP3 MSTORE KECCAK256 SLOAD PUSH1 0xFF AND SWAP1 POP PUSH2 0x8E4 JUMP JUMPDEST POP PUSH1 0x1 SWAP4 SWAP3 POP POP POP JUMP JUMPDEST PUSH1 0x0 DUP1 PUSH2 0x1555 DUP4 PUSH2 0x834 JUMP JUMPDEST SWAP1 POP PUSH1 0x1 PUSH1 0x1 PUSH1 0xA0 SHL SUB DUP2 AND PUSH2 0x15FC JUMPI PUSH1 0x40 MLOAD PUSH4 0x529051C5 PUSH1 0xE1 SHL DUP2 MSTORE PUSH1 0x1 PUSH1 0x1 PUSH1 0xE0 SHL SUB NOT DUP5 AND PUSH1 0x4 DUP3 ADD MSTORE PUSH32 0x0 PUSH1 0x1 PUSH1 0x1 PUSH1 0xA0 SHL SUB AND SWAP1 PUSH4 0xA520A38A SWAP1 PUSH1 0x24 ADD PUSH1 0x20 PUSH1 0x40 MLOAD DUP1 DUP4 SUB DUP2 DUP7 GAS STATICCALL ISZERO DUP1 ISZERO PUSH2 0x15D3 JUMPI RETURNDATASIZE PUSH1 0x0 DUP1 RETURNDATACOPY RETURNDATASIZE PUSH1 0x0 REVERT JUMPDEST POP POP POP POP PUSH1 0x40 MLOAD RETURNDATASIZE PUSH1 0x1F NOT PUSH1 0x1F DUP3 ADD AND DUP3 ADD DUP1 PUSH1 0x40 MSTORE POP DUP2 ADD SWAP1 PUSH2 0x15F7 SWAP2 SWAP1 PUSH2 0x2198 JUMP JUMPDEST PUSH2 0x15FE JUMP JUMPDEST DUP1 JUMPDEST SWAP4 SWAP3 POP POP POP JUMP JUMPDEST PUSH1 0x60 DUP2 PUSH1 0x1 PUSH1 0x1 PUSH1 0x40 SHL SUB DUP2 GT ISZERO PUSH2 0x161F JUMPI PUSH2 0x161F PUSH2 0x2291 JUMP JUMPDEST PUSH1 0x40 MLOAD SWAP1 DUP1 DUP3 MSTORE DUP1 PUSH1 0x20 MUL PUSH1 0x20 ADD DUP3 ADD PUSH1 0x40 MSTORE DUP1 ISZERO PUSH2 0x1652 JUMPI DUP2 PUSH1 0x20 ADD JUMPDEST PUSH1 0x60 DUP2 MSTORE PUSH1 0x20 ADD SWAP1 PUSH1 0x1 SWAP1 SUB SWAP1 DUP2 PUSH2 0x163D JUMPI SWAP1 POP JUMPDEST POP SWAP1 POP PUSH1 0x0 JUMPDEST DUP3 DUP2 LT ISZERO PUSH2 0x16F2 JUMPI PUSH2 0x16C2 ADDRESS DUP6 DUP6 DUP5 DUP2 DUP2 LT PUSH2 0x1676 JUMPI PUSH2 0x1676 PUSH2 0x2ADF JUMP JUMPDEST SWAP1 POP PUSH1 0x20 MUL DUP2 ADD SWAP1 PUSH2 0x1688 SWAP2 SWAP1 PUSH2 0x2C9B JUMP JUMPDEST DUP1 DUP1 PUSH1 0x1F ADD PUSH1 0x20 DUP1 SWAP2 DIV MUL PUSH1 0x20 ADD PUSH1 0x40 MLOAD SWAP1 DUP2 ADD PUSH1 0x40 MSTORE DUP1 SWAP4 SWAP3 SWAP2 SWAP1 DUP2 DUP2 MSTORE PUSH1 0x20 ADD DUP4 DUP4 DUP1 DUP3 DUP5 CALLDATACOPY PUSH1 0x0 SWAP3 ADD SWAP2 SWAP1 SWAP2 MSTORE POP PUSH2 0x1C3B SWAP3 POP POP POP JUMP JUMPDEST DUP3 DUP3 DUP2 MLOAD DUP2 LT PUSH2 0x16D4 JUMPI PUSH2 0x16D4 PUSH2 0x2ADF JUMP JUMPDEST PUSH1 0x20 MUL PUSH1 0x20 ADD ADD DUP2 SWAP1 MSTORE POP DUP1 DUP1 PUSH2 0x16EA SWAP1 PUSH2 0x2B08 JUMP JUMPDEST SWAP2 POP POP PUSH2 0x1658 JUMP JUMPDEST POP SWAP3 SWAP2 POP POP JUMP JUMPDEST PUSH1 0x0 DUP2 DUP2 MSTORE PUSH1 0x0 DUP1 MLOAD PUSH1 0x20 PUSH2 0x2F22 DUP4 CODECOPY DUP2 MLOAD SWAP2 MSTORE PUSH1 0x20 DUP2 SWAP1 MSTORE PUSH1 0x40 DUP3 KECCAK256 SLOAD DUP3 JUMPDEST DUP2 DUP2 LT ISZERO PUSH2 0x176A JUMPI PUSH1 0x0 DUP6 DUP2 MSTORE PUSH1 0x20 DUP5 DUP2 MSTORE PUSH1 0x40 DUP1 DUP4 KECCAK256 DUP5 DUP5 MSTORE PUSH1 0x1 ADD SWAP1 SWAP2 MSTORE SWAP1 KECCAK256 SLOAD PUSH1 0x1 PUSH1 0x1 PUSH1 0xA0 SHL SUB AND ISZERO PUSH2 0x1758 JUMPI PUSH2 0x1755 PUSH1 0x1 DUP6 PUSH2 0x2ACC JUMP JUMPDEST SWAP4 POP JUMPDEST PUSH2 0x1763 PUSH1 0x1 DUP3 PUSH2 0x2ACC JUMP JUMPDEST SWAP1 POP PUSH2 0x1719 JUMP JUMPDEST POP PUSH2 0x1776 DUP5 PUSH1 0x0 PUSH2 0x1461 JUMP JUMPDEST ISZERO PUSH2 0x1789 JUMPI PUSH2 0x1786 PUSH1 0x1 DUP5 PUSH2 0x2ACC JUMP JUMPDEST SWAP3 POP JUMPDEST POP POP SWAP2 SWAP1 POP JUMP JUMPDEST PUSH1 0x0 DUP3 DUP2 MSTORE PUSH32 0xD0EBEBE8E6445C62BABF8FEF767EB39F1002BB957BB5B83258275A4E46428ED6 PUSH1 0x20 MSTORE PUSH1 0x40 SWAP1 KECCAK256 SLOAD PUSH1 0x0 DUP1 MLOAD PUSH1 0x20 PUSH2 0x2EDB DUP4 CODECOPY DUP2 MLOAD SWAP2 MSTORE SWAP1 PUSH2 0x17DA SWAP1 PUSH2 0x9D0 PUSH2 0x19B0 JUMP JUMPDEST PUSH2 0x89F DUP4 DUP4 PUSH2 0x1A74 JUMP JUMPDEST PUSH32 0xA7D40346E44CA145E94A946AA34A7D4A67245577DC18699A626FE0FFC6CE3281 DUP1 SLOAD PUSH1 0x60 SWAP2 SWAP1 DUP2 SWAP1 PUSH2 0x1816 SWAP1 PUSH2 0x2C61 JUMP JUMPDEST DUP1 PUSH1 0x1F ADD PUSH1 0x20 DUP1 SWAP2 DIV MUL PUSH1 0x20 ADD PUSH1 0x40 MLOAD SWAP1 DUP2 ADD PUSH1 0x40 MSTORE DUP1 SWAP3 SWAP2 SWAP1 DUP2 DUP2 MSTORE PUSH1 0x20 ADD DUP3 DUP1 SLOAD PUSH2 0x1842 SWAP1 PUSH2 0x2C61 JUMP JUMPDEST DUP1 ISZERO PUSH2 0x188F JUMPI DUP1 PUSH1 0x1F LT PUSH2 0x1864 JUMPI PUSH2 0x100 DUP1 DUP4 SLOAD DIV MUL DUP4 MSTORE SWAP2 PUSH1 0x20 ADD SWAP2 PUSH2 0x188F JUMP JUMPDEST DUP3 ADD SWAP2 SWAP1 PUSH1 0x0 MSTORE PUSH1 0x20 PUSH1 0x0 KECCAK256 SWAP1 JUMPDEST DUP2 SLOAD DUP2 MSTORE SWAP1 PUSH1 0x1 ADD SWAP1 PUSH1 0x20 ADD DUP1 DUP4 GT PUSH2 0x1872 JUMPI DUP3 SWAP1 SUB PUSH1 0x1F AND DUP3 ADD SWAP2 JUMPDEST POP POP POP POP POP SWAP2 POP POP SWAP1 JUMP JUMPDEST PUSH1 0x0 PUSH1 0x1 PUSH1 0x1 PUSH1 0xE0 SHL SUB NOT DUP3 AND PUSH4 0xF3374027 PUSH1 0xE0 SHL EQ DUP1 PUSH2 0x8E4 JUMPI POP PUSH4 0x1FFC9A7 PUSH1 0xE0 SHL PUSH1 0x1 PUSH1 0x1 PUSH1 0xE0 SHL SUB NOT DUP4 AND EQ PUSH2 0x8E4 JUMP JUMPDEST PUSH1 0x0 PUSH2 0x18DD DUP2 PUSH2 0x58E PUSH2 0x19B0 JUMP JUMPDEST SWAP1 POP SWAP1 JUMP JUMPDEST PUSH32 0x4AEB3F25CC46659CF4E4966E5C48B11E9400E6E4BFAFAE7E3DC6CC3FBC858DEB PUSH2 0x2710 DUP3 GT ISZERO PUSH2 0x1947 JUMPI PUSH1 0x40 MLOAD PUSH3 0x461BCD PUSH1 0xE5 SHL DUP2 MSTORE PUSH1 0x20 PUSH1 0x4 DUP3 ADD MSTORE PUSH1 0xF PUSH1 0x24 DUP3 ADD MSTORE PUSH15 0x45786365656473206D617820627073 PUSH1 0x88 SHL PUSH1 0x44 DUP3 ADD MSTORE PUSH1 0x64 ADD PUSH2 0x927 JUMP JUMPDEST DUP1 SLOAD PUSH1 0x1 PUSH1 0x1 PUSH1 0xB0 SHL SUB NOT AND PUSH1 0x1 PUSH1 0xA0 SHL PUSH2 0xFFFF DUP5 AND MUL PUSH1 0x1 PUSH1 0x1 PUSH1 0xA0 SHL SUB NOT AND OR PUSH1 0x1 PUSH1 0x1 PUSH1 0xA0 SHL SUB DUP5 AND SWAP1 DUP2 OR DUP3 SSTORE PUSH1 0x40 MLOAD DUP4 DUP2 MSTORE PUSH32 0xE2497BD806EC41A6E0DD992C29A72EFC0EF8FEC9092D1978FD4A1E00B2F18304 SWAP1 PUSH1 0x20 ADD PUSH1 0x40 MLOAD DUP1 SWAP2 SUB SWAP1 LOG2 POP POP POP JUMP JUMPDEST PUSH1 0x0 PUSH2 0x19BB CALLER PUSH2 0xC63 JUMP JUMPDEST ISZERO PUSH2 0x19CD JUMPI POP PUSH1 0x13 NOT CALLDATASIZE ADD CALLDATALOAD PUSH1 0x60 SHR SWAP1 JUMP JUMPDEST POP CALLER SWAP1 JUMP JUMPDEST PUSH1 0x0 DUP3 DUP2 MSTORE PUSH1 0x0 DUP1 MLOAD PUSH1 0x20 PUSH2 0x2EDB DUP4 CODECOPY DUP2 MLOAD SWAP2 MSTORE PUSH1 0x20 DUP2 DUP2 MSTORE PUSH1 0x40 DUP1 DUP5 KECCAK256 PUSH1 0x1 PUSH1 0x1 PUSH1 0xA0 SHL SUB DUP7 AND DUP6 MSTORE SWAP1 SWAP2 MSTORE SWAP1 SWAP2 KECCAK256 SLOAD PUSH1 0xFF AND PUSH2 0x89F JUMPI PUSH2 0x1A1E DUP3 PUSH1 0x1 PUSH1 0x1 PUSH1 0xA0 SHL SUB AND PUSH1 0x14 PUSH2 0x1C60 JUMP JUMPDEST PUSH2 0x1A29 DUP5 PUSH1 0x20 PUSH2 0x1C60 JUMP JUMPDEST PUSH1 0x40 MLOAD PUSH1 0x20 ADD PUSH2 0x1A3A SWAP3 SWAP2 SWAP1 PUSH2 0x2E11 JUMP JUMPDEST PUSH1 0x40 DUP1 MLOAD PUSH1 0x1F NOT DUP2 DUP5 SUB ADD DUP2 MSTORE SWAP1 DUP3 SWAP1 MSTORE PUSH3 0x461BCD PUSH1 0xE5 SHL DUP3 MSTORE PUSH2 0x927 SWAP2 PUSH1 0x4 ADD PUSH2 0x29A2 JUMP JUMPDEST PUSH2 0x1A6A DUP3 DUP3 PUSH2 0x1DFB JUMP JUMPDEST PUSH2 0x982 DUP3 DUP3 PUSH2 0x1E86 JUMP JUMPDEST PUSH2 0x1A7E DUP3 DUP3 PUSH2 0x1F02 JUMP JUMPDEST PUSH1 0x0 DUP3 DUP2 MSTORE PUSH1 0x0 DUP1 MLOAD PUSH1 0x20 PUSH2 0x2F22 DUP4 CODECOPY DUP2 MLOAD SWAP2 MSTORE PUSH1 0x20 SWAP1 DUP2 MSTORE PUSH1 0x40 DUP1 DUP4 KECCAK256 PUSH1 0x1 PUSH1 0x1 PUSH1 0xA0 SHL SUB DUP6 AND DUP1 DUP6 MSTORE PUSH1 0x2 DUP3 ADD DUP1 DUP6 MSTORE DUP4 DUP7 KECCAK256 DUP1 SLOAD DUP8 MSTORE PUSH1 0x1 SWAP1 SWAP4 ADD DUP6 MSTORE SWAP3 DUP6 KECCAK256 DUP1 SLOAD PUSH1 0x1 PUSH1 0x1 PUSH1 0xA0 SHL SUB NOT AND SWAP1 SSTORE DUP5 MSTORE SWAP2 MSTORE SSTORE POP POP JUMP JUMPDEST PUSH2 0x1B01 PUSH1 0x1 PUSH32 0xBBF78D3411D42A81EFFD97BB8C69FAAE4E77E75CEC462245C1001191A0634C6F SSTORE JUMP JUMPDEST JUMP JUMPDEST PUSH2 0x930 DUP2 PUSH2 0x1F90 JUMP JUMPDEST PUSH32 0xA7D40346E44CA145E94A946AA34A7D4A67245577DC18699A626FE0FFC6CE3281 DUP1 SLOAD PUSH1 0x0 SWAP1 DUP3 SWAP1 PUSH2 0x1B3D SWAP1 PUSH2 0x2C61 JUMP JUMPDEST DUP1 PUSH1 0x1F ADD PUSH1 0x20 DUP1 SWAP2 DIV MUL PUSH1 0x20 ADD PUSH1 0x40 MLOAD SWAP1 DUP2 ADD PUSH1 0x40 MSTORE DUP1 SWAP3 SWAP2 SWAP1 DUP2 DUP2 MSTORE PUSH1 0x20 ADD DUP3 DUP1 SLOAD PUSH2 0x1B69 SWAP1 PUSH2 0x2C61 JUMP JUMPDEST DUP1 ISZERO PUSH2 0x1BB6 JUMPI DUP1 PUSH1 0x1F LT PUSH2 0x1B8B JUMPI PUSH2 0x100 DUP1 DUP4 SLOAD DIV MUL DUP4 MSTORE SWAP2 PUSH1 0x20 ADD SWAP2 PUSH2 0x1BB6 JUMP JUMPDEST DUP3 ADD SWAP2 SWAP1 PUSH1 0x0 MSTORE PUSH1 0x20 PUSH1 0x0 KECCAK256 SWAP1 JUMPDEST DUP2 SLOAD DUP2 MSTORE SWAP1 PUSH1 0x1 ADD SWAP1 PUSH1 0x20 ADD DUP1 DUP4 GT PUSH2 0x1B99 JUMPI DUP3 SWAP1 SUB PUSH1 0x1F AND DUP3 ADD SWAP2 JUMPDEST POP POP POP POP POP SWAP1 POP DUP3 DUP3 PUSH1 0x0 ADD SWAP1 DUP2 PUSH2 0x1BCE SWAP2 SWAP1 PUSH2 0x2D52 JUMP JUMPDEST POP PUSH32 0xC9C7C3FE08B88B4DF9D4D47EF47D2C43D55C025A0BA88CA442580ED9E7348A16 DUP2 DUP5 PUSH1 0x40 MLOAD PUSH2 0x1C00 SWAP3 SWAP2 SWAP1 PUSH2 0x2E7E JUMP JUMPDEST PUSH1 0x40 MLOAD DUP1 SWAP2 SUB SWAP1 LOG1 POP POP POP JUMP JUMPDEST PUSH1 0x0 PUSH2 0x8E4 DUP3 SLOAD SWAP1 JUMP JUMPDEST PUSH1 0x0 DUP2 DUP2 MSTORE PUSH1 0x1 DUP4 ADD PUSH1 0x20 MSTORE PUSH1 0x40 DUP2 KECCAK256 SLOAD ISZERO ISZERO PUSH2 0x15FE JUMP JUMPDEST PUSH1 0x0 PUSH2 0x15FE DUP4 DUP4 PUSH2 0x201B JUMP JUMPDEST PUSH1 0x60 PUSH2 0x15FE DUP4 DUP4 PUSH1 0x40 MLOAD DUP1 PUSH1 0x60 ADD PUSH1 0x40 MSTORE DUP1 PUSH1 0x27 DUP2 MSTORE PUSH1 0x20 ADD PUSH2 0x2EFB PUSH1 0x27 SWAP2 CODECOPY PUSH2 0x2045 JUMP JUMPDEST PUSH1 0x60 PUSH1 0x0 PUSH2 0x1C6F DUP4 PUSH1 0x2 PUSH2 0x2EAC JUMP JUMPDEST PUSH2 0x1C7A SWAP1 PUSH1 0x2 PUSH2 0x2ACC JUMP JUMPDEST PUSH1 0x1 PUSH1 0x1 PUSH1 0x40 SHL SUB DUP2 GT ISZERO PUSH2 0x1C91 JUMPI PUSH2 0x1C91 PUSH2 0x2291 JUMP JUMPDEST PUSH1 0x40 MLOAD SWAP1 DUP1 DUP3 MSTORE DUP1 PUSH1 0x1F ADD PUSH1 0x1F NOT AND PUSH1 0x20 ADD DUP3 ADD PUSH1 0x40 MSTORE DUP1 ISZERO PUSH2 0x1CBB JUMPI PUSH1 0x20 DUP3 ADD DUP2 DUP1 CALLDATASIZE DUP4 CALLDATACOPY ADD SWAP1 POP JUMPDEST POP SWAP1 POP PUSH1 0x3 PUSH1 0xFC SHL DUP2 PUSH1 0x0 DUP2 MLOAD DUP2 LT PUSH2 0x1CD6 JUMPI PUSH2 0x1CD6 PUSH2 0x2ADF JUMP JUMPDEST PUSH1 0x20 ADD ADD SWAP1 PUSH1 0x1 PUSH1 0x1 PUSH1 0xF8 SHL SUB NOT AND SWAP1 DUP2 PUSH1 0x0 BYTE SWAP1 MSTORE8 POP PUSH1 0xF PUSH1 0xFB SHL DUP2 PUSH1 0x1 DUP2 MLOAD DUP2 LT PUSH2 0x1D05 JUMPI PUSH2 0x1D05 PUSH2 0x2ADF JUMP JUMPDEST PUSH1 0x20 ADD ADD SWAP1 PUSH1 0x1 PUSH1 0x1 PUSH1 0xF8 SHL SUB NOT AND SWAP1 DUP2 PUSH1 0x0 BYTE SWAP1 MSTORE8 POP PUSH1 0x0 PUSH2 0x1D29 DUP5 PUSH1 0x2 PUSH2 0x2EAC JUMP JUMPDEST PUSH2 0x1D34 SWAP1 PUSH1 0x1 PUSH2 0x2ACC JUMP JUMPDEST SWAP1 POP JUMPDEST PUSH1 0x1 DUP2 GT ISZERO PUSH2 0x1DAC JUMPI PUSH16 0x181899199A1A9B1B9C1CB0B131B232B3 PUSH1 0x81 SHL DUP6 PUSH1 0xF AND PUSH1 0x10 DUP2 LT PUSH2 0x1D68 JUMPI PUSH2 0x1D68 PUSH2 0x2ADF JUMP JUMPDEST BYTE PUSH1 0xF8 SHL DUP3 DUP3 DUP2 MLOAD DUP2 LT PUSH2 0x1D7E JUMPI PUSH2 0x1D7E PUSH2 0x2ADF JUMP JUMPDEST PUSH1 0x20 ADD ADD SWAP1 PUSH1 0x1 PUSH1 0x1 PUSH1 0xF8 SHL SUB NOT AND SWAP1 DUP2 PUSH1 0x0 BYTE SWAP1 MSTORE8 POP PUSH1 0x4 SWAP5 SWAP1 SWAP5 SHR SWAP4 PUSH2 0x1DA5 DUP2 PUSH2 0x2EC3 JUMP JUMPDEST SWAP1 POP PUSH2 0x1D37 JUMP JUMPDEST POP DUP4 ISZERO PUSH2 0x15FE JUMPI PUSH1 0x40 MLOAD PUSH3 0x461BCD PUSH1 0xE5 SHL DUP2 MSTORE PUSH1 0x20 PUSH1 0x4 DUP3 ADD DUP2 SWAP1 MSTORE PUSH1 0x24 DUP3 ADD MSTORE PUSH32 0x537472696E67733A20686578206C656E67746820696E73756666696369656E74 PUSH1 0x44 DUP3 ADD MSTORE PUSH1 0x64 ADD PUSH2 0x927 JUMP JUMPDEST PUSH1 0x0 PUSH1 0x0 DUP1 MLOAD PUSH1 0x20 PUSH2 0x2EDB DUP4 CODECOPY DUP2 MLOAD SWAP2 MSTORE PUSH1 0x0 DUP5 DUP2 MSTORE PUSH1 0x20 DUP3 DUP2 MSTORE PUSH1 0x40 DUP1 DUP4 KECCAK256 PUSH1 0x1 PUSH1 0x1 PUSH1 0xA0 SHL SUB DUP8 AND DUP5 MSTORE SWAP1 SWAP2 MSTORE SWAP1 KECCAK256 DUP1 SLOAD PUSH1 0xFF NOT AND PUSH1 0x1 OR SWAP1 SSTORE SWAP1 POP PUSH2 0x1E41 PUSH2 0x19B0 JUMP JUMPDEST PUSH1 0x1 PUSH1 0x1 PUSH1 0xA0 SHL SUB AND DUP3 PUSH1 0x1 PUSH1 0x1 PUSH1 0xA0 SHL SUB AND DUP5 PUSH32 0x2F8788117E7EFF1D82E926EC794901D17C78024A50270940304540A733656F0D PUSH1 0x40 MLOAD PUSH1 0x40 MLOAD DUP1 SWAP2 SUB SWAP1 LOG4 POP POP POP JUMP JUMPDEST PUSH1 0x0 DUP3 DUP2 MSTORE PUSH1 0x0 DUP1 MLOAD PUSH1 0x20 PUSH2 0x2F22 DUP4 CODECOPY DUP2 MLOAD SWAP2 MSTORE PUSH1 0x20 DUP2 SWAP1 MSTORE PUSH1 0x40 DUP3 KECCAK256 DUP1 SLOAD SWAP2 SWAP3 PUSH1 0x1 SWAP2 SWAP1 PUSH2 0x1EB5 DUP4 DUP6 PUSH2 0x2ACC JUMP JUMPDEST SWAP1 SWAP2 SSTORE POP POP PUSH1 0x0 SWAP4 DUP5 MSTORE PUSH1 0x20 SWAP2 DUP3 MSTORE PUSH1 0x40 DUP1 DUP6 KECCAK256 DUP3 DUP7 MSTORE PUSH1 0x1 DUP2 ADD DUP5 MSTORE DUP2 DUP7 KECCAK256 DUP1 SLOAD PUSH1 0x1 PUSH1 0x1 PUSH1 0xA0 SHL SUB SWAP1 SWAP7 AND PUSH1 0x1 PUSH1 0x1 PUSH1 0xA0 SHL SUB NOT SWAP1 SWAP7 AND DUP7 OR SWAP1 SSTORE SWAP4 DUP6 MSTORE PUSH1 0x2 SWAP1 SWAP4 ADD SWAP1 SWAP2 MSTORE SWAP2 KECCAK256 SSTORE JUMP JUMPDEST PUSH1 0x0 DUP1 MLOAD PUSH1 0x20 PUSH2 0x2EDB DUP4 CODECOPY DUP2 MLOAD SWAP2 MSTORE PUSH2 0x1F1B DUP4 DUP4 PUSH2 0x19D2 JUMP JUMPDEST PUSH1 0x0 DUP4 DUP2 MSTORE PUSH1 0x20 DUP3 DUP2 MSTORE PUSH1 0x40 DUP1 DUP4 KECCAK256 PUSH1 0x1 PUSH1 0x1 PUSH1 0xA0 SHL SUB DUP7 AND DUP5 MSTORE SWAP1 SWAP2 MSTORE SWAP1 KECCAK256 DUP1 SLOAD PUSH1 0xFF NOT AND SWAP1 SSTORE PUSH2 0x1F4B PUSH2 0x19B0 JUMP JUMPDEST PUSH1 0x1 PUSH1 0x1 PUSH1 0xA0 SHL SUB AND DUP3 PUSH1 0x1 PUSH1 0x1 PUSH1 0xA0 SHL SUB AND DUP5 PUSH32 0xF6391F5C32D9C69D2A47EA670B442974B53935D1EDC7FD64EB21E047A839171B PUSH1 0x40 MLOAD PUSH1 0x40 MLOAD DUP1 SWAP2 SUB SWAP1 LOG4 POP POP POP JUMP JUMPDEST PUSH32 0xA140E363058A6CF3CA062C5E378319D7DDD21CEDFBDCA620F1C65B05028F156C PUSH1 0x0 JUMPDEST DUP3 MLOAD DUP2 LT ISZERO PUSH2 0x89F JUMPI PUSH1 0x1 DUP3 PUSH1 0x0 ADD PUSH1 0x0 DUP6 DUP5 DUP2 MLOAD DUP2 LT PUSH2 0x1FD7 JUMPI PUSH2 0x1FD7 PUSH2 0x2ADF JUMP JUMPDEST PUSH1 0x20 SWAP1 DUP2 MUL SWAP2 SWAP1 SWAP2 ADD DUP2 ADD MLOAD PUSH1 0x1 PUSH1 0x1 PUSH1 0xA0 SHL SUB AND DUP3 MSTORE DUP2 ADD SWAP2 SWAP1 SWAP2 MSTORE PUSH1 0x40 ADD PUSH1 0x0 KECCAK256 DUP1 SLOAD PUSH1 0xFF NOT AND SWAP2 ISZERO ISZERO SWAP2 SWAP1 SWAP2 OR SWAP1 SSTORE DUP1 PUSH2 0x2013 DUP2 PUSH2 0x2B08 JUMP JUMPDEST SWAP2 POP POP PUSH2 0x1FB4 JUMP JUMPDEST PUSH1 0x0 DUP3 PUSH1 0x0 ADD DUP3 DUP2 SLOAD DUP2 LT PUSH2 0x2032 JUMPI PUSH2 0x2032 PUSH2 0x2ADF JUMP JUMPDEST SWAP1 PUSH1 0x0 MSTORE PUSH1 0x20 PUSH1 0x0 KECCAK256 ADD SLOAD SWAP1 POP SWAP3 SWAP2 POP POP JUMP JUMPDEST PUSH1 0x60 PUSH1 0x1 PUSH1 0x1 PUSH1 0xA0 SHL SUB DUP5 AND EXTCODESIZE PUSH2 0x20AD JUMPI PUSH1 0x40 MLOAD PUSH3 0x461BCD PUSH1 0xE5 SHL DUP2 MSTORE PUSH1 0x20 PUSH1 0x4 DUP3 ADD MSTORE PUSH1 0x26 PUSH1 0x24 DUP3 ADD MSTORE PUSH32 0x416464726573733A2064656C65676174652063616C6C20746F206E6F6E2D636F PUSH1 0x44 DUP3 ADD MSTORE PUSH6 0x1B9D1C9858DD PUSH1 0xD2 SHL PUSH1 0x64 DUP3 ADD MSTORE PUSH1 0x84 ADD PUSH2 0x927 JUMP JUMPDEST PUSH1 0x0 DUP1 DUP6 PUSH1 0x1 PUSH1 0x1 PUSH1 0xA0 SHL SUB AND DUP6 PUSH1 0x40 MLOAD PUSH2 0x20C8 SWAP2 SWAP1 PUSH2 0x2CE8 JUMP JUMPDEST PUSH1 0x0 PUSH1 0x40 MLOAD DUP1 DUP4 SUB DUP2 DUP6 GAS DELEGATECALL SWAP2 POP POP RETURNDATASIZE DUP1 PUSH1 0x0 DUP2 EQ PUSH2 0x2103 JUMPI PUSH1 0x40 MLOAD SWAP2 POP PUSH1 0x1F NOT PUSH1 0x3F RETURNDATASIZE ADD AND DUP3 ADD PUSH1 0x40 MSTORE RETURNDATASIZE DUP3 MSTORE RETURNDATASIZE PUSH1 0x0 PUSH1 0x20 DUP5 ADD RETURNDATACOPY PUSH2 0x2108 JUMP JUMPDEST PUSH1 0x60 SWAP2 POP JUMPDEST POP SWAP2 POP SWAP2 POP PUSH2 0x2118 DUP3 DUP3 DUP7 PUSH2 0x2122 JUMP JUMPDEST SWAP7 SWAP6 POP POP POP POP POP POP JUMP JUMPDEST PUSH1 0x60 DUP4 ISZERO PUSH2 0x2131 JUMPI POP DUP2 PUSH2 0x15FE JUMP JUMPDEST DUP3 MLOAD ISZERO PUSH2 0x2141 JUMPI DUP3 MLOAD DUP1 DUP5 PUSH1 0x20 ADD REVERT JUMPDEST DUP2 PUSH1 0x40 MLOAD PUSH3 0x461BCD PUSH1 0xE5 SHL DUP2 MSTORE PUSH1 0x4 ADD PUSH2 0x927 SWAP2 SWAP1 PUSH2 0x29A2 JUMP JUMPDEST DUP1 DUP3 GT ISZERO PUSH2 0x216F JUMPI PUSH1 0x0 DUP2 SSTORE PUSH1 0x1 ADD PUSH2 0x215B JUMP JUMPDEST POP SWAP1 JUMP JUMPDEST PUSH1 0x1 PUSH1 0x1 PUSH1 0xA0 SHL SUB DUP2 AND DUP2 EQ PUSH2 0x930 JUMPI PUSH1 0x0 DUP1 REVERT JUMPDEST DUP1 MLOAD PUSH2 0x2193 DUP2 PUSH2 0x2173 JUMP JUMPDEST SWAP2 SWAP1 POP JUMP JUMPDEST PUSH1 0x0 PUSH1 0x20 DUP3 DUP5 SUB SLT ISZERO PUSH2 0x21AA JUMPI PUSH1 0x0 DUP1 REVERT JUMPDEST DUP2 MLOAD PUSH2 0x15FE DUP2 PUSH2 0x2173 JUMP JUMPDEST PUSH1 0x1 PUSH1 0x1 PUSH1 0xE0 SHL SUB NOT DUP2 AND DUP2 EQ PUSH2 0x930 JUMPI PUSH1 0x0 DUP1 REVERT JUMPDEST PUSH1 0x0 PUSH1 0x20 DUP3 DUP5 SUB SLT ISZERO PUSH2 0x21DD JUMPI PUSH1 0x0 DUP1 REVERT JUMPDEST DUP2 CALLDATALOAD PUSH2 0x15FE DUP2 PUSH2 0x21B5 JUMP JUMPDEST DUP1 CALLDATALOAD PUSH2 0x2193 DUP2 PUSH2 0x2173 JUMP JUMPDEST PUSH1 0x0 DUP1 PUSH1 0x0 DUP1 PUSH1 0x0 PUSH1 0x80 DUP7 DUP9 SUB SLT ISZERO PUSH2 0x220B JUMPI PUSH1 0x0 DUP1 REVERT JUMPDEST DUP6 CALLDATALOAD PUSH2 0x2216 DUP2 PUSH2 0x2173 JUMP JUMPDEST SWAP5 POP PUSH1 0x20 DUP7 ADD CALLDATALOAD PUSH2 0x2226 DUP2 PUSH2 0x2173 JUMP JUMPDEST SWAP4 POP PUSH1 0x40 DUP7 ADD CALLDATALOAD SWAP3 POP PUSH1 0x60 DUP7 ADD CALLDATALOAD PUSH1 0x1 PUSH1 0x1 PUSH1 0x40 SHL SUB DUP1 DUP3 GT ISZERO PUSH2 0x2249 JUMPI PUSH1 0x0 DUP1 REVERT JUMPDEST DUP2 DUP9 ADD SWAP2 POP DUP9 PUSH1 0x1F DUP4 ADD SLT PUSH2 0x225D JUMPI PUSH1 0x0 DUP1 REVERT JUMPDEST DUP2 CALLDATALOAD DUP2 DUP2 GT ISZERO PUSH2 0x226C JUMPI PUSH1 0x0 DUP1 REVERT JUMPDEST DUP10 PUSH1 0x20 DUP3 DUP6 ADD ADD GT ISZERO PUSH2 0x227E JUMPI PUSH1 0x0 DUP1 REVERT JUMPDEST SWAP7 SWAP10 SWAP6 SWAP9 POP SWAP4 SWAP7 POP PUSH1 0x20 ADD SWAP5 SWAP4 SWAP3 POP POP POP JUMP JUMPDEST PUSH4 0x4E487B71 PUSH1 0xE0 SHL PUSH1 0x0 MSTORE PUSH1 0x41 PUSH1 0x4 MSTORE PUSH1 0x24 PUSH1 0x0 REVERT JUMPDEST PUSH1 0x40 MLOAD PUSH1 0x60 DUP2 ADD PUSH1 0x1 PUSH1 0x1 PUSH1 0x40 SHL SUB DUP2 GT DUP3 DUP3 LT OR ISZERO PUSH2 0x22C9 JUMPI PUSH2 0x22C9 PUSH2 0x2291 JUMP JUMPDEST PUSH1 0x40 MSTORE SWAP1 JUMP JUMPDEST PUSH1 0x40 MLOAD PUSH1 0x1F DUP3 ADD PUSH1 0x1F NOT AND DUP2 ADD PUSH1 0x1 PUSH1 0x1 PUSH1 0x40 SHL SUB DUP2 GT DUP3 DUP3 LT OR ISZERO PUSH2 0x22F7 JUMPI PUSH2 0x22F7 PUSH2 0x2291 JUMP JUMPDEST PUSH1 0x40 MSTORE SWAP2 SWAP1 POP JUMP JUMPDEST PUSH1 0x0 PUSH1 0x1 PUSH1 0x1 PUSH1 0x40 SHL SUB DUP3 GT ISZERO PUSH2 0x2318 JUMPI PUSH2 0x2318 PUSH2 0x2291 JUMP JUMPDEST POP PUSH1 0x1F ADD PUSH1 0x1F NOT AND PUSH1 0x20 ADD SWAP1 JUMP JUMPDEST PUSH1 0x0 DUP3 PUSH1 0x1F DUP4 ADD SLT PUSH2 0x2337 JUMPI PUSH1 0x0 DUP1 REVERT JUMPDEST DUP2 CALLDATALOAD PUSH2 0x234A PUSH2 0x2345 DUP3 PUSH2 0x22FF JUMP JUMPDEST PUSH2 0x22CF JUMP JUMPDEST DUP2 DUP2 MSTORE DUP5 PUSH1 0x20 DUP4 DUP7 ADD ADD GT ISZERO PUSH2 0x235F JUMPI PUSH1 0x0 DUP1 REVERT JUMPDEST DUP2 PUSH1 0x20 DUP6 ADD PUSH1 0x20 DUP4 ADD CALLDATACOPY PUSH1 0x0 SWAP2 DUP2 ADD PUSH1 0x20 ADD SWAP2 SWAP1 SWAP2 MSTORE SWAP4 SWAP3 POP POP POP JUMP JUMPDEST PUSH1 0x0 PUSH1 0x20 DUP3 DUP5 SUB SLT ISZERO PUSH2 0x238E JUMPI PUSH1 0x0 DUP1 REVERT JUMPDEST DUP2 CALLDATALOAD PUSH1 0x1 PUSH1 0x1 PUSH1 0x40 SHL SUB DUP1 DUP3 GT ISZERO PUSH2 0x23A5 JUMPI PUSH1 0x0 DUP1 REVERT JUMPDEST SWAP1 DUP4 ADD SWAP1 PUSH1 0x60 DUP3 DUP7 SUB SLT ISZERO PUSH2 0x23B9 JUMPI PUSH1 0x0 DUP1 REVERT JUMPDEST PUSH2 0x23C1 PUSH2 0x22A7 JUMP JUMPDEST DUP3 CALLDATALOAD PUSH2 0x23CC DUP2 PUSH2 0x21B5 JUMP JUMPDEST DUP2 MSTORE PUSH1 0x20 DUP4 ADD CALLDATALOAD DUP3 DUP2 GT ISZERO PUSH2 0x23E0 JUMPI PUSH1 0x0 DUP1 REVERT JUMPDEST PUSH2 0x23EC DUP8 DUP3 DUP7 ADD PUSH2 0x2326 JUMP JUMPDEST PUSH1 0x20 DUP4 ADD MSTORE POP PUSH1 0x40 DUP4 ADD CALLDATALOAD SWAP3 POP PUSH2 0x2402 DUP4 PUSH2 0x2173 JUMP JUMPDEST PUSH1 0x40 DUP2 ADD SWAP3 SWAP1 SWAP3 MSTORE POP SWAP4 SWAP3 POP POP POP JUMP JUMPDEST PUSH1 0x0 DUP1 PUSH1 0x40 DUP4 DUP6 SUB SLT ISZERO PUSH2 0x2425 JUMPI PUSH1 0x0 DUP1 REVERT JUMPDEST DUP3 CALLDATALOAD PUSH2 0x2430 DUP2 PUSH2 0x2173 JUMP JUMPDEST SWAP5 PUSH1 0x20 SWAP4 SWAP1 SWAP4 ADD CALLDATALOAD SWAP4 POP POP POP JUMP JUMPDEST PUSH1 0x0 PUSH1 0x20 DUP3 DUP5 SUB SLT ISZERO PUSH2 0x2450 JUMPI PUSH1 0x0 DUP1 REVERT JUMPDEST POP CALLDATALOAD SWAP2 SWAP1 POP JUMP JUMPDEST PUSH1 0x0 DUP1 PUSH1 0x40 DUP4 DUP6 SUB SLT ISZERO PUSH2 0x246A JUMPI PUSH1 0x0 DUP1 REVERT JUMPDEST DUP3 CALLDATALOAD SWAP2 POP PUSH1 0x20 DUP4 ADD CALLDATALOAD PUSH2 0x247C DUP2 PUSH2 0x2173 JUMP JUMPDEST DUP1 SWAP2 POP POP SWAP3 POP SWAP3 SWAP1 POP JUMP JUMPDEST PUSH1 0x0 PUSH1 0x1 PUSH1 0x1 PUSH1 0x40 SHL SUB DUP3 GT ISZERO PUSH2 0x24A0 JUMPI PUSH2 0x24A0 PUSH2 0x2291 JUMP JUMPDEST POP PUSH1 0x5 SHL PUSH1 0x20 ADD SWAP1 JUMP JUMPDEST PUSH1 0x0 DUP3 PUSH1 0x1F DUP4 ADD SLT PUSH2 0x24BB JUMPI PUSH1 0x0 DUP1 REVERT JUMPDEST DUP2 CALLDATALOAD PUSH1 0x20 PUSH2 0x24CB PUSH2 0x2345 DUP4 PUSH2 0x2487 JUMP JUMPDEST DUP3 DUP2 MSTORE PUSH1 0x5 SWAP3 SWAP1 SWAP3 SHL DUP5 ADD DUP2 ADD SWAP2 DUP2 DUP2 ADD SWAP1 DUP7 DUP5 GT ISZERO PUSH2 0x24EA JUMPI PUSH1 0x0 DUP1 REVERT JUMPDEST DUP3 DUP7 ADD JUMPDEST DUP5 DUP2 LT ISZERO PUSH2 0x250E JUMPI DUP1 CALLDATALOAD PUSH2 0x2501 DUP2 PUSH2 0x2173 JUMP JUMPDEST DUP4 MSTORE SWAP2 DUP4 ADD SWAP2 DUP4 ADD PUSH2 0x24EE JUMP JUMPDEST POP SWAP7 SWAP6 POP POP POP POP POP POP JUMP JUMPDEST DUP1 CALLDATALOAD PUSH2 0xFFFF DUP2 AND DUP2 EQ PUSH2 0x2193 JUMPI PUSH1 0x0 DUP1 REVERT JUMPDEST PUSH1 0x0 DUP1 PUSH1 0x0 DUP1 PUSH1 0x0 DUP1 PUSH1 0x0 DUP1 PUSH1 0x0 DUP1 PUSH2 0x140 DUP12 DUP14 SUB SLT ISZERO PUSH2 0x254B JUMPI PUSH1 0x0 DUP1 REVERT JUMPDEST PUSH2 0x2554 DUP12 PUSH2 0x21E8 JUMP JUMPDEST SWAP10 POP PUSH1 0x20 DUP12 ADD CALLDATALOAD PUSH1 0x1 PUSH1 0x1 PUSH1 0x40 SHL SUB DUP1 DUP3 GT ISZERO PUSH2 0x2570 JUMPI PUSH1 0x0 DUP1 REVERT JUMPDEST PUSH2 0x257C DUP15 DUP4 DUP16 ADD PUSH2 0x2326 JUMP JUMPDEST SWAP11 POP PUSH1 0x40 DUP14 ADD CALLDATALOAD SWAP2 POP DUP1 DUP3 GT ISZERO PUSH2 0x2592 JUMPI PUSH1 0x0 DUP1 REVERT JUMPDEST POP PUSH2 0x259F DUP14 DUP3 DUP15 ADD PUSH2 0x24AA JUMP JUMPDEST SWAP9 POP POP PUSH2 0x25AE PUSH1 0x60 DUP13 ADD PUSH2 0x21E8 JUMP JUMPDEST SWAP7 POP PUSH2 0x25BC PUSH1 0x80 DUP13 ADD PUSH2 0x2519 JUMP JUMPDEST SWAP6 POP PUSH2 0x25CA PUSH1 0xA0 DUP13 ADD PUSH2 0x21E8 JUMP JUMPDEST SWAP5 POP PUSH2 0x25D8 PUSH1 0xC0 DUP13 ADD PUSH2 0x21E8 JUMP JUMPDEST SWAP4 POP PUSH2 0x25E6 PUSH1 0xE0 DUP13 ADD PUSH2 0x21E8 JUMP JUMPDEST SWAP3 POP PUSH2 0x25F5 PUSH2 0x100 DUP13 ADD PUSH2 0x21E8 JUMP JUMPDEST SWAP2 POP PUSH2 0x2604 PUSH2 0x120 DUP13 ADD PUSH2 0x21E8 JUMP JUMPDEST SWAP1 POP SWAP3 SWAP6 SWAP9 SWAP12 SWAP2 SWAP5 SWAP8 SWAP11 POP SWAP3 SWAP6 SWAP9 POP JUMP JUMPDEST PUSH1 0x0 PUSH1 0x20 DUP3 DUP5 SUB SLT ISZERO PUSH2 0x2627 JUMPI PUSH1 0x0 DUP1 REVERT JUMPDEST DUP2 CALLDATALOAD PUSH2 0x15FE DUP2 PUSH2 0x2173 JUMP JUMPDEST PUSH1 0x20 DUP1 DUP3 MSTORE DUP3 MLOAD DUP3 DUP3 ADD DUP2 SWAP1 MSTORE PUSH1 0x0 SWAP2 SWAP1 DUP5 DUP3 ADD SWAP1 PUSH1 0x40 DUP6 ADD SWAP1 DUP5 JUMPDEST DUP2 DUP2 LT ISZERO PUSH2 0x2674 JUMPI DUP4 MLOAD PUSH1 0x1 PUSH1 0x1 PUSH1 0xE0 SHL SUB NOT AND DUP4 MSTORE SWAP3 DUP5 ADD SWAP3 SWAP2 DUP5 ADD SWAP2 PUSH1 0x1 ADD PUSH2 0x264E JUMP JUMPDEST POP SWAP1 SWAP7 SWAP6 POP POP POP POP POP POP JUMP JUMPDEST PUSH1 0x0 JUMPDEST DUP4 DUP2 LT ISZERO PUSH2 0x269B JUMPI DUP2 DUP2 ADD MLOAD DUP4 DUP3 ADD MSTORE PUSH1 0x20 ADD PUSH2 0x2683 JUMP JUMPDEST POP POP PUSH1 0x0 SWAP2 ADD MSTORE JUMP JUMPDEST PUSH1 0x0 DUP2 MLOAD DUP1 DUP5 MSTORE PUSH2 0x26BC DUP2 PUSH1 0x20 DUP7 ADD PUSH1 0x20 DUP7 ADD PUSH2 0x2680 JUMP JUMPDEST PUSH1 0x1F ADD PUSH1 0x1F NOT AND SWAP3 SWAP1 SWAP3 ADD PUSH1 0x20 ADD SWAP3 SWAP2 POP POP JUMP JUMPDEST PUSH1 0x0 PUSH1 0x20 DUP1 DUP4 ADD DUP2 DUP5 MSTORE DUP1 DUP6 MLOAD DUP1 DUP4 MSTORE PUSH1 0x40 SWAP3 POP DUP3 DUP7 ADD SWAP2 POP DUP3 DUP2 PUSH1 0x5 SHL DUP8 ADD ADD DUP5 DUP9 ADD PUSH1 0x0 JUMPDEST DUP4 DUP2 LT ISZERO PUSH2 0x2758 JUMPI DUP9 DUP4 SUB PUSH1 0x3F NOT ADD DUP6 MSTORE DUP2 MLOAD DUP1 MLOAD PUSH1 0x1 PUSH1 0x1 PUSH1 0xE0 SHL SUB NOT AND DUP5 MSTORE DUP8 DUP2 ADD MLOAD PUSH1 0x60 DUP10 DUP7 ADD DUP2 SWAP1 MSTORE SWAP1 PUSH2 0x2731 DUP3 DUP8 ADD DUP3 PUSH2 0x26A4 JUMP JUMPDEST SWAP3 DUP10 ADD MLOAD PUSH1 0x1 PUSH1 0x1 PUSH1 0xA0 SHL SUB AND SWAP6 DUP10 ADD SWAP6 SWAP1 SWAP6 MSTORE POP SWAP5 DUP8 ADD SWAP5 SWAP3 POP SWAP1 DUP7 ADD SWAP1 PUSH1 0x1 ADD PUSH2 0x26F7 JUMP JUMPDEST POP SWAP1 SWAP9 SWAP8 POP POP POP POP POP POP POP POP JUMP JUMPDEST PUSH1 0x0 DUP1 PUSH1 0x40 DUP4 DUP6 SUB SLT ISZERO PUSH2 0x2779 JUMPI PUSH1 0x0 DUP1 REVERT JUMPDEST POP POP DUP1 CALLDATALOAD SWAP3 PUSH1 0x20 SWAP1 SWAP2 ADD CALLDATALOAD SWAP2 POP JUMP JUMPDEST PUSH1 0x0 PUSH1 0x20 DUP3 DUP5 SUB SLT ISZERO PUSH2 0x279A JUMPI PUSH1 0x0 DUP1 REVERT JUMPDEST DUP2 CALLDATALOAD PUSH1 0x1 PUSH1 0x1 PUSH1 0x40 SHL SUB DUP2 GT ISZERO PUSH2 0x27B0 JUMPI PUSH1 0x0 DUP1 REVERT JUMPDEST PUSH2 0x27BC DUP5 DUP3 DUP6 ADD PUSH2 0x2326 JUMP JUMPDEST SWAP5 SWAP4 POP POP POP POP JUMP JUMPDEST PUSH1 0x0 DUP1 PUSH1 0x20 DUP4 DUP6 SUB SLT ISZERO PUSH2 0x27D7 JUMPI PUSH1 0x0 DUP1 REVERT JUMPDEST DUP3 CALLDATALOAD PUSH1 0x1 PUSH1 0x1 PUSH1 0x40 SHL SUB DUP1 DUP3 GT ISZERO PUSH2 0x27EE JUMPI PUSH1 0x0 DUP1 REVERT JUMPDEST DUP2 DUP6 ADD SWAP2 POP DUP6 PUSH1 0x1F DUP4 ADD SLT PUSH2 0x2802 JUMPI PUSH1 0x0 DUP1 REVERT JUMPDEST DUP2 CALLDATALOAD DUP2 DUP2 GT ISZERO PUSH2 0x2811 JUMPI PUSH1 0x0 DUP1 REVERT JUMPDEST DUP7 PUSH1 0x20 DUP3 PUSH1 0x5 SHL DUP6 ADD ADD GT ISZERO PUSH2 0x2826 JUMPI PUSH1 0x0 DUP1 REVERT JUMPDEST PUSH1 0x20 SWAP3 SWAP1 SWAP3 ADD SWAP7 SWAP2 SWAP6 POP SWAP1 SWAP4 POP POP POP POP JUMP JUMPDEST PUSH1 0x0 PUSH1 0x20 DUP1 DUP4 ADD DUP2 DUP5 MSTORE DUP1 DUP6 MLOAD DUP1 DUP4 MSTORE PUSH1 0x40 DUP7 ADD SWAP2 POP PUSH1 0x40 DUP2 PUSH1 0x5 SHL DUP8 ADD ADD SWAP3 POP DUP4 DUP8 ADD PUSH1 0x0 JUMPDEST DUP3 DUP2 LT ISZERO PUSH2 0x288D JUMPI PUSH1 0x3F NOT DUP9 DUP7 SUB ADD DUP5 MSTORE PUSH2 0x287B DUP6 DUP4 MLOAD PUSH2 0x26A4 JUMP JUMPDEST SWAP5 POP SWAP3 DUP6 ADD SWAP3 SWAP1 DUP6 ADD SWAP1 PUSH1 0x1 ADD PUSH2 0x285F JUMP JUMPDEST POP SWAP3 SWAP8 SWAP7 POP POP POP POP POP POP POP JUMP JUMPDEST PUSH1 0x0 DUP3 PUSH1 0x1F DUP4 ADD SLT PUSH2 0x28AB JUMPI PUSH1 0x0 DUP1 REVERT JUMPDEST DUP2 CALLDATALOAD PUSH1 0x20 PUSH2 0x28BB PUSH2 0x2345 DUP4 PUSH2 0x2487 JUMP JUMPDEST DUP3 DUP2 MSTORE PUSH1 0x5 SWAP3 SWAP1 SWAP3 SHL DUP5 ADD DUP2 ADD SWAP2 DUP2 DUP2 ADD SWAP1 DUP7 DUP5 GT ISZERO PUSH2 0x28DA JUMPI PUSH1 0x0 DUP1 REVERT JUMPDEST DUP3 DUP7 ADD JUMPDEST DUP5 DUP2 LT ISZERO PUSH2 0x250E JUMPI DUP1 CALLDATALOAD DUP4 MSTORE SWAP2 DUP4 ADD SWAP2 DUP4 ADD PUSH2 0x28DE JUMP JUMPDEST PUSH1 0x0 DUP1 PUSH1 0x0 DUP1 PUSH1 0x0 PUSH1 0xA0 DUP7 DUP9 SUB SLT ISZERO PUSH2 0x290D JUMPI PUSH1 0x0 DUP1 REVERT JUMPDEST DUP6 CALLDATALOAD PUSH2 0x2918 DUP2 PUSH2 0x2173 JUMP JUMPDEST SWAP5 POP PUSH1 0x20 DUP7 ADD CALLDATALOAD PUSH2 0x2928 DUP2 PUSH2 0x2173 JUMP JUMPDEST SWAP4 POP PUSH1 0x40 DUP7 ADD CALLDATALOAD PUSH1 0x1 PUSH1 0x1 PUSH1 0x40 SHL SUB DUP1 DUP3 GT ISZERO PUSH2 0x2944 JUMPI PUSH1 0x0 DUP1 REVERT JUMPDEST PUSH2 0x2950 DUP10 DUP4 DUP11 ADD PUSH2 0x289A JUMP JUMPDEST SWAP5 POP PUSH1 0x60 DUP9 ADD CALLDATALOAD SWAP2 POP DUP1 DUP3 GT ISZERO PUSH2 0x2966 JUMPI PUSH1 0x0 DUP1 REVERT JUMPDEST PUSH2 0x2972 DUP10 DUP4 DUP11 ADD PUSH2 0x289A JUMP JUMPDEST SWAP4 POP PUSH1 0x80 DUP9 ADD CALLDATALOAD SWAP2 POP DUP1 DUP3 GT ISZERO PUSH2 0x2988 JUMPI PUSH1 0x0 DUP1 REVERT JUMPDEST POP PUSH2 0x2995 DUP9 DUP3 DUP10 ADD PUSH2 0x2326 JUMP JUMPDEST SWAP2 POP POP SWAP3 SWAP6 POP SWAP3 SWAP6 SWAP1 SWAP4 POP JUMP JUMPDEST PUSH1 0x20 DUP2 MSTORE PUSH1 0x0 PUSH2 0x15FE PUSH1 0x20 DUP4 ADD DUP5 PUSH2 0x26A4 JUMP JUMPDEST PUSH1 0x0 DUP1 PUSH1 0x0 DUP1 PUSH1 0x0 PUSH1 0xA0 DUP7 DUP9 SUB SLT ISZERO PUSH2 0x29CD JUMPI PUSH1 0x0 DUP1 REVERT JUMPDEST DUP6 CALLDATALOAD PUSH2 0x29D8 DUP2 PUSH2 0x2173 JUMP JUMPDEST SWAP5 POP PUSH1 0x20 DUP7 ADD CALLDATALOAD PUSH2 0x29E8 DUP2 PUSH2 0x2173 JUMP JUMPDEST SWAP4 POP PUSH1 0x40 DUP7 ADD CALLDATALOAD SWAP3 POP PUSH1 0x60 DUP7 ADD CALLDATALOAD SWAP2 POP PUSH1 0x80 DUP7 ADD CALLDATALOAD PUSH1 0x1 PUSH1 0x1 PUSH1 0x40 SHL SUB DUP2 GT ISZERO PUSH2 0x2A11 JUMPI PUSH1 0x0 DUP1 REVERT JUMPDEST PUSH2 0x2995 DUP9 DUP3 DUP10 ADD PUSH2 0x2326 JUMP JUMPDEST PUSH1 0x0 PUSH1 0x20 DUP1 DUP4 DUP6 SUB SLT ISZERO PUSH2 0x2A30 JUMPI PUSH1 0x0 DUP1 REVERT JUMPDEST DUP3 MLOAD PUSH1 0x1 PUSH1 0x1 PUSH1 0x40 SHL SUB DUP2 GT ISZERO PUSH2 0x2A46 JUMPI PUSH1 0x0 DUP1 REVERT JUMPDEST DUP4 ADD PUSH1 0x1F DUP2 ADD DUP6 SGT PUSH2 0x2A57 JUMPI PUSH1 0x0 DUP1 REVERT JUMPDEST DUP1 MLOAD PUSH2 0x2A65 PUSH2 0x2345 DUP3 PUSH2 0x2487 JUMP JUMPDEST DUP2 DUP2 MSTORE PUSH1 0x5 SWAP2 SWAP1 SWAP2 SHL DUP3 ADD DUP4 ADD SWAP1 DUP4 DUP2 ADD SWAP1 DUP8 DUP4 GT ISZERO PUSH2 0x2A84 JUMPI PUSH1 0x0 DUP1 REVERT JUMPDEST SWAP3 DUP5 ADD SWAP3 JUMPDEST DUP3 DUP5 LT ISZERO PUSH2 0x2AAB JUMPI DUP4 MLOAD PUSH2 0x2A9C DUP2 PUSH2 0x21B5 JUMP JUMPDEST DUP3 MSTORE SWAP3 DUP5 ADD SWAP3 SWAP1 DUP5 ADD SWAP1 PUSH2 0x2A89 JUMP JUMPDEST SWAP8 SWAP7 POP POP POP POP POP POP POP JUMP JUMPDEST PUSH4 0x4E487B71 PUSH1 0xE0 SHL PUSH1 0x0 MSTORE PUSH1 0x11 PUSH1 0x4 MSTORE PUSH1 0x24 PUSH1 0x0 REVERT JUMPDEST DUP1 DUP3 ADD DUP1 DUP3 GT ISZERO PUSH2 0x8E4 JUMPI PUSH2 0x8E4 PUSH2 0x2AB6 JUMP JUMPDEST PUSH4 0x4E487B71 PUSH1 0xE0 SHL PUSH1 0x0 MSTORE PUSH1 0x32 PUSH1 0x4 MSTORE PUSH1 0x24 PUSH1 0x0 REVERT JUMPDEST DUP2 DUP2 SUB DUP2 DUP2 GT ISZERO PUSH2 0x8E4 JUMPI PUSH2 0x8E4 PUSH2 0x2AB6 JUMP JUMPDEST PUSH1 0x0 PUSH1 0x1 DUP3 ADD PUSH2 0x2B1A JUMPI PUSH2 0x2B1A PUSH2 0x2AB6 JUMP JUMPDEST POP PUSH1 0x1 ADD SWAP1 JUMP JUMPDEST PUSH1 0x0 PUSH1 0x20 DUP1 DUP4 DUP6 SUB SLT ISZERO PUSH2 0x2B34 JUMPI PUSH1 0x0 DUP1 REVERT JUMPDEST DUP3 MLOAD PUSH1 0x1 PUSH1 0x1 PUSH1 0x40 SHL SUB DUP1 DUP3 GT ISZERO PUSH2 0x2B4B JUMPI PUSH1 0x0 DUP1 REVERT JUMPDEST DUP2 DUP6 ADD SWAP2 POP DUP6 PUSH1 0x1F DUP4 ADD SLT PUSH2 0x2B5F JUMPI PUSH1 0x0 DUP1 REVERT JUMPDEST DUP2 MLOAD PUSH2 0x2B6D PUSH2 0x2345 DUP3 PUSH2 0x2487 JUMP JUMPDEST DUP2 DUP2 MSTORE PUSH1 0x5 SWAP2 SWAP1 SWAP2 SHL DUP4 ADD DUP5 ADD SWAP1 DUP5 DUP2 ADD SWAP1 DUP9 DUP4 GT ISZERO PUSH2 0x2B8C JUMPI PUSH1 0x0 DUP1 REVERT JUMPDEST DUP6 DUP6 ADD JUMPDEST DUP4 DUP2 LT ISZERO PUSH2 0x2C54 JUMPI DUP1 MLOAD DUP6 DUP2 GT ISZERO PUSH2 0x2BA7 JUMPI PUSH1 0x0 DUP1 REVERT JUMPDEST DUP7 ADD PUSH1 0x60 DUP2 DUP13 SUB PUSH1 0x1F NOT ADD SLT ISZERO PUSH2 0x2BBE JUMPI PUSH1 0x0 DUP1 DUP2 REVERT JUMPDEST PUSH2 0x2BC6 PUSH2 0x22A7 JUMP JUMPDEST DUP9 DUP3 ADD MLOAD PUSH2 0x2BD3 DUP2 PUSH2 0x21B5 JUMP JUMPDEST DUP2 MSTORE PUSH1 0x40 DUP3 DUP2 ADD MLOAD DUP9 DUP2 GT ISZERO PUSH2 0x2BE9 JUMPI PUSH1 0x0 DUP1 DUP2 REVERT JUMPDEST DUP4 ADD PUSH1 0x3F DUP2 ADD DUP15 SGT PUSH2 0x2BFB JUMPI PUSH1 0x0 DUP1 DUP2 REVERT JUMPDEST DUP11 DUP2 ADD MLOAD PUSH2 0x2C0B PUSH2 0x2345 DUP3 PUSH2 0x22FF JUMP JUMPDEST DUP2 DUP2 MSTORE DUP16 DUP5 DUP4 DUP6 ADD ADD GT ISZERO PUSH2 0x2C20 JUMPI PUSH1 0x0 DUP1 DUP2 REVERT JUMPDEST PUSH2 0x2C2F DUP3 DUP15 DUP4 ADD DUP7 DUP7 ADD PUSH2 0x2680 JUMP JUMPDEST DUP5 DUP14 ADD MSTORE POP PUSH2 0x2C42 SWAP1 POP PUSH1 0x60 DUP5 ADD PUSH2 0x2188 JUMP JUMPDEST SWAP1 DUP3 ADD MSTORE DUP5 MSTORE POP SWAP2 DUP7 ADD SWAP2 DUP7 ADD PUSH2 0x2B90 JUMP JUMPDEST POP SWAP9 SWAP8 POP POP POP POP POP POP POP POP JUMP JUMPDEST PUSH1 0x1 DUP2 DUP2 SHR SWAP1 DUP3 AND DUP1 PUSH2 0x2C75 JUMPI PUSH1 0x7F DUP3 AND SWAP2 POP JUMPDEST PUSH1 0x20 DUP3 LT DUP2 SUB PUSH2 0x2C95 JUMPI PUSH4 0x4E487B71 PUSH1 0xE0 SHL PUSH1 0x0 MSTORE PUSH1 0x22 PUSH1 0x4 MSTORE PUSH1 0x24 PUSH1 0x0 REVERT JUMPDEST POP SWAP2 SWAP1 POP JUMP JUMPDEST PUSH1 0x0 DUP1 DUP4 CALLDATALOAD PUSH1 0x1E NOT DUP5 CALLDATASIZE SUB ADD DUP2 SLT PUSH2 0x2CB2 JUMPI PUSH1 0x0 DUP1 REVERT JUMPDEST DUP4 ADD DUP1 CALLDATALOAD SWAP2 POP PUSH1 0x1 PUSH1 0x1 PUSH1 0x40 SHL SUB DUP3 GT ISZERO PUSH2 0x2CCC JUMPI PUSH1 0x0 DUP1 REVERT JUMPDEST PUSH1 0x20 ADD SWAP2 POP CALLDATASIZE DUP2 SWAP1 SUB DUP3 SGT ISZERO PUSH2 0x2CE1 JUMPI PUSH1 0x0 DUP1 REVERT JUMPDEST SWAP3 POP SWAP3 SWAP1 POP JUMP JUMPDEST PUSH1 0x0 DUP3 MLOAD PUSH2 0x2CFA DUP2 DUP5 PUSH1 0x20 DUP8 ADD PUSH2 0x2680 JUMP JUMPDEST SWAP2 SWAP1 SWAP2 ADD SWAP3 SWAP2 POP POP JUMP JUMPDEST PUSH1 0x1F DUP3 GT ISZERO PUSH2 0x89F JUMPI PUSH1 0x0 DUP2 DUP2 MSTORE PUSH1 0x20 DUP2 KECCAK256 PUSH1 0x1F DUP6 ADD PUSH1 0x5 SHR DUP2 ADD PUSH1 0x20 DUP7 LT ISZERO PUSH2 0x2D2B JUMPI POP DUP1 JUMPDEST PUSH1 0x1F DUP6 ADD PUSH1 0x5 SHR DUP3 ADD SWAP2 POP JUMPDEST DUP2 DUP2 LT ISZERO PUSH2 0x2D4A JUMPI DUP3 DUP2 SSTORE PUSH1 0x1 ADD PUSH2 0x2D37 JUMP JUMPDEST POP POP POP POP POP POP JUMP JUMPDEST DUP2 MLOAD PUSH1 0x1 PUSH1 0x1 PUSH1 0x40 SHL SUB DUP2 GT ISZERO PUSH2 0x2D6B JUMPI PUSH2 0x2D6B PUSH2 0x2291 JUMP JUMPDEST PUSH2 0x2D7F DUP2 PUSH2 0x2D79 DUP5 SLOAD PUSH2 0x2C61 JUMP JUMPDEST DUP5 PUSH2 0x2D04 JUMP JUMPDEST PUSH1 0x20 DUP1 PUSH1 0x1F DUP4 GT PUSH1 0x1 DUP2 EQ PUSH2 0x2DB4 JUMPI PUSH1 0x0 DUP5 ISZERO PUSH2 0x2D9C JUMPI POP DUP6 DUP4 ADD MLOAD JUMPDEST PUSH1 0x0 NOT PUSH1 0x3 DUP7 SWAP1 SHL SHR NOT AND PUSH1 0x1 DUP6 SWAP1 SHL OR DUP6 SSTORE PUSH2 0x2D4A JUMP JUMPDEST PUSH1 0x0 DUP6 DUP2 MSTORE PUSH1 0x20 DUP2 KECCAK256 PUSH1 0x1F NOT DUP7 AND SWAP2 JUMPDEST DUP3 DUP2 LT ISZERO PUSH2 0x2DE3 JUMPI DUP9 DUP7 ADD MLOAD DUP3 SSTORE SWAP5 DUP5 ADD SWAP5 PUSH1 0x1 SWAP1 SWAP2 ADD SWAP1 DUP5 ADD PUSH2 0x2DC4 JUMP JUMPDEST POP DUP6 DUP3 LT ISZERO PUSH2 0x2E01 JUMPI DUP8 DUP6 ADD MLOAD PUSH1 0x0 NOT PUSH1 0x3 DUP9 SWAP1 SHL PUSH1 0xF8 AND SHR NOT AND DUP2 SSTORE JUMPDEST POP POP POP POP POP PUSH1 0x1 SWAP1 DUP2 SHL ADD SWAP1 SSTORE POP JUMP JUMPDEST PUSH21 0x2832B936B4B9B9B4B7B7399D1030B1B1B7BAB73A1 PUSH1 0x5D SHL DUP2 MSTORE PUSH1 0x0 DUP4 MLOAD PUSH2 0x2E41 DUP2 PUSH1 0x15 DUP6 ADD PUSH1 0x20 DUP9 ADD PUSH2 0x2680 JUMP JUMPDEST PUSH17 0x1034B99036B4B9B9B4B733903937B6329 PUSH1 0x7D SHL PUSH1 0x15 SWAP2 DUP5 ADD SWAP2 DUP3 ADD MSTORE DUP4 MLOAD PUSH2 0x2E72 DUP2 PUSH1 0x26 DUP5 ADD PUSH1 0x20 DUP9 ADD PUSH2 0x2680 JUMP JUMPDEST ADD PUSH1 0x26 ADD SWAP5 SWAP4 POP POP POP POP JUMP JUMPDEST PUSH1 0x40 DUP2 MSTORE PUSH1 0x0 PUSH2 0x2E91 PUSH1 0x40 DUP4 ADD DUP6 PUSH2 0x26A4 JUMP JUMPDEST DUP3 DUP2 SUB PUSH1 0x20 DUP5 ADD MSTORE PUSH2 0x2EA3 DUP2 DUP6 PUSH2 0x26A4 JUMP JUMPDEST SWAP6 SWAP5 POP POP POP POP POP JUMP JUMPDEST DUP1 DUP3 MUL DUP2 ISZERO DUP3 DUP3 DIV DUP5 EQ OR PUSH2 0x8E4 JUMPI PUSH2 0x8E4 PUSH2 0x2AB6 JUMP JUMPDEST PUSH1 0x0 DUP2 PUSH2 0x2ED2 JUMPI PUSH2 0x2ED2 PUSH2 0x2AB6 JUMP JUMPDEST POP PUSH1 0x0 NOT ADD SWAP1 JUMP INVALID 0xD0 0xEB 0xEB 0xE8 0xE6 DIFFICULTY 0x5C PUSH3 0xBABF8F 0xEF PUSH23 0x7EB39F1002BB957BB5B83258275A4E46428ED541646472 PUSH6 0x73733A206C6F PUSH24 0x2D6C6576656C2064656C65676174652063616C6C20666169 PUSH13 0x65640C4BA382C0009CF238E4C1 0xCA BYTE MSTORE CREATE2 SHR PUSH2 0xE624 DUP11 PUSH17 0xBDFB34E5ED49D5578A5C0CA26469706673 PC 0x22 SLT KECCAK256 0xC0 0xDE SSTORE PUSH10 0xB18F14C12A672334091C 0xB6 0xDB GASLIMIT 0xCE CODESIZE SWAP3 0xCA DUP3 0xE3 PUSH28 0xFE4C649AD68A953964736F6C63430008110033000000000000000000 "},"methodIdentifiers":{"DEFAULT_ADMIN_ROLE()":"a217fddf","_getPluginForFunction(bytes4)":"c511f8fb","addPlugin((bytes4,string,address))":"1ab6b705","contractType()":"cb2ef6f7","contractURI()":"e8a3d485","contractVersion()":"a0a8e460","getAllFunctionsOfPlugin(address)":"5c573f2e","getAllPlugins()":"6b86400e","getPlatformFeeInfo()":"d45573f6","getPluginForFunction(bytes4)":"a520a38a","getRoleAdmin(bytes32)":"248a9ca3","getRoleMember(bytes32,uint256)":"9010d07c","getRoleMemberCount(bytes32)":"ca15c873","grantRole(bytes32,address)":"2f2ff15d","hasRole(bytes32,address)":"91d14854","hasRoleWithSwitch(bytes32,address)":"a32fa5b3","initialize(address,string,address[],address,uint16,address,address,address,address,address)":"3ab6a05a","isTrustedForwarder(address)":"572b6c05","multicall(bytes[])":"ac9650d8","nftCollection1()":"bd8d5dd0","nftCollection2()":"1179f509","nftCollection3()":"9858fb6d","nftCollection4()":"8343d5b5","nftCollection5()":"21f6baff","onERC1155BatchReceived(address,address,uint256[],uint256[],bytes)":"bc197c81","onERC1155Received(address,address,uint256,uint256,bytes)":"f23a6e61","onERC721Received(address,address,uint256,bytes)":"150b7a02","pluginMap()":"b48912da","removePlugin(bytes4)":"a5342fdf","renounceRole(bytes32,address)":"36568abe","revokeRole(bytes32,address)":"d547741f","setContractURI(string)":"938e3d7b","setPlatformFeeInfo(address,uint256)":"1e7ac488","supportsInterface(bytes4)":"01ffc9a7","updatePlugin((bytes4,string,address))":"4cb5d8fd"}}}}}