{"contracts/dependencies/PermissionsEnumerableStorage.sol":{"PermissionsEnumerableStorage":{"abi":[{"inputs":[],"name":"PERMISSIONS_ENUMERABLE_STORAGE_POSITION","outputs":[{"internalType":"bytes32","name":"","type":"bytes32"}],"stateMutability":"view","type":"function"}],"evm":{"bytecode":{"linkReferences":{},"object":"60a6610038600b82828239805160001a607314602b57634e487b7160e01b600052600060045260246000fd5b30600052607381538281f3fe730000000000000000000000000000000000000000301460806040526004361060335760003560e01c8063871ef69d146038575b600080fd5b605e7f0c4ba382c0009cf238e4c1ca1a52f51c61e6248a70bdfb34e5ed49d5578a5c0c81565b60405190815260200160405180910390f3fea264697066735822122038bad59d422b431fddbc12158ed9f2b303ae437038fe375ca7213d9c279ae8aa64736f6c63430008110033","opcodes":"PUSH1 0xA6 PUSH2 0x38 PUSH1 0xB DUP3 DUP3 DUP3 CODECOPY DUP1 MLOAD PUSH1 0x0 BYTE PUSH1 0x73 EQ PUSH1 0x2B JUMPI PUSH4 0x4E487B71 PUSH1 0xE0 SHL PUSH1 0x0 MSTORE PUSH1 0x0 PUSH1 0x4 MSTORE PUSH1 0x24 PUSH1 0x0 REVERT JUMPDEST ADDRESS PUSH1 0x0 MSTORE PUSH1 0x73 DUP2 MSTORE8 DUP3 DUP2 RETURN INVALID PUSH20 0x0 ADDRESS EQ PUSH1 0x80 PUSH1 0x40 MSTORE PUSH1 0x4 CALLDATASIZE LT PUSH1 0x33 JUMPI PUSH1 0x0 CALLDATALOAD PUSH1 0xE0 SHR DUP1 PUSH4 0x871EF69D EQ PUSH1 0x38 JUMPI JUMPDEST PUSH1 0x0 DUP1 REVERT JUMPDEST PUSH1 0x5E PUSH32 0xC4BA382C0009CF238E4C1CA1A52F51C61E6248A70BDFB34E5ED49D5578A5C0C DUP2 JUMP JUMPDEST PUSH1 0x40 MLOAD SWAP1 DUP2 MSTORE PUSH1 0x20 ADD PUSH1 0x40 MLOAD DUP1 SWAP2 SUB SWAP1 RETURN INVALID LOG2 PUSH5 0x6970667358 0x22 SLT KECCAK256 CODESIZE 0xBA 0xD5 SWAP14 TIMESTAMP 0x2B NUMBER 0x1F 0xDD 0xBC SLT ISZERO DUP15 0xD9 CALLCODE 0xB3 SUB 0xAE NUMBER PUSH17 0x38FE375CA7213D9C279AE8AA64736F6C63 NUMBER STOP ADDMOD GT STOP CALLER "},"methodIdentifiers":{"PERMISSIONS_ENUMERABLE_STORAGE_POSITION()":"871ef69d"}}}}}