{"contracts/dependencies/ContractMetadataStorage.sol":{"ContractMetadataStorage":{"abi":[{"inputs":[],"name":"CONTRACT_METADATA_STORAGE_POSITION","outputs":[{"internalType":"bytes32","name":"","type":"bytes32"}],"stateMutability":"view","type":"function"}],"evm":{"bytecode":{"linkReferences":{},"object":"60a6610038600b82828239805160001a607314602b57634e487b7160e01b600052600060045260246000fd5b30600052607381538281f3fe730000000000000000000000000000000000000000301460806040526004361060335760003560e01c80637e837fbf146038575b600080fd5b605e7fa7d40346e44ca145e94a946aa34a7d4a67245577dc18699a626fe0ffc6ce328181565b60405190815260200160405180910390f3fea2646970667358221220689837f8e50e4d3d979887c064cf6cc67dd89d790880a54b442991aa2e6191a964736f6c63430008110033","opcodes":"PUSH1 0xA6 PUSH2 0x38 PUSH1 0xB DUP3 DUP3 DUP3 CODECOPY DUP1 MLOAD PUSH1 0x0 BYTE PUSH1 0x73 EQ PUSH1 0x2B JUMPI PUSH4 0x4E487B71 PUSH1 0xE0 SHL PUSH1 0x0 MSTORE PUSH1 0x0 PUSH1 0x4 MSTORE PUSH1 0x24 PUSH1 0x0 REVERT JUMPDEST ADDRESS PUSH1 0x0 MSTORE PUSH1 0x73 DUP2 MSTORE8 DUP3 DUP2 RETURN INVALID PUSH20 0x0 ADDRESS EQ PUSH1 0x80 PUSH1 0x40 MSTORE PUSH1 0x4 CALLDATASIZE LT PUSH1 0x33 JUMPI PUSH1 0x0 CALLDATALOAD PUSH1 0xE0 SHR DUP1 PUSH4 0x7E837FBF EQ PUSH1 0x38 JUMPI JUMPDEST PUSH1 0x0 DUP1 REVERT JUMPDEST PUSH1 0x5E PUSH32 0xA7D40346E44CA145E94A946AA34A7D4A67245577DC18699A626FE0FFC6CE3281 DUP2 JUMP JUMPDEST PUSH1 0x40 MLOAD SWAP1 DUP2 MSTORE PUSH1 0x20 ADD PUSH1 0x40 MLOAD DUP1 SWAP2 SUB SWAP1 RETURN INVALID LOG2 PUSH5 0x6970667358 0x22 SLT KECCAK256 PUSH9 0x9837F8E50E4D3D9798 DUP8 0xC0 PUSH5 0xCF6CC67DD8 SWAP14 PUSH26 0x880A54B442991AA2E6191A964736F6C63430008110033000000 "},"methodIdentifiers":{"CONTRACT_METADATA_STORAGE_POSITION()":"7e837fbf"}}}}}