{"contracts/dependencies/RouterImmutable.sol":{"RouterImmutable":{"abi":[{"inputs":[{"internalType":"address","name":"_pluginMap","type":"address"}],"stateMutability":"nonpayable","type":"constructor"},{"anonymous":false,"inputs":[{"indexed":true,"internalType":"bytes4","name":"functionSelector","type":"bytes4"},{"indexed":true,"internalType":"address","name":"pluginAddress","type":"address"}],"name":"PluginAdded","type":"event"},{"anonymous":false,"inputs":[{"indexed":true,"internalType":"bytes4","name":"functionSelector","type":"bytes4"},{"indexed":true,"internalType":"address","name":"pluginAddress","type":"address"}],"name":"PluginRemoved","type":"event"},{"anonymous":false,"inputs":[{"indexed":true,"internalType":"bytes4","name":"functionSelector","type":"bytes4"},{"indexed":true,"internalType":"string","name":"functionSignature","type":"string"},{"indexed":true,"internalType":"address","name":"pluginAddress","type":"address"}],"name":"PluginSet","type":"event"},{"anonymous":false,"inputs":[{"indexed":true,"internalType":"bytes4","name":"functionSelector","type":"bytes4"},{"indexed":true,"internalType":"address","name":"oldPluginAddress","type":"address"},{"indexed":true,"internalType":"address","name":"newPluginAddress","type":"address"}],"name":"PluginUpdated","type":"event"},{"stateMutability":"payable","type":"fallback"},{"inputs":[{"internalType":"bytes4","name":"_selector","type":"bytes4"}],"name":"_getPluginForFunction","outputs":[{"internalType":"address","name":"","type":"address"}],"stateMutability":"view","type":"function"},{"inputs":[{"components":[{"internalType":"bytes4","name":"functionSelector","type":"bytes4"},{"internalType":"string","name":"functionSignature","type":"string"},{"internalType":"address","name":"pluginAddress","type":"address"}],"internalType":"struct IPluginMap.Plugin","name":"_plugin","type":"tuple"}],"name":"addPlugin","outputs":[],"stateMutability":"nonpayable","type":"function"},{"inputs":[{"internalType":"address","name":"_pluginAddress","type":"address"}],"name":"getAllFunctionsOfPlugin","outputs":[{"internalType":"bytes4[]","name":"registered","type":"bytes4[]"}],"stateMutability":"view","type":"function"},{"inputs":[],"name":"getAllPlugins","outputs":[{"components":[{"internalType":"bytes4","name":"functionSelector","type":"bytes4"},{"internalType":"string","name":"functionSignature","type":"string"},{"internalType":"address","name":"pluginAddress","type":"address"}],"internalType":"struct IPluginMap.Plugin[]","name":"registered","type":"tuple[]"}],"stateMutability":"view","type":"function"},{"inputs":[{"internalType":"bytes4","name":"_selector","type":"bytes4"}],"name":"getPluginForFunction","outputs":[{"internalType":"address","name":"","type":"address"}],"stateMutability":"view","type":"function"},{"inputs":[{"internalType":"bytes[]","name":"data","type":"bytes[]"}],"name":"multicall","outputs":[{"internalType":"bytes[]","name":"results","type":"bytes[]"}],"stateMutability":"nonpayable","type":"function"},{"inputs":[],"name":"pluginMap","outputs":[{"internalType":"address","name":"","type":"address"}],"stateMutability":"view","type":"function"},{"inputs":[{"internalType":"bytes4","name":"_selector","type":"bytes4"}],"name":"removePlugin","outputs":[],"stateMutability":"nonpayable","type":"function"},{"inputs":[{"internalType":"bytes4","name":"interfaceId","type":"bytes4"}],"name":"supportsInterface","outputs":[{"internalType":"bool","name":"","type":"bool"}],"stateMutability":"view","type":"function"},{"inputs":[{"components":[{"internalType":"bytes4","name":"functionSelector","type":"bytes4"},{"internalType":"string","name":"functionSignature","type":"string"},{"internalType":"address","name":"pluginAddress","type":"address"}],"internalType":"struct IPluginMap.Plugin","name":"_plugin","type":"tuple"}],"name":"updatePlugin","outputs":[],"stateMutability":"nonpayable","type":"function"},{"stateMutability":"payable","type":"receive"}],"evm":{"bytecode":{"linkReferences":{},"object":"60a060405234801561001057600080fd5b506040516116e23803806116e283398101604081905261002f91610040565b6001600160a01b0316608052610070565b60006020828403121561005257600080fd5b81516001600160a01b038116811461006957600080fd5b9392505050565b60805161163c6100a66000396000818160e4015281816102bb0152818161047c015281816107440152610b24015261163c6000f3fe6080604052600436106100955760003560e01c8063a520a38a11610059578063a520a38a14610229578063a5342fdf14610261578063ac9650d81461027c578063b48912da146102a9578063c511f8fb146102dd5761009c565b806301ffc9a7146101655780631ab6b7051461019a5780634cb5d8fd146101ba5780635c573f2e146101da5780636b86400e146102075761009c565b3661009c57005b60006100b36000356001600160e01b0319166102f8565b90506001600160a01b03811661015a5760405163529051c560e11b81526000356001600160e01b03191660048201527f00000000000000000000000000000000000000000000000000000000000000006001600160a01b03169063a520a38a90602401602060405180830381865afa158015610133573d6000803e3d6000fd5b505050506040513d601f19601f820116820180604052508101906101579190610e6a565b90505b6101638161033f565b005b34801561017157600080fd5b50610185610180366004610e9d565b610363565b60405190151581526020015b60405180910390f35b3480156101a657600080fd5b506101636101b5366004610f5d565b61039a565b3480156101c657600080fd5b506101636101d5366004610f5d565b6103e3565b3480156101e657600080fd5b506101fa6101f536600461102e565b610421565b604051610191919061104b565b34801561021357600080fd5b5061021c610711565b60405161019191906110e9565b34801561023557600080fd5b50610249610244366004610e9d565b610ae9565b6040516001600160a01b039091168152602001610191565b34801561026d57600080fd5b506101636101d5366004610e9d565b34801561028857600080fd5b5061029c61029736600461117f565b610ba5565b60405161019191906111f4565b3480156102b557600080fd5b506102497f000000000000000000000000000000000000000000000000000000000000000081565b3480156102e957600080fd5b506102496102f8366004610e9d565b6001600160e01b03191660009081527f1a3e4131826bb378aa43abb34a33a366bc4a35b55ab18a884fa205b59285ec4860205260409020600201546001600160a01b031690565b3660008037600080366000845af43d6000803e80801561035e573d6000f35b3d6000fd5b60006001600160e01b0319821663f337402760e01b148061039457506301ffc9a760e01b6001600160e01b03198316145b92915050565b60405162461bcd60e51b8152602060048201526016602482015275149bdd5d195c8e88139bdd08185d5d1a1bdc9a5e995960521b60448201526064015b60405180910390fd5b50565b60405162461bcd60e51b815260206004820152601360248201527213585c0e88139bdd08185d5d1a1bdc9a5e9959606a1b60448201526064016103d7565b606060007f1a3e4131826bb378aa43abb34a33a366bc4a35b55ab18a884fa205b59285ec456001600160a01b0384811660008181526002840160205260408082209051632e2b9f9760e11b81526004810193909352939450917f00000000000000000000000000000000000000000000000000000000000000001690635c573f2e90602401600060405180830381865afa1580156104c3573d6000803e3d6000fd5b505050506040513d6000823e601f3d908101601f191682016040526104eb919081019061127a565b80519091506000816104fc85610c9a565b610506919061132a565b905060005b8281101561059e576105498482815181106105285761052861133d565b60200260200101516001600160e01b03191686610ca490919063ffffffff16565b1561058c57610559600183611353565b9150600060e01b8482815181106105725761057261133d565b6001600160e01b0319909216602092830291909101909101525b61059760018261132a565b905061050b565b508067ffffffffffffffff8111156105b8576105b8610eba565b6040519080825280602002602001820160405280156105e1578160200160208202803683370190505b5095506000805b838110156106825784516000908690839081106106075761060761133d565b60200260200101516001600160e01b03191614610670578481815181106106305761063061133d565b602002602001015188838061064490611366565b9450815181106106565761065661133d565b6001600160e01b0319909216602092830291909101909101525b61067b60018261132a565b90506105e8565b5061068c85610c9a565b925060005b83811015610705576001600160a01b038916600090815260028801602052604090206106bd9082610cbc565b88836106c881611366565b9450815181106106da576106da61133d565b6001600160e01b0319909216602092830291909101909101526106fe60018261132a565b9050610691565b50505050505050919050565b606060007f1a3e4131826bb378aa43abb34a33a366bc4a35b55ab18a884fa205b59285ec459050600081600001905060007f00000000000000000000000000000000000000000000000000000000000000006001600160a01b0316636b86400e6040518163ffffffff1660e01b8152600401600060405180830381865afa1580156107a0573d6000803e3d6000fd5b505050506040513d6000823e601f3d908101601f191682016040526107c8919081019061137f565b905060006107d583610c9a565b825190915060006107e6828461132a565b905060005b838110156108a25760005b8381101561088f578581815181106108105761081061133d565b6020908102919091010151516001600160e01b0319166108308884610cbc565b6001600160e01b0319160361087d5761084a600184611353565b9250600060e01b8682815181106108635761086361133d565b60209081029190910101516001600160e01b031990911690525b61088860018261132a565b90506107f6565b5061089b60018261132a565b90506107eb565b508067ffffffffffffffff8111156108bc576108bc610eba565b60405190808252806020026020018201604052801561090c57816020015b604080516060808201835260008083526020830191909152918101919091528152602001906001900390816108da5790505b5096506000805b838110156109a45785516000908790839081106109325761093261133d565b6020026020010151600001516001600160e01b031916146109925785818151811061095f5761095f61133d565b60200260200101518983815181106109795761097961133d565b602090810291909101015261098f60018361132a565b91505b61099d60018261132a565b9050610913565b5060005b84811015610ade576003880160006109c08984610cbc565b6001600160e01b031990811682526020808301939093526040918201600020825160608101909352805460e01b90911682526001810180549293919291840191610a09906114c0565b80601f0160208091040260200160405190810160405280929190818152602001828054610a35906114c0565b8015610a825780601f10610a5757610100808354040283529160200191610a82565b820191906000526020600020905b815481529060010190602001808311610a6557829003601f168201915b5050509183525050600291909101546001600160a01b031660209091015289518a9084908110610ab457610ab461133d565b6020908102919091010152610aca60018361132a565b9150610ad760018261132a565b90506109a8565b505050505050505090565b600080610af5836102f8565b90506001600160a01b038116610b9c5760405163529051c560e11b81526001600160e01b0319841660048201527f00000000000000000000000000000000000000000000000000000000000000006001600160a01b03169063a520a38a90602401602060405180830381865afa158015610b73573d6000803e3d6000fd5b505050506040513d601f19601f82011682018060405250810190610b979190610e6a565b610b9e565b805b9392505050565b60608167ffffffffffffffff811115610bc057610bc0610eba565b604051908082528060200260200182016040528015610bf357816020015b6060815260200190600190039081610bde5790505b50905060005b82811015610c9357610c6330858584818110610c1757610c1761133d565b9050602002810190610c2991906114fa565b8080601f016020809104026020016040519081016040528093929190818152602001838380828437600092019190915250610cc892505050565b828281518110610c7557610c7561133d565b60200260200101819052508080610c8b90611366565b915050610bf9565b5092915050565b6000610394825490565b60008181526001830160205260408120541515610b9e565b6000610b9e8383610ced565b6060610b9e83836040518060600160405280602781526020016115e060279139610d17565b6000826000018281548110610d0457610d0461133d565b9060005260206000200154905092915050565b60606001600160a01b0384163b610d7f5760405162461bcd60e51b815260206004820152602660248201527f416464726573733a2064656c65676174652063616c6c20746f206e6f6e2d636f6044820152651b9d1c9858dd60d21b60648201526084016103d7565b600080856001600160a01b031685604051610d9a9190611548565b600060405180830381855af49150503d8060008114610dd5576040519150601f19603f3d011682016040523d82523d6000602084013e610dda565b606091505b5091509150610dea828286610df4565b9695505050505050565b60608315610e03575081610b9e565b825115610e135782518084602001fd5b8160405162461bcd60e51b81526004016103d791906115cc565b80821115610e415760008155600101610e2d565b5090565b6001600160a01b03811681146103e057600080fd5b8051610e6581610e45565b919050565b600060208284031215610e7c57600080fd5b8151610b9e81610e45565b6001600160e01b0319811681146103e057600080fd5b600060208284031215610eaf57600080fd5b8135610b9e81610e87565b634e487b7160e01b600052604160045260246000fd5b6040516060810167ffffffffffffffff81118282101715610ef357610ef3610eba565b60405290565b604051601f8201601f1916810167ffffffffffffffff81118282101715610f2257610f22610eba565b604052919050565b600067ffffffffffffffff821115610f4457610f44610eba565b50601f01601f191660200190565b8035610e6581610e45565b60006020808385031215610f7057600080fd5b823567ffffffffffffffff80821115610f8857600080fd5b9084019060608287031215610f9c57600080fd5b610fa4610ed0565b8235610faf81610e87565b81528284013582811115610fc257600080fd5b83019150601f82018713610fd557600080fd5b8135610fe8610fe382610f2a565b610ef9565b8181528886838601011115610ffc57600080fd5b818685018783013760008683830101528086840152505061101f60408401610f52565b60408201529695505050505050565b60006020828403121561104057600080fd5b8135610b9e81610e45565b6020808252825182820181905260009190848201906040850190845b8181101561108d5783516001600160e01b03191683529284019291840191600101611067565b50909695505050505050565b60005b838110156110b457818101518382015260200161109c565b50506000910152565b600081518084526110d5816020860160208601611099565b601f01601f19169290920160200192915050565b60006020808301818452808551808352604092508286019150828160051b87010184880160005b8381101561117157888303603f19018552815180516001600160e01b03191684528781015160608986018190529061114a828701826110bd565b928901516001600160a01b0316958901959095525094870194925090860190600101611110565b509098975050505050505050565b6000806020838503121561119257600080fd5b823567ffffffffffffffff808211156111aa57600080fd5b818501915085601f8301126111be57600080fd5b8135818111156111cd57600080fd5b8660208260051b85010111156111e257600080fd5b60209290920196919550909350505050565b6000602080830181845280855180835260408601915060408160051b870101925083870160005b8281101561124957603f198886030184526112378583516110bd565b9450928501929085019060010161121b565b5092979650505050505050565b600067ffffffffffffffff82111561127057611270610eba565b5060051b60200190565b6000602080838503121561128d57600080fd5b825167ffffffffffffffff8111156112a457600080fd5b8301601f810185136112b557600080fd5b80516112c3610fe382611256565b81815260059190911b820183019083810190878311156112e257600080fd5b928401925b828410156113095783516112fa81610e87565b825292840192908401906112e7565b979650505050505050565b634e487b7160e01b600052601160045260246000fd5b8082018082111561039457610394611314565b634e487b7160e01b600052603260045260246000fd5b8181038181111561039457610394611314565b60006001820161137857611378611314565b5060010190565b6000602080838503121561139257600080fd5b825167ffffffffffffffff808211156113aa57600080fd5b818501915085601f8301126113be57600080fd5b81516113cc610fe382611256565b81815260059190911b830184019084810190888311156113eb57600080fd5b8585015b838110156114b35780518581111561140657600080fd5b86016060818c03601f1901121561141d5760008081fd5b611425610ed0565b8882015161143281610e87565b8152604082810151888111156114485760008081fd5b8301603f81018e1361145a5760008081fd5b8a81015161146a610fe382610f2a565b8181528f8483850101111561147f5760008081fd5b61148e828e8301868601611099565b848d0152506114a1905060608401610e5a565b908201528452509186019186016113ef565b5098975050505050505050565b600181811c908216806114d457607f821691505b6020821081036114f457634e487b7160e01b600052602260045260246000fd5b50919050565b6000808335601e1984360301811261151157600080fd5b83018035915067ffffffffffffffff82111561152c57600080fd5b60200191503681900382131561154157600080fd5b9250929050565b6000825161155a818460208701611099565b9190910192915050565b8181101561157757828155600101611564565b505050505050565b8281101561159e5788860151825594840194600190910190840161157f565b50858210156115bc5787850151600019600388901b60f8161c191681555b5050505050600190811b01905550565b602081526000610b9e60208301846110bd56fe416464726573733a206c6f772d6c6576656c2064656c65676174652063616c6c206661696c6564a26469706673582212209741513c014dad057c40c93ab68b89ca613f85cccf89cacb51900eb427710b3764736f6c63430008110033","opcodes":"PUSH1 0xA0 PUSH1 0x40 MSTORE CALLVALUE DUP1 ISZERO PUSH2 0x10 JUMPI PUSH1 0x0 DUP1 REVERT JUMPDEST POP PUSH1 0x40 MLOAD PUSH2 0x16E2 CODESIZE SUB DUP1 PUSH2 0x16E2 DUP4 CODECOPY DUP2 ADD PUSH1 0x40 DUP2 SWAP1 MSTORE PUSH2 0x2F SWAP2 PUSH2 0x40 JUMP JUMPDEST PUSH1 0x1 PUSH1 0x1 PUSH1 0xA0 SHL SUB AND PUSH1 0x80 MSTORE PUSH2 0x70 JUMP JUMPDEST PUSH1 0x0 PUSH1 0x20 DUP3 DUP5 SUB SLT ISZERO PUSH2 0x52 JUMPI PUSH1 0x0 DUP1 REVERT JUMPDEST DUP2 MLOAD PUSH1 0x1 PUSH1 0x1 PUSH1 0xA0 SHL SUB DUP2 AND DUP2 EQ PUSH2 0x69 JUMPI PUSH1 0x0 DUP1 REVERT JUMPDEST SWAP4 SWAP3 POP POP POP JUMP JUMPDEST PUSH1 0x80 MLOAD PUSH2 0x163C PUSH2 0xA6 PUSH1 0x0 CODECOPY PUSH1 0x0 DUP2 DUP2 PUSH1 0xE4 ADD MSTORE DUP2 DUP2 PUSH2 0x2BB ADD MSTORE DUP2 DUP2 PUSH2 0x47C ADD MSTORE DUP2 DUP2 PUSH2 0x744 ADD MSTORE PUSH2 0xB24 ADD MSTORE PUSH2 0x163C PUSH1 0x0 RETURN INVALID PUSH1 0x80 PUSH1 0x40 MSTORE PUSH1 0x4 CALLDATASIZE LT PUSH2 0x95 JUMPI PUSH1 0x0 CALLDATALOAD PUSH1 0xE0 SHR DUP1 PUSH4 0xA520A38A GT PUSH2 0x59 JUMPI DUP1 PUSH4 0xA520A38A EQ PUSH2 0x229 JUMPI DUP1 PUSH4 0xA5342FDF EQ PUSH2 0x261 JUMPI DUP1 PUSH4 0xAC9650D8 EQ PUSH2 0x27C JUMPI DUP1 PUSH4 0xB48912DA EQ PUSH2 0x2A9 JUMPI DUP1 PUSH4 0xC511F8FB EQ PUSH2 0x2DD JUMPI PUSH2 0x9C JUMP JUMPDEST DUP1 PUSH4 0x1FFC9A7 EQ PUSH2 0x165 JUMPI DUP1 PUSH4 0x1AB6B705 EQ PUSH2 0x19A JUMPI DUP1 PUSH4 0x4CB5D8FD EQ PUSH2 0x1BA JUMPI DUP1 PUSH4 0x5C573F2E EQ PUSH2 0x1DA JUMPI DUP1 PUSH4 0x6B86400E EQ PUSH2 0x207 JUMPI PUSH2 0x9C JUMP JUMPDEST CALLDATASIZE PUSH2 0x9C JUMPI STOP JUMPDEST PUSH1 0x0 PUSH2 0xB3 PUSH1 0x0 CALLDATALOAD PUSH1 0x1 PUSH1 0x1 PUSH1 0xE0 SHL SUB NOT AND PUSH2 0x2F8 JUMP JUMPDEST SWAP1 POP PUSH1 0x1 PUSH1 0x1 PUSH1 0xA0 SHL SUB DUP2 AND PUSH2 0x15A JUMPI PUSH1 0x40 MLOAD PUSH4 0x529051C5 PUSH1 0xE1 SHL DUP2 MSTORE PUSH1 0x0 CALLDATALOAD PUSH1 0x1 PUSH1 0x1 PUSH1 0xE0 SHL SUB NOT AND PUSH1 0x4 DUP3 ADD MSTORE PUSH32 0x0 PUSH1 0x1 PUSH1 0x1 PUSH1 0xA0 SHL SUB AND SWAP1 PUSH4 0xA520A38A SWAP1 PUSH1 0x24 ADD PUSH1 0x20 PUSH1 0x40 MLOAD DUP1 DUP4 SUB DUP2 DUP7 GAS STATICCALL ISZERO DUP1 ISZERO PUSH2 0x133 JUMPI RETURNDATASIZE PUSH1 0x0 DUP1 RETURNDATACOPY RETURNDATASIZE PUSH1 0x0 REVERT JUMPDEST POP POP POP POP PUSH1 0x40 MLOAD RETURNDATASIZE PUSH1 0x1F NOT PUSH1 0x1F DUP3 ADD AND DUP3 ADD DUP1 PUSH1 0x40 MSTORE POP DUP2 ADD SWAP1 PUSH2 0x157 SWAP2 SWAP1 PUSH2 0xE6A JUMP JUMPDEST SWAP1 POP JUMPDEST PUSH2 0x163 DUP2 PUSH2 0x33F JUMP JUMPDEST STOP JUMPDEST CALLVALUE DUP1 ISZERO PUSH2 0x171 JUMPI PUSH1 0x0 DUP1 REVERT JUMPDEST POP PUSH2 0x185 PUSH2 0x180 CALLDATASIZE PUSH1 0x4 PUSH2 0xE9D JUMP JUMPDEST PUSH2 0x363 JUMP JUMPDEST PUSH1 0x40 MLOAD SWAP1 ISZERO ISZERO DUP2 MSTORE PUSH1 0x20 ADD JUMPDEST PUSH1 0x40 MLOAD DUP1 SWAP2 SUB SWAP1 RETURN JUMPDEST CALLVALUE DUP1 ISZERO PUSH2 0x1A6 JUMPI PUSH1 0x0 DUP1 REVERT JUMPDEST POP PUSH2 0x163 PUSH2 0x1B5 CALLDATASIZE PUSH1 0x4 PUSH2 0xF5D JUMP JUMPDEST PUSH2 0x39A JUMP JUMPDEST CALLVALUE DUP1 ISZERO PUSH2 0x1C6 JUMPI PUSH1 0x0 DUP1 REVERT JUMPDEST POP PUSH2 0x163 PUSH2 0x1D5 CALLDATASIZE PUSH1 0x4 PUSH2 0xF5D JUMP JUMPDEST PUSH2 0x3E3 JUMP JUMPDEST CALLVALUE DUP1 ISZERO PUSH2 0x1E6 JUMPI PUSH1 0x0 DUP1 REVERT JUMPDEST POP PUSH2 0x1FA PUSH2 0x1F5 CALLDATASIZE PUSH1 0x4 PUSH2 0x102E JUMP JUMPDEST PUSH2 0x421 JUMP JUMPDEST PUSH1 0x40 MLOAD PUSH2 0x191 SWAP2 SWAP1 PUSH2 0x104B JUMP JUMPDEST CALLVALUE DUP1 ISZERO PUSH2 0x213 JUMPI PUSH1 0x0 DUP1 REVERT JUMPDEST POP PUSH2 0x21C PUSH2 0x711 JUMP JUMPDEST PUSH1 0x40 MLOAD PUSH2 0x191 SWAP2 SWAP1 PUSH2 0x10E9 JUMP JUMPDEST CALLVALUE DUP1 ISZERO PUSH2 0x235 JUMPI PUSH1 0x0 DUP1 REVERT JUMPDEST POP PUSH2 0x249 PUSH2 0x244 CALLDATASIZE PUSH1 0x4 PUSH2 0xE9D JUMP JUMPDEST PUSH2 0xAE9 JUMP JUMPDEST PUSH1 0x40 MLOAD PUSH1 0x1 PUSH1 0x1 PUSH1 0xA0 SHL SUB SWAP1 SWAP2 AND DUP2 MSTORE PUSH1 0x20 ADD PUSH2 0x191 JUMP JUMPDEST CALLVALUE DUP1 ISZERO PUSH2 0x26D JUMPI PUSH1 0x0 DUP1 REVERT JUMPDEST POP PUSH2 0x163 PUSH2 0x1D5 CALLDATASIZE PUSH1 0x4 PUSH2 0xE9D JUMP JUMPDEST CALLVALUE DUP1 ISZERO PUSH2 0x288 JUMPI PUSH1 0x0 DUP1 REVERT JUMPDEST POP PUSH2 0x29C PUSH2 0x297 CALLDATASIZE PUSH1 0x4 PUSH2 0x117F JUMP JUMPDEST PUSH2 0xBA5 JUMP JUMPDEST PUSH1 0x40 MLOAD PUSH2 0x191 SWAP2 SWAP1 PUSH2 0x11F4 JUMP JUMPDEST CALLVALUE DUP1 ISZERO PUSH2 0x2B5 JUMPI PUSH1 0x0 DUP1 REVERT JUMPDEST POP PUSH2 0x249 PUSH32 0x0 DUP2 JUMP JUMPDEST CALLVALUE DUP1 ISZERO PUSH2 0x2E9 JUMPI PUSH1 0x0 DUP1 REVERT JUMPDEST POP PUSH2 0x249 PUSH2 0x2F8 CALLDATASIZE PUSH1 0x4 PUSH2 0xE9D JUMP JUMPDEST PUSH1 0x1 PUSH1 0x1 PUSH1 0xE0 SHL SUB NOT AND PUSH1 0x0 SWAP1 DUP2 MSTORE PUSH32 0x1A3E4131826BB378AA43ABB34A33A366BC4A35B55AB18A884FA205B59285EC48 PUSH1 0x20 MSTORE PUSH1 0x40 SWAP1 KECCAK256 PUSH1 0x2 ADD SLOAD PUSH1 0x1 PUSH1 0x1 PUSH1 0xA0 SHL SUB AND SWAP1 JUMP JUMPDEST CALLDATASIZE PUSH1 0x0 DUP1 CALLDATACOPY PUSH1 0x0 DUP1 CALLDATASIZE PUSH1 0x0 DUP5 GAS DELEGATECALL RETURNDATASIZE PUSH1 0x0 DUP1 RETURNDATACOPY DUP1 DUP1 ISZERO PUSH2 0x35E JUMPI RETURNDATASIZE PUSH1 0x0 RETURN JUMPDEST RETURNDATASIZE PUSH1 0x0 REVERT JUMPDEST PUSH1 0x0 PUSH1 0x1 PUSH1 0x1 PUSH1 0xE0 SHL SUB NOT DUP3 AND PUSH4 0xF3374027 PUSH1 0xE0 SHL EQ DUP1 PUSH2 0x394 JUMPI POP PUSH4 0x1FFC9A7 PUSH1 0xE0 SHL PUSH1 0x1 PUSH1 0x1 PUSH1 0xE0 SHL SUB NOT DUP4 AND EQ JUMPDEST SWAP3 SWAP2 POP POP JUMP JUMPDEST PUSH1 0x40 MLOAD PUSH3 0x461BCD PUSH1 0xE5 SHL DUP2 MSTORE PUSH1 0x20 PUSH1 0x4 DUP3 ADD MSTORE PUSH1 0x16 PUSH1 0x24 DUP3 ADD MSTORE PUSH22 0x149BDD5D195C8E88139BDD08185D5D1A1BDC9A5E9959 PUSH1 0x52 SHL PUSH1 0x44 DUP3 ADD MSTORE PUSH1 0x64 ADD JUMPDEST PUSH1 0x40 MLOAD DUP1 SWAP2 SUB SWAP1 REVERT JUMPDEST POP JUMP JUMPDEST PUSH1 0x40 MLOAD PUSH3 0x461BCD PUSH1 0xE5 SHL DUP2 MSTORE PUSH1 0x20 PUSH1 0x4 DUP3 ADD MSTORE PUSH1 0x13 PUSH1 0x24 DUP3 ADD MSTORE PUSH19 0x13585C0E88139BDD08185D5D1A1BDC9A5E9959 PUSH1 0x6A SHL PUSH1 0x44 DUP3 ADD MSTORE PUSH1 0x64 ADD PUSH2 0x3D7 JUMP JUMPDEST PUSH1 0x60 PUSH1 0x0 PUSH32 0x1A3E4131826BB378AA43ABB34A33A366BC4A35B55AB18A884FA205B59285EC45 PUSH1 0x1 PUSH1 0x1 PUSH1 0xA0 SHL SUB DUP5 DUP2 AND PUSH1 0x0 DUP2 DUP2 MSTORE PUSH1 0x2 DUP5 ADD PUSH1 0x20 MSTORE PUSH1 0x40 DUP1 DUP3 KECCAK256 SWAP1 MLOAD PUSH4 0x2E2B9F97 PUSH1 0xE1 SHL DUP2 MSTORE PUSH1 0x4 DUP2 ADD SWAP4 SWAP1 SWAP4 MSTORE SWAP4 SWAP5 POP SWAP2 PUSH32 0x0 AND SWAP1 PUSH4 0x5C573F2E SWAP1 PUSH1 0x24 ADD PUSH1 0x0 PUSH1 0x40 MLOAD DUP1 DUP4 SUB DUP2 DUP7 GAS STATICCALL ISZERO DUP1 ISZERO PUSH2 0x4C3 JUMPI RETURNDATASIZE PUSH1 0x0 DUP1 RETURNDATACOPY RETURNDATASIZE PUSH1 0x0 REVERT JUMPDEST POP POP POP POP PUSH1 0x40 MLOAD RETURNDATASIZE PUSH1 0x0 DUP3 RETURNDATACOPY PUSH1 0x1F RETURNDATASIZE SWAP1 DUP2 ADD PUSH1 0x1F NOT AND DUP3 ADD PUSH1 0x40 MSTORE PUSH2 0x4EB SWAP2 SWAP1 DUP2 ADD SWAP1 PUSH2 0x127A JUMP JUMPDEST DUP1 MLOAD SWAP1 SWAP2 POP PUSH1 0x0 DUP2 PUSH2 0x4FC DUP6 PUSH2 0xC9A JUMP JUMPDEST PUSH2 0x506 SWAP2 SWAP1 PUSH2 0x132A JUMP JUMPDEST SWAP1 POP PUSH1 0x0 JUMPDEST DUP3 DUP2 LT ISZERO PUSH2 0x59E JUMPI PUSH2 0x549 DUP5 DUP3 DUP2 MLOAD DUP2 LT PUSH2 0x528 JUMPI PUSH2 0x528 PUSH2 0x133D JUMP JUMPDEST PUSH1 0x20 MUL PUSH1 0x20 ADD ADD MLOAD PUSH1 0x1 PUSH1 0x1 PUSH1 0xE0 SHL SUB NOT AND DUP7 PUSH2 0xCA4 SWAP1 SWAP2 SWAP1 PUSH4 0xFFFFFFFF AND JUMP JUMPDEST ISZERO PUSH2 0x58C JUMPI PUSH2 0x559 PUSH1 0x1 DUP4 PUSH2 0x1353 JUMP JUMPDEST SWAP2 POP PUSH1 0x0 PUSH1 0xE0 SHL DUP5 DUP3 DUP2 MLOAD DUP2 LT PUSH2 0x572 JUMPI PUSH2 0x572 PUSH2 0x133D JUMP JUMPDEST PUSH1 0x1 PUSH1 0x1 PUSH1 0xE0 SHL SUB NOT SWAP1 SWAP3 AND PUSH1 0x20 SWAP3 DUP4 MUL SWAP2 SWAP1 SWAP2 ADD SWAP1 SWAP2 ADD MSTORE JUMPDEST PUSH2 0x597 PUSH1 0x1 DUP3 PUSH2 0x132A JUMP JUMPDEST SWAP1 POP PUSH2 0x50B JUMP JUMPDEST POP DUP1 PUSH8 0xFFFFFFFFFFFFFFFF DUP2 GT ISZERO PUSH2 0x5B8 JUMPI PUSH2 0x5B8 PUSH2 0xEBA JUMP JUMPDEST PUSH1 0x40 MLOAD SWAP1 DUP1 DUP3 MSTORE DUP1 PUSH1 0x20 MUL PUSH1 0x20 ADD DUP3 ADD PUSH1 0x40 MSTORE DUP1 ISZERO PUSH2 0x5E1 JUMPI DUP2 PUSH1 0x20 ADD PUSH1 0x20 DUP3 MUL DUP1 CALLDATASIZE DUP4 CALLDATACOPY ADD SWAP1 POP JUMPDEST POP SWAP6 POP PUSH1 0x0 DUP1 JUMPDEST DUP4 DUP2 LT ISZERO PUSH2 0x682 JUMPI DUP5 MLOAD PUSH1 0x0 SWAP1 DUP7 SWAP1 DUP4 SWAP1 DUP2 LT PUSH2 0x607 JUMPI PUSH2 0x607 PUSH2 0x133D JUMP JUMPDEST PUSH1 0x20 MUL PUSH1 0x20 ADD ADD MLOAD PUSH1 0x1 PUSH1 0x1 PUSH1 0xE0 SHL SUB NOT AND EQ PUSH2 0x670 JUMPI DUP5 DUP2 DUP2 MLOAD DUP2 LT PUSH2 0x630 JUMPI PUSH2 0x630 PUSH2 0x133D JUMP JUMPDEST PUSH1 0x20 MUL PUSH1 0x20 ADD ADD MLOAD DUP9 DUP4 DUP1 PUSH2 0x644 SWAP1 PUSH2 0x1366 JUMP JUMPDEST SWAP5 POP DUP2 MLOAD DUP2 LT PUSH2 0x656 JUMPI PUSH2 0x656 PUSH2 0x133D JUMP JUMPDEST PUSH1 0x1 PUSH1 0x1 PUSH1 0xE0 SHL SUB NOT SWAP1 SWAP3 AND PUSH1 0x20 SWAP3 DUP4 MUL SWAP2 SWAP1 SWAP2 ADD SWAP1 SWAP2 ADD MSTORE JUMPDEST PUSH2 0x67B PUSH1 0x1 DUP3 PUSH2 0x132A JUMP JUMPDEST SWAP1 POP PUSH2 0x5E8 JUMP JUMPDEST POP PUSH2 0x68C DUP6 PUSH2 0xC9A JUMP JUMPDEST SWAP3 POP PUSH1 0x0 JUMPDEST DUP4 DUP2 LT ISZERO PUSH2 0x705 JUMPI PUSH1 0x1 PUSH1 0x1 PUSH1 0xA0 SHL SUB DUP10 AND PUSH1 0x0 SWAP1 DUP2 MSTORE PUSH1 0x2 DUP9 ADD PUSH1 0x20 MSTORE PUSH1 0x40 SWAP1 KECCAK256 PUSH2 0x6BD SWAP1 DUP3 PUSH2 0xCBC JUMP JUMPDEST DUP9 DUP4 PUSH2 0x6C8 DUP2 PUSH2 0x1366 JUMP JUMPDEST SWAP5 POP DUP2 MLOAD DUP2 LT PUSH2 0x6DA JUMPI PUSH2 0x6DA PUSH2 0x133D JUMP JUMPDEST PUSH1 0x1 PUSH1 0x1 PUSH1 0xE0 SHL SUB NOT SWAP1 SWAP3 AND PUSH1 0x20 SWAP3 DUP4 MUL SWAP2 SWAP1 SWAP2 ADD SWAP1 SWAP2 ADD MSTORE PUSH2 0x6FE PUSH1 0x1 DUP3 PUSH2 0x132A JUMP JUMPDEST SWAP1 POP PUSH2 0x691 JUMP JUMPDEST POP POP POP POP POP POP POP SWAP2 SWAP1 POP JUMP JUMPDEST PUSH1 0x60 PUSH1 0x0 PUSH32 0x1A3E4131826BB378AA43ABB34A33A366BC4A35B55AB18A884FA205B59285EC45 SWAP1 POP PUSH1 0x0 DUP2 PUSH1 0x0 ADD SWAP1 POP PUSH1 0x0 PUSH32 0x0 PUSH1 0x1 PUSH1 0x1 PUSH1 0xA0 SHL SUB AND PUSH4 0x6B86400E PUSH1 0x40 MLOAD DUP2 PUSH4 0xFFFFFFFF AND PUSH1 0xE0 SHL DUP2 MSTORE PUSH1 0x4 ADD PUSH1 0x0 PUSH1 0x40 MLOAD DUP1 DUP4 SUB DUP2 DUP7 GAS STATICCALL ISZERO DUP1 ISZERO PUSH2 0x7A0 JUMPI RETURNDATASIZE PUSH1 0x0 DUP1 RETURNDATACOPY RETURNDATASIZE PUSH1 0x0 REVERT JUMPDEST POP POP POP POP PUSH1 0x40 MLOAD RETURNDATASIZE PUSH1 0x0 DUP3 RETURNDATACOPY PUSH1 0x1F RETURNDATASIZE SWAP1 DUP2 ADD PUSH1 0x1F NOT AND DUP3 ADD PUSH1 0x40 MSTORE PUSH2 0x7C8 SWAP2 SWAP1 DUP2 ADD SWAP1 PUSH2 0x137F JUMP JUMPDEST SWAP1 POP PUSH1 0x0 PUSH2 0x7D5 DUP4 PUSH2 0xC9A JUMP JUMPDEST DUP3 MLOAD SWAP1 SWAP2 POP PUSH1 0x0 PUSH2 0x7E6 DUP3 DUP5 PUSH2 0x132A JUMP JUMPDEST SWAP1 POP PUSH1 0x0 JUMPDEST DUP4 DUP2 LT ISZERO PUSH2 0x8A2 JUMPI PUSH1 0x0 JUMPDEST DUP4 DUP2 LT ISZERO PUSH2 0x88F JUMPI DUP6 DUP2 DUP2 MLOAD DUP2 LT PUSH2 0x810 JUMPI PUSH2 0x810 PUSH2 0x133D JUMP JUMPDEST PUSH1 0x20 SWAP1 DUP2 MUL SWAP2 SWAP1 SWAP2 ADD ADD MLOAD MLOAD PUSH1 0x1 PUSH1 0x1 PUSH1 0xE0 SHL SUB NOT AND PUSH2 0x830 DUP9 DUP5 PUSH2 0xCBC JUMP JUMPDEST PUSH1 0x1 PUSH1 0x1 PUSH1 0xE0 SHL SUB NOT AND SUB PUSH2 0x87D JUMPI PUSH2 0x84A PUSH1 0x1 DUP5 PUSH2 0x1353 JUMP JUMPDEST SWAP3 POP PUSH1 0x0 PUSH1 0xE0 SHL DUP7 DUP3 DUP2 MLOAD DUP2 LT PUSH2 0x863 JUMPI PUSH2 0x863 PUSH2 0x133D JUMP JUMPDEST PUSH1 0x20 SWAP1 DUP2 MUL SWAP2 SWAP1 SWAP2 ADD ADD MLOAD PUSH1 0x1 PUSH1 0x1 PUSH1 0xE0 SHL SUB NOT SWAP1 SWAP2 AND SWAP1 MSTORE JUMPDEST PUSH2 0x888 PUSH1 0x1 DUP3 PUSH2 0x132A JUMP JUMPDEST SWAP1 POP PUSH2 0x7F6 JUMP JUMPDEST POP PUSH2 0x89B PUSH1 0x1 DUP3 PUSH2 0x132A JUMP JUMPDEST SWAP1 POP PUSH2 0x7EB JUMP JUMPDEST POP DUP1 PUSH8 0xFFFFFFFFFFFFFFFF DUP2 GT ISZERO PUSH2 0x8BC JUMPI PUSH2 0x8BC PUSH2 0xEBA JUMP JUMPDEST PUSH1 0x40 MLOAD SWAP1 DUP1 DUP3 MSTORE DUP1 PUSH1 0x20 MUL PUSH1 0x20 ADD DUP3 ADD PUSH1 0x40 MSTORE DUP1 ISZERO PUSH2 0x90C JUMPI DUP2 PUSH1 0x20 ADD JUMPDEST PUSH1 0x40 DUP1 MLOAD PUSH1 0x60 DUP1 DUP3 ADD DUP4 MSTORE PUSH1 0x0 DUP1 DUP4 MSTORE PUSH1 0x20 DUP4 ADD SWAP2 SWAP1 SWAP2 MSTORE SWAP2 DUP2 ADD SWAP2 SWAP1 SWAP2 MSTORE DUP2 MSTORE PUSH1 0x20 ADD SWAP1 PUSH1 0x1 SWAP1 SUB SWAP1 DUP2 PUSH2 0x8DA JUMPI SWAP1 POP JUMPDEST POP SWAP7 POP PUSH1 0x0 DUP1 JUMPDEST DUP4 DUP2 LT ISZERO PUSH2 0x9A4 JUMPI DUP6 MLOAD PUSH1 0x0 SWAP1 DUP8 SWAP1 DUP4 SWAP1 DUP2 LT PUSH2 0x932 JUMPI PUSH2 0x932 PUSH2 0x133D JUMP JUMPDEST PUSH1 0x20 MUL PUSH1 0x20 ADD ADD MLOAD PUSH1 0x0 ADD MLOAD PUSH1 0x1 PUSH1 0x1 PUSH1 0xE0 SHL SUB NOT AND EQ PUSH2 0x992 JUMPI DUP6 DUP2 DUP2 MLOAD DUP2 LT PUSH2 0x95F JUMPI PUSH2 0x95F PUSH2 0x133D JUMP JUMPDEST PUSH1 0x20 MUL PUSH1 0x20 ADD ADD MLOAD DUP10 DUP4 DUP2 MLOAD DUP2 LT PUSH2 0x979 JUMPI PUSH2 0x979 PUSH2 0x133D JUMP JUMPDEST PUSH1 0x20 SWAP1 DUP2 MUL SWAP2 SWAP1 SWAP2 ADD ADD MSTORE PUSH2 0x98F PUSH1 0x1 DUP4 PUSH2 0x132A JUMP JUMPDEST SWAP2 POP JUMPDEST PUSH2 0x99D PUSH1 0x1 DUP3 PUSH2 0x132A JUMP JUMPDEST SWAP1 POP PUSH2 0x913 JUMP JUMPDEST POP PUSH1 0x0 JUMPDEST DUP5 DUP2 LT ISZERO PUSH2 0xADE JUMPI PUSH1 0x3 DUP9 ADD PUSH1 0x0 PUSH2 0x9C0 DUP10 DUP5 PUSH2 0xCBC JUMP JUMPDEST PUSH1 0x1 PUSH1 0x1 PUSH1 0xE0 SHL SUB NOT SWAP1 DUP2 AND DUP3 MSTORE PUSH1 0x20 DUP1 DUP4 ADD SWAP4 SWAP1 SWAP4 MSTORE PUSH1 0x40 SWAP2 DUP3 ADD PUSH1 0x0 KECCAK256 DUP3 MLOAD PUSH1 0x60 DUP2 ADD SWAP1 SWAP4 MSTORE DUP1 SLOAD PUSH1 0xE0 SHL SWAP1 SWAP2 AND DUP3 MSTORE PUSH1 0x1 DUP2 ADD DUP1 SLOAD SWAP3 SWAP4 SWAP2 SWAP3 SWAP2 DUP5 ADD SWAP2 PUSH2 0xA09 SWAP1 PUSH2 0x14C0 JUMP JUMPDEST DUP1 PUSH1 0x1F ADD PUSH1 0x20 DUP1 SWAP2 DIV MUL PUSH1 0x20 ADD PUSH1 0x40 MLOAD SWAP1 DUP2 ADD PUSH1 0x40 MSTORE DUP1 SWAP3 SWAP2 SWAP1 DUP2 DUP2 MSTORE PUSH1 0x20 ADD DUP3 DUP1 SLOAD PUSH2 0xA35 SWAP1 PUSH2 0x14C0 JUMP JUMPDEST DUP1 ISZERO PUSH2 0xA82 JUMPI DUP1 PUSH1 0x1F LT PUSH2 0xA57 JUMPI PUSH2 0x100 DUP1 DUP4 SLOAD DIV MUL DUP4 MSTORE SWAP2 PUSH1 0x20 ADD SWAP2 PUSH2 0xA82 JUMP JUMPDEST DUP3 ADD SWAP2 SWAP1 PUSH1 0x0 MSTORE PUSH1 0x20 PUSH1 0x0 KECCAK256 SWAP1 JUMPDEST DUP2 SLOAD DUP2 MSTORE SWAP1 PUSH1 0x1 ADD SWAP1 PUSH1 0x20 ADD DUP1 DUP4 GT PUSH2 0xA65 JUMPI DUP3 SWAP1 SUB PUSH1 0x1F AND DUP3 ADD SWAP2 JUMPDEST POP POP POP SWAP2 DUP4 MSTORE POP POP PUSH1 0x2 SWAP2 SWAP1 SWAP2 ADD SLOAD PUSH1 0x1 PUSH1 0x1 PUSH1 0xA0 SHL SUB AND PUSH1 0x20 SWAP1 SWAP2 ADD MSTORE DUP10 MLOAD DUP11 SWAP1 DUP5 SWAP1 DUP2 LT PUSH2 0xAB4 JUMPI PUSH2 0xAB4 PUSH2 0x133D JUMP JUMPDEST PUSH1 0x20 SWAP1 DUP2 MUL SWAP2 SWAP1 SWAP2 ADD ADD MSTORE PUSH2 0xACA PUSH1 0x1 DUP4 PUSH2 0x132A JUMP JUMPDEST SWAP2 POP PUSH2 0xAD7 PUSH1 0x1 DUP3 PUSH2 0x132A JUMP JUMPDEST SWAP1 POP PUSH2 0x9A8 JUMP JUMPDEST POP POP POP POP POP POP POP POP SWAP1 JUMP JUMPDEST PUSH1 0x0 DUP1 PUSH2 0xAF5 DUP4 PUSH2 0x2F8 JUMP JUMPDEST SWAP1 POP PUSH1 0x1 PUSH1 0x1 PUSH1 0xA0 SHL SUB DUP2 AND PUSH2 0xB9C JUMPI PUSH1 0x40 MLOAD PUSH4 0x529051C5 PUSH1 0xE1 SHL DUP2 MSTORE PUSH1 0x1 PUSH1 0x1 PUSH1 0xE0 SHL SUB NOT DUP5 AND PUSH1 0x4 DUP3 ADD MSTORE PUSH32 0x0 PUSH1 0x1 PUSH1 0x1 PUSH1 0xA0 SHL SUB AND SWAP1 PUSH4 0xA520A38A SWAP1 PUSH1 0x24 ADD PUSH1 0x20 PUSH1 0x40 MLOAD DUP1 DUP4 SUB DUP2 DUP7 GAS STATICCALL ISZERO DUP1 ISZERO PUSH2 0xB73 JUMPI RETURNDATASIZE PUSH1 0x0 DUP1 RETURNDATACOPY RETURNDATASIZE PUSH1 0x0 REVERT JUMPDEST POP POP POP POP PUSH1 0x40 MLOAD RETURNDATASIZE PUSH1 0x1F NOT PUSH1 0x1F DUP3 ADD AND DUP3 ADD DUP1 PUSH1 0x40 MSTORE POP DUP2 ADD SWAP1 PUSH2 0xB97 SWAP2 SWAP1 PUSH2 0xE6A JUMP JUMPDEST PUSH2 0xB9E JUMP JUMPDEST DUP1 JUMPDEST SWAP4 SWAP3 POP POP POP JUMP JUMPDEST PUSH1 0x60 DUP2 PUSH8 0xFFFFFFFFFFFFFFFF DUP2 GT ISZERO PUSH2 0xBC0 JUMPI PUSH2 0xBC0 PUSH2 0xEBA JUMP JUMPDEST PUSH1 0x40 MLOAD SWAP1 DUP1 DUP3 MSTORE DUP1 PUSH1 0x20 MUL PUSH1 0x20 ADD DUP3 ADD PUSH1 0x40 MSTORE DUP1 ISZERO PUSH2 0xBF3 JUMPI DUP2 PUSH1 0x20 ADD JUMPDEST PUSH1 0x60 DUP2 MSTORE PUSH1 0x20 ADD SWAP1 PUSH1 0x1 SWAP1 SUB SWAP1 DUP2 PUSH2 0xBDE JUMPI SWAP1 POP JUMPDEST POP SWAP1 POP PUSH1 0x0 JUMPDEST DUP3 DUP2 LT ISZERO PUSH2 0xC93 JUMPI PUSH2 0xC63 ADDRESS DUP6 DUP6 DUP5 DUP2 DUP2 LT PUSH2 0xC17 JUMPI PUSH2 0xC17 PUSH2 0x133D JUMP JUMPDEST SWAP1 POP PUSH1 0x20 MUL DUP2 ADD SWAP1 PUSH2 0xC29 SWAP2 SWAP1 PUSH2 0x14FA JUMP JUMPDEST DUP1 DUP1 PUSH1 0x1F ADD PUSH1 0x20 DUP1 SWAP2 DIV MUL PUSH1 0x20 ADD PUSH1 0x40 MLOAD SWAP1 DUP2 ADD PUSH1 0x40 MSTORE DUP1 SWAP4 SWAP3 SWAP2 SWAP1 DUP2 DUP2 MSTORE PUSH1 0x20 ADD DUP4 DUP4 DUP1 DUP3 DUP5 CALLDATACOPY PUSH1 0x0 SWAP3 ADD SWAP2 SWAP1 SWAP2 MSTORE POP PUSH2 0xCC8 SWAP3 POP POP POP JUMP JUMPDEST DUP3 DUP3 DUP2 MLOAD DUP2 LT PUSH2 0xC75 JUMPI PUSH2 0xC75 PUSH2 0x133D JUMP JUMPDEST PUSH1 0x20 MUL PUSH1 0x20 ADD ADD DUP2 SWAP1 MSTORE POP DUP1 DUP1 PUSH2 0xC8B SWAP1 PUSH2 0x1366 JUMP JUMPDEST SWAP2 POP POP PUSH2 0xBF9 JUMP JUMPDEST POP SWAP3 SWAP2 POP POP JUMP JUMPDEST PUSH1 0x0 PUSH2 0x394 DUP3 SLOAD SWAP1 JUMP JUMPDEST PUSH1 0x0 DUP2 DUP2 MSTORE PUSH1 0x1 DUP4 ADD PUSH1 0x20 MSTORE PUSH1 0x40 DUP2 KECCAK256 SLOAD ISZERO ISZERO PUSH2 0xB9E JUMP JUMPDEST PUSH1 0x0 PUSH2 0xB9E DUP4 DUP4 PUSH2 0xCED JUMP JUMPDEST PUSH1 0x60 PUSH2 0xB9E DUP4 DUP4 PUSH1 0x40 MLOAD DUP1 PUSH1 0x60 ADD PUSH1 0x40 MSTORE DUP1 PUSH1 0x27 DUP2 MSTORE PUSH1 0x20 ADD PUSH2 0x15E0 PUSH1 0x27 SWAP2 CODECOPY PUSH2 0xD17 JUMP JUMPDEST PUSH1 0x0 DUP3 PUSH1 0x0 ADD DUP3 DUP2 SLOAD DUP2 LT PUSH2 0xD04 JUMPI PUSH2 0xD04 PUSH2 0x133D JUMP JUMPDEST SWAP1 PUSH1 0x0 MSTORE PUSH1 0x20 PUSH1 0x0 KECCAK256 ADD SLOAD SWAP1 POP SWAP3 SWAP2 POP POP JUMP JUMPDEST PUSH1 0x60 PUSH1 0x1 PUSH1 0x1 PUSH1 0xA0 SHL SUB DUP5 AND EXTCODESIZE PUSH2 0xD7F JUMPI PUSH1 0x40 MLOAD PUSH3 0x461BCD PUSH1 0xE5 SHL DUP2 MSTORE PUSH1 0x20 PUSH1 0x4 DUP3 ADD MSTORE PUSH1 0x26 PUSH1 0x24 DUP3 ADD MSTORE PUSH32 0x416464726573733A2064656C65676174652063616C6C20746F206E6F6E2D636F PUSH1 0x44 DUP3 ADD MSTORE PUSH6 0x1B9D1C9858DD PUSH1 0xD2 SHL PUSH1 0x64 DUP3 ADD MSTORE PUSH1 0x84 ADD PUSH2 0x3D7 JUMP JUMPDEST PUSH1 0x0 DUP1 DUP6 PUSH1 0x1 PUSH1 0x1 PUSH1 0xA0 SHL SUB AND DUP6 PUSH1 0x40 MLOAD PUSH2 0xD9A SWAP2 SWAP1 PUSH2 0x1548 JUMP JUMPDEST PUSH1 0x0 PUSH1 0x40 MLOAD DUP1 DUP4 SUB DUP2 DUP6 GAS DELEGATECALL SWAP2 POP POP RETURNDATASIZE DUP1 PUSH1 0x0 DUP2 EQ PUSH2 0xDD5 JUMPI PUSH1 0x40 MLOAD SWAP2 POP PUSH1 0x1F NOT PUSH1 0x3F RETURNDATASIZE ADD AND DUP3 ADD PUSH1 0x40 MSTORE RETURNDATASIZE DUP3 MSTORE RETURNDATASIZE PUSH1 0x0 PUSH1 0x20 DUP5 ADD RETURNDATACOPY PUSH2 0xDDA JUMP JUMPDEST PUSH1 0x60 SWAP2 POP JUMPDEST POP SWAP2 POP SWAP2 POP PUSH2 0xDEA DUP3 DUP3 DUP7 PUSH2 0xDF4 JUMP JUMPDEST SWAP7 SWAP6 POP POP POP POP POP POP JUMP JUMPDEST PUSH1 0x60 DUP4 ISZERO PUSH2 0xE03 JUMPI POP DUP2 PUSH2 0xB9E JUMP JUMPDEST DUP3 MLOAD ISZERO PUSH2 0xE13 JUMPI DUP3 MLOAD DUP1 DUP5 PUSH1 0x20 ADD REVERT JUMPDEST DUP2 PUSH1 0x40 MLOAD PUSH3 0x461BCD PUSH1 0xE5 SHL DUP2 MSTORE PUSH1 0x4 ADD PUSH2 0x3D7 SWAP2 SWAP1 PUSH2 0x15CC JUMP JUMPDEST DUP1 DUP3 GT ISZERO PUSH2 0xE41 JUMPI PUSH1 0x0 DUP2 SSTORE PUSH1 0x1 ADD PUSH2 0xE2D JUMP JUMPDEST POP SWAP1 JUMP JUMPDEST PUSH1 0x1 PUSH1 0x1 PUSH1 0xA0 SHL SUB DUP2 AND DUP2 EQ PUSH2 0x3E0 JUMPI PUSH1 0x0 DUP1 REVERT JUMPDEST DUP1 MLOAD PUSH2 0xE65 DUP2 PUSH2 0xE45 JUMP JUMPDEST SWAP2 SWAP1 POP JUMP JUMPDEST PUSH1 0x0 PUSH1 0x20 DUP3 DUP5 SUB SLT ISZERO PUSH2 0xE7C JUMPI PUSH1 0x0 DUP1 REVERT JUMPDEST DUP2 MLOAD PUSH2 0xB9E DUP2 PUSH2 0xE45 JUMP JUMPDEST PUSH1 0x1 PUSH1 0x1 PUSH1 0xE0 SHL SUB NOT DUP2 AND DUP2 EQ PUSH2 0x3E0 JUMPI PUSH1 0x0 DUP1 REVERT JUMPDEST PUSH1 0x0 PUSH1 0x20 DUP3 DUP5 SUB SLT ISZERO PUSH2 0xEAF JUMPI PUSH1 0x0 DUP1 REVERT JUMPDEST DUP2 CALLDATALOAD PUSH2 0xB9E DUP2 PUSH2 0xE87 JUMP JUMPDEST PUSH4 0x4E487B71 PUSH1 0xE0 SHL PUSH1 0x0 MSTORE PUSH1 0x41 PUSH1 0x4 MSTORE PUSH1 0x24 PUSH1 0x0 REVERT JUMPDEST PUSH1 0x40 MLOAD PUSH1 0x60 DUP2 ADD PUSH8 0xFFFFFFFFFFFFFFFF DUP2 GT DUP3 DUP3 LT OR ISZERO PUSH2 0xEF3 JUMPI PUSH2 0xEF3 PUSH2 0xEBA JUMP JUMPDEST PUSH1 0x40 MSTORE SWAP1 JUMP JUMPDEST PUSH1 0x40 MLOAD PUSH1 0x1F DUP3 ADD PUSH1 0x1F NOT AND DUP2 ADD PUSH8 0xFFFFFFFFFFFFFFFF DUP2 GT DUP3 DUP3 LT OR ISZERO PUSH2 0xF22 JUMPI PUSH2 0xF22 PUSH2 0xEBA JUMP JUMPDEST PUSH1 0x40 MSTORE SWAP2 SWAP1 POP JUMP JUMPDEST PUSH1 0x0 PUSH8 0xFFFFFFFFFFFFFFFF DUP3 GT ISZERO PUSH2 0xF44 JUMPI PUSH2 0xF44 PUSH2 0xEBA JUMP JUMPDEST POP PUSH1 0x1F ADD PUSH1 0x1F NOT AND PUSH1 0x20 ADD SWAP1 JUMP JUMPDEST DUP1 CALLDATALOAD PUSH2 0xE65 DUP2 PUSH2 0xE45 JUMP JUMPDEST PUSH1 0x0 PUSH1 0x20 DUP1 DUP4 DUP6 SUB SLT ISZERO PUSH2 0xF70 JUMPI PUSH1 0x0 DUP1 REVERT JUMPDEST DUP3 CALLDATALOAD PUSH8 0xFFFFFFFFFFFFFFFF DUP1 DUP3 GT ISZERO PUSH2 0xF88 JUMPI PUSH1 0x0 DUP1 REVERT JUMPDEST SWAP1 DUP5 ADD SWAP1 PUSH1 0x60 DUP3 DUP8 SUB SLT ISZERO PUSH2 0xF9C JUMPI PUSH1 0x0 DUP1 REVERT JUMPDEST PUSH2 0xFA4 PUSH2 0xED0 JUMP JUMPDEST DUP3 CALLDATALOAD PUSH2 0xFAF DUP2 PUSH2 0xE87 JUMP JUMPDEST DUP2 MSTORE DUP3 DUP5 ADD CALLDATALOAD DUP3 DUP2 GT ISZERO PUSH2 0xFC2 JUMPI PUSH1 0x0 DUP1 REVERT JUMPDEST DUP4 ADD SWAP2 POP PUSH1 0x1F DUP3 ADD DUP8 SGT PUSH2 0xFD5 JUMPI PUSH1 0x0 DUP1 REVERT JUMPDEST DUP2 CALLDATALOAD PUSH2 0xFE8 PUSH2 0xFE3 DUP3 PUSH2 0xF2A JUMP JUMPDEST PUSH2 0xEF9 JUMP JUMPDEST DUP2 DUP2 MSTORE DUP9 DUP7 DUP4 DUP7 ADD ADD GT ISZERO PUSH2 0xFFC JUMPI PUSH1 0x0 DUP1 REVERT JUMPDEST DUP2 DUP7 DUP6 ADD DUP8 DUP4 ADD CALLDATACOPY PUSH1 0x0 DUP7 DUP4 DUP4 ADD ADD MSTORE DUP1 DUP7 DUP5 ADD MSTORE POP POP PUSH2 0x101F PUSH1 0x40 DUP5 ADD PUSH2 0xF52 JUMP JUMPDEST PUSH1 0x40 DUP3 ADD MSTORE SWAP7 SWAP6 POP POP POP POP POP POP JUMP JUMPDEST PUSH1 0x0 PUSH1 0x20 DUP3 DUP5 SUB SLT ISZERO PUSH2 0x1040 JUMPI PUSH1 0x0 DUP1 REVERT JUMPDEST DUP2 CALLDATALOAD PUSH2 0xB9E DUP2 PUSH2 0xE45 JUMP JUMPDEST PUSH1 0x20 DUP1 DUP3 MSTORE DUP3 MLOAD DUP3 DUP3 ADD DUP2 SWAP1 MSTORE PUSH1 0x0 SWAP2 SWAP1 DUP5 DUP3 ADD SWAP1 PUSH1 0x40 DUP6 ADD SWAP1 DUP5 JUMPDEST DUP2 DUP2 LT ISZERO PUSH2 0x108D JUMPI DUP4 MLOAD PUSH1 0x1 PUSH1 0x1 PUSH1 0xE0 SHL SUB NOT AND DUP4 MSTORE SWAP3 DUP5 ADD SWAP3 SWAP2 DUP5 ADD SWAP2 PUSH1 0x1 ADD PUSH2 0x1067 JUMP JUMPDEST POP SWAP1 SWAP7 SWAP6 POP POP POP POP POP POP JUMP JUMPDEST PUSH1 0x0 JUMPDEST DUP4 DUP2 LT ISZERO PUSH2 0x10B4 JUMPI DUP2 DUP2 ADD MLOAD DUP4 DUP3 ADD MSTORE PUSH1 0x20 ADD PUSH2 0x109C JUMP JUMPDEST POP POP PUSH1 0x0 SWAP2 ADD MSTORE JUMP JUMPDEST PUSH1 0x0 DUP2 MLOAD DUP1 DUP5 MSTORE PUSH2 0x10D5 DUP2 PUSH1 0x20 DUP7 ADD PUSH1 0x20 DUP7 ADD PUSH2 0x1099 JUMP JUMPDEST PUSH1 0x1F ADD PUSH1 0x1F NOT AND SWAP3 SWAP1 SWAP3 ADD PUSH1 0x20 ADD SWAP3 SWAP2 POP POP JUMP JUMPDEST PUSH1 0x0 PUSH1 0x20 DUP1 DUP4 ADD DUP2 DUP5 MSTORE DUP1 DUP6 MLOAD DUP1 DUP4 MSTORE PUSH1 0x40 SWAP3 POP DUP3 DUP7 ADD SWAP2 POP DUP3 DUP2 PUSH1 0x5 SHL DUP8 ADD ADD DUP5 DUP9 ADD PUSH1 0x0 JUMPDEST DUP4 DUP2 LT ISZERO PUSH2 0x1171 JUMPI DUP9 DUP4 SUB PUSH1 0x3F NOT ADD DUP6 MSTORE DUP2 MLOAD DUP1 MLOAD PUSH1 0x1 PUSH1 0x1 PUSH1 0xE0 SHL SUB NOT AND DUP5 MSTORE DUP8 DUP2 ADD MLOAD PUSH1 0x60 DUP10 DUP7 ADD DUP2 SWAP1 MSTORE SWAP1 PUSH2 0x114A DUP3 DUP8 ADD DUP3 PUSH2 0x10BD JUMP JUMPDEST SWAP3 DUP10 ADD MLOAD PUSH1 0x1 PUSH1 0x1 PUSH1 0xA0 SHL SUB AND SWAP6 DUP10 ADD SWAP6 SWAP1 SWAP6 MSTORE POP SWAP5 DUP8 ADD SWAP5 SWAP3 POP SWAP1 DUP7 ADD SWAP1 PUSH1 0x1 ADD PUSH2 0x1110 JUMP JUMPDEST POP SWAP1 SWAP9 SWAP8 POP POP POP POP POP POP POP POP JUMP JUMPDEST PUSH1 0x0 DUP1 PUSH1 0x20 DUP4 DUP6 SUB SLT ISZERO PUSH2 0x1192 JUMPI PUSH1 0x0 DUP1 REVERT JUMPDEST DUP3 CALLDATALOAD PUSH8 0xFFFFFFFFFFFFFFFF DUP1 DUP3 GT ISZERO PUSH2 0x11AA JUMPI PUSH1 0x0 DUP1 REVERT JUMPDEST DUP2 DUP6 ADD SWAP2 POP DUP6 PUSH1 0x1F DUP4 ADD SLT PUSH2 0x11BE JUMPI PUSH1 0x0 DUP1 REVERT JUMPDEST DUP2 CALLDATALOAD DUP2 DUP2 GT ISZERO PUSH2 0x11CD JUMPI PUSH1 0x0 DUP1 REVERT JUMPDEST DUP7 PUSH1 0x20 DUP3 PUSH1 0x5 SHL DUP6 ADD ADD GT ISZERO PUSH2 0x11E2 JUMPI PUSH1 0x0 DUP1 REVERT JUMPDEST PUSH1 0x20 SWAP3 SWAP1 SWAP3 ADD SWAP7 SWAP2 SWAP6 POP SWAP1 SWAP4 POP POP POP POP JUMP JUMPDEST PUSH1 0x0 PUSH1 0x20 DUP1 DUP4 ADD DUP2 DUP5 MSTORE DUP1 DUP6 MLOAD DUP1 DUP4 MSTORE PUSH1 0x40 DUP7 ADD SWAP2 POP PUSH1 0x40 DUP2 PUSH1 0x5 SHL DUP8 ADD ADD SWAP3 POP DUP4 DUP8 ADD PUSH1 0x0 JUMPDEST DUP3 DUP2 LT ISZERO PUSH2 0x1249 JUMPI PUSH1 0x3F NOT DUP9 DUP7 SUB ADD DUP5 MSTORE PUSH2 0x1237 DUP6 DUP4 MLOAD PUSH2 0x10BD JUMP JUMPDEST SWAP5 POP SWAP3 DUP6 ADD SWAP3 SWAP1 DUP6 ADD SWAP1 PUSH1 0x1 ADD PUSH2 0x121B JUMP JUMPDEST POP SWAP3 SWAP8 SWAP7 POP POP POP POP POP POP POP JUMP JUMPDEST PUSH1 0x0 PUSH8 0xFFFFFFFFFFFFFFFF DUP3 GT ISZERO PUSH2 0x1270 JUMPI PUSH2 0x1270 PUSH2 0xEBA JUMP JUMPDEST POP PUSH1 0x5 SHL PUSH1 0x20 ADD SWAP1 JUMP JUMPDEST PUSH1 0x0 PUSH1 0x20 DUP1 DUP4 DUP6 SUB SLT ISZERO PUSH2 0x128D JUMPI PUSH1 0x0 DUP1 REVERT JUMPDEST DUP3 MLOAD PUSH8 0xFFFFFFFFFFFFFFFF DUP2 GT ISZERO PUSH2 0x12A4 JUMPI PUSH1 0x0 DUP1 REVERT JUMPDEST DUP4 ADD PUSH1 0x1F DUP2 ADD DUP6 SGT PUSH2 0x12B5 JUMPI PUSH1 0x0 DUP1 REVERT JUMPDEST DUP1 MLOAD PUSH2 0x12C3 PUSH2 0xFE3 DUP3 PUSH2 0x1256 JUMP JUMPDEST DUP2 DUP2 MSTORE PUSH1 0x5 SWAP2 SWAP1 SWAP2 SHL DUP3 ADD DUP4 ADD SWAP1 DUP4 DUP2 ADD SWAP1 DUP8 DUP4 GT ISZERO PUSH2 0x12E2 JUMPI PUSH1 0x0 DUP1 REVERT JUMPDEST SWAP3 DUP5 ADD SWAP3 JUMPDEST DUP3 DUP5 LT ISZERO PUSH2 0x1309 JUMPI DUP4 MLOAD PUSH2 0x12FA DUP2 PUSH2 0xE87 JUMP JUMPDEST DUP3 MSTORE SWAP3 DUP5 ADD SWAP3 SWAP1 DUP5 ADD SWAP1 PUSH2 0x12E7 JUMP JUMPDEST SWAP8 SWAP7 POP POP POP POP POP POP POP JUMP JUMPDEST PUSH4 0x4E487B71 PUSH1 0xE0 SHL PUSH1 0x0 MSTORE PUSH1 0x11 PUSH1 0x4 MSTORE PUSH1 0x24 PUSH1 0x0 REVERT JUMPDEST DUP1 DUP3 ADD DUP1 DUP3 GT ISZERO PUSH2 0x394 JUMPI PUSH2 0x394 PUSH2 0x1314 JUMP JUMPDEST PUSH4 0x4E487B71 PUSH1 0xE0 SHL PUSH1 0x0 MSTORE PUSH1 0x32 PUSH1 0x4 MSTORE PUSH1 0x24 PUSH1 0x0 REVERT JUMPDEST DUP2 DUP2 SUB DUP2 DUP2 GT ISZERO PUSH2 0x394 JUMPI PUSH2 0x394 PUSH2 0x1314 JUMP JUMPDEST PUSH1 0x0 PUSH1 0x1 DUP3 ADD PUSH2 0x1378 JUMPI PUSH2 0x1378 PUSH2 0x1314 JUMP JUMPDEST POP PUSH1 0x1 ADD SWAP1 JUMP JUMPDEST PUSH1 0x0 PUSH1 0x20 DUP1 DUP4 DUP6 SUB SLT ISZERO PUSH2 0x1392 JUMPI PUSH1 0x0 DUP1 REVERT JUMPDEST DUP3 MLOAD PUSH8 0xFFFFFFFFFFFFFFFF DUP1 DUP3 GT ISZERO PUSH2 0x13AA JUMPI PUSH1 0x0 DUP1 REVERT JUMPDEST DUP2 DUP6 ADD SWAP2 POP DUP6 PUSH1 0x1F DUP4 ADD SLT PUSH2 0x13BE JUMPI PUSH1 0x0 DUP1 REVERT JUMPDEST DUP2 MLOAD PUSH2 0x13CC PUSH2 0xFE3 DUP3 PUSH2 0x1256 JUMP JUMPDEST DUP2 DUP2 MSTORE PUSH1 0x5 SWAP2 SWAP1 SWAP2 SHL DUP4 ADD DUP5 ADD SWAP1 DUP5 DUP2 ADD SWAP1 DUP9 DUP4 GT ISZERO PUSH2 0x13EB JUMPI PUSH1 0x0 DUP1 REVERT JUMPDEST DUP6 DUP6 ADD JUMPDEST DUP4 DUP2 LT ISZERO PUSH2 0x14B3 JUMPI DUP1 MLOAD DUP6 DUP2 GT ISZERO PUSH2 0x1406 JUMPI PUSH1 0x0 DUP1 REVERT JUMPDEST DUP7 ADD PUSH1 0x60 DUP2 DUP13 SUB PUSH1 0x1F NOT ADD SLT ISZERO PUSH2 0x141D JUMPI PUSH1 0x0 DUP1 DUP2 REVERT JUMPDEST PUSH2 0x1425 PUSH2 0xED0 JUMP JUMPDEST DUP9 DUP3 ADD MLOAD PUSH2 0x1432 DUP2 PUSH2 0xE87 JUMP JUMPDEST DUP2 MSTORE PUSH1 0x40 DUP3 DUP2 ADD MLOAD DUP9 DUP2 GT ISZERO PUSH2 0x1448 JUMPI PUSH1 0x0 DUP1 DUP2 REVERT JUMPDEST DUP4 ADD PUSH1 0x3F DUP2 ADD DUP15 SGT PUSH2 0x145A JUMPI PUSH1 0x0 DUP1 DUP2 REVERT JUMPDEST DUP11 DUP2 ADD MLOAD PUSH2 0x146A PUSH2 0xFE3 DUP3 PUSH2 0xF2A JUMP JUMPDEST DUP2 DUP2 MSTORE DUP16 DUP5 DUP4 DUP6 ADD ADD GT ISZERO PUSH2 0x147F JUMPI PUSH1 0x0 DUP1 DUP2 REVERT JUMPDEST PUSH2 0x148E DUP3 DUP15 DUP4 ADD DUP7 DUP7 ADD PUSH2 0x1099 JUMP JUMPDEST DUP5 DUP14 ADD MSTORE POP PUSH2 0x14A1 SWAP1 POP PUSH1 0x60 DUP5 ADD PUSH2 0xE5A JUMP JUMPDEST SWAP1 DUP3 ADD MSTORE DUP5 MSTORE POP SWAP2 DUP7 ADD SWAP2 DUP7 ADD PUSH2 0x13EF JUMP JUMPDEST POP SWAP9 SWAP8 POP POP POP POP POP POP POP POP JUMP JUMPDEST PUSH1 0x1 DUP2 DUP2 SHR SWAP1 DUP3 AND DUP1 PUSH2 0x14D4 JUMPI PUSH1 0x7F DUP3 AND SWAP2 POP JUMPDEST PUSH1 0x20 DUP3 LT DUP2 SUB PUSH2 0x14F4 JUMPI PUSH4 0x4E487B71 PUSH1 0xE0 SHL PUSH1 0x0 MSTORE PUSH1 0x22 PUSH1 0x4 MSTORE PUSH1 0x24 PUSH1 0x0 REVERT JUMPDEST POP SWAP2 SWAP1 POP JUMP JUMPDEST PUSH1 0x0 DUP1 DUP4 CALLDATALOAD PUSH1 0x1E NOT DUP5 CALLDATASIZE SUB ADD DUP2 SLT PUSH2 0x1511 JUMPI PUSH1 0x0 DUP1 REVERT JUMPDEST DUP4 ADD DUP1 CALLDATALOAD SWAP2 POP PUSH8 0xFFFFFFFFFFFFFFFF DUP3 GT ISZERO PUSH2 0x152C JUMPI PUSH1 0x0 DUP1 REVERT JUMPDEST PUSH1 0x20 ADD SWAP2 POP CALLDATASIZE DUP2 SWAP1 SUB DUP3 SGT ISZERO PUSH2 0x1541 JUMPI PUSH1 0x0 DUP1 REVERT JUMPDEST SWAP3 POP SWAP3 SWAP1 POP JUMP JUMPDEST PUSH1 0x0 DUP3 MLOAD PUSH2 0x155A DUP2 DUP5 PUSH1 0x20 DUP8 ADD PUSH2 0x1099 JUMP JUMPDEST SWAP2 SWAP1 SWAP2 ADD SWAP3 SWAP2 POP POP JUMP JUMPDEST DUP2 DUP2 LT ISZERO PUSH2 0x1577 JUMPI DUP3 DUP2 SSTORE PUSH1 0x1 ADD PUSH2 0x1564 JUMP JUMPDEST POP POP POP POP POP POP JUMP JUMPDEST DUP3 DUP2 LT ISZERO PUSH2 0x159E JUMPI DUP9 DUP7 ADD MLOAD DUP3 SSTORE SWAP5 DUP5 ADD SWAP5 PUSH1 0x1 SWAP1 SWAP2 ADD SWAP1 DUP5 ADD PUSH2 0x157F JUMP JUMPDEST POP DUP6 DUP3 LT ISZERO PUSH2 0x15BC JUMPI DUP8 DUP6 ADD MLOAD PUSH1 0x0 NOT PUSH1 0x3 DUP9 SWAP1 SHL PUSH1 0xF8 AND SHR NOT AND DUP2 SSTORE JUMPDEST POP POP POP POP POP PUSH1 0x1 SWAP1 DUP2 SHL ADD SWAP1 SSTORE POP JUMP JUMPDEST PUSH1 0x20 DUP2 MSTORE PUSH1 0x0 PUSH2 0xB9E PUSH1 0x20 DUP4 ADD DUP5 PUSH2 0x10BD JUMP INVALID COINBASE PUSH5 0x6472657373 GASPRICE KECCAK256 PUSH13 0x6F772D6C6576656C2064656C65 PUSH8 0x6174652063616C6C KECCAK256 PUSH7 0x61696C6564A264 PUSH10 0x70667358221220974151 EXTCODECOPY ADD 0x4D 0xAD SDIV PUSH29 0x40C93AB68B89CA613F85CCCF89CACB51900EB427710B3764736F6C6343 STOP ADDMOD GT STOP CALLER "},"methodIdentifiers":{"_getPluginForFunction(bytes4)":"c511f8fb","addPlugin((bytes4,string,address))":"1ab6b705","getAllFunctionsOfPlugin(address)":"5c573f2e","getAllPlugins()":"6b86400e","getPluginForFunction(bytes4)":"a520a38a","multicall(bytes[])":"ac9650d8","pluginMap()":"b48912da","removePlugin(bytes4)":"a5342fdf","supportsInterface(bytes4)":"01ffc9a7","updatePlugin((bytes4,string,address))":"4cb5d8fd"}}}}}