{"contracts/dependencies/PermissionsEnumerableLogic.sol":{"PermissionsEnumerableLogic":{"abi":[{"anonymous":false,"inputs":[{"indexed":true,"internalType":"bytes32","name":"role","type":"bytes32"},{"indexed":true,"internalType":"bytes32","name":"previousAdminRole","type":"bytes32"},{"indexed":true,"internalType":"bytes32","name":"newAdminRole","type":"bytes32"}],"name":"RoleAdminChanged","type":"event"},{"anonymous":false,"inputs":[{"indexed":true,"internalType":"bytes32","name":"role","type":"bytes32"},{"indexed":true,"internalType":"address","name":"account","type":"address"},{"indexed":true,"internalType":"address","name":"sender","type":"address"}],"name":"RoleGranted","type":"event"},{"anonymous":false,"inputs":[{"indexed":true,"internalType":"bytes32","name":"role","type":"bytes32"},{"indexed":true,"internalType":"address","name":"account","type":"address"},{"indexed":true,"internalType":"address","name":"sender","type":"address"}],"name":"RoleRevoked","type":"event"},{"inputs":[],"name":"DEFAULT_ADMIN_ROLE","outputs":[{"internalType":"bytes32","name":"","type":"bytes32"}],"stateMutability":"view","type":"function"},{"inputs":[{"internalType":"bytes32","name":"role","type":"bytes32"}],"name":"getRoleAdmin","outputs":[{"internalType":"bytes32","name":"","type":"bytes32"}],"stateMutability":"view","type":"function"},{"inputs":[{"internalType":"bytes32","name":"role","type":"bytes32"},{"internalType":"uint256","name":"index","type":"uint256"}],"name":"getRoleMember","outputs":[{"internalType":"address","name":"member","type":"address"}],"stateMutability":"view","type":"function"},{"inputs":[{"internalType":"bytes32","name":"role","type":"bytes32"}],"name":"getRoleMemberCount","outputs":[{"internalType":"uint256","name":"count","type":"uint256"}],"stateMutability":"view","type":"function"},{"inputs":[{"internalType":"bytes32","name":"role","type":"bytes32"},{"internalType":"address","name":"account","type":"address"}],"name":"grantRole","outputs":[],"stateMutability":"nonpayable","type":"function"},{"inputs":[{"internalType":"bytes32","name":"role","type":"bytes32"},{"internalType":"address","name":"account","type":"address"}],"name":"hasRole","outputs":[{"internalType":"bool","name":"","type":"bool"}],"stateMutability":"view","type":"function"},{"inputs":[{"internalType":"bytes32","name":"role","type":"bytes32"},{"internalType":"address","name":"account","type":"address"}],"name":"hasRoleWithSwitch","outputs":[{"internalType":"bool","name":"","type":"bool"}],"stateMutability":"view","type":"function"},{"inputs":[{"internalType":"bytes32","name":"role","type":"bytes32"},{"internalType":"address","name":"account","type":"address"}],"name":"renounceRole","outputs":[],"stateMutability":"nonpayable","type":"function"},{"inputs":[{"internalType":"bytes32","name":"role","type":"bytes32"},{"internalType":"address","name":"account","type":"address"}],"name":"revokeRole","outputs":[],"stateMutability":"nonpayable","type":"function"}],"evm":{"bytecode":{"linkReferences":{},"object":"608060405234801561001057600080fd5b50610b86806100206000396000f3fe608060405234801561001057600080fd5b50600436106100935760003560e01c806391d148541161006657806391d148541461013d578063a217fddf14610160578063a32fa5b314610168578063ca15c8731461017b578063d547741f1461018e57600080fd5b8063248a9ca3146100985780632f2ff15d146100ea57806336568abe146100ff5780639010d07c14610112575b600080fd5b6100d76100a6366004610952565b60009081527fd0ebebe8e6445c62babf8fef767eb39f1002bb957bb5b83258275a4e46428ed6602052604090205490565b6040519081526020015b60405180910390f35b6100fd6100f836600461096b565b6101a1565b005b6100fd61010d36600461096b565b61026e565b6101256101203660046109a7565b6102d4565b6040516001600160a01b0390911681526020016100e1565b61015061014b36600461096b565b6103d0565b60405190151581526020016100e1565b6100d7600081565b61015061017636600461096b565b610408565b6100d7610189366004610952565b61046a565b6100fd61019c36600461096b565b610501565b60008281527fd0ebebe8e6445c62babf8fef767eb39f1002bb957bb5b83258275a4e46428ed66020526040902054600080516020610b11833981519152906101e99033610553565b6000838152602082815260408083206001600160a01b038616845290915290205460ff161561025f5760405162461bcd60e51b815260206004820152601d60248201527f43616e206f6e6c79206772616e7420746f206e6f6e20686f6c6465727300000060448201526064015b60405180910390fd5b61026983836105e1565b505050565b336001600160a01b038216146102c65760405162461bcd60e51b815260206004820152601a60248201527f43616e206f6e6c792072656e6f756e636520666f722073656c660000000000006044820152606401610256565b6102d082826105f5565b5050565b6000828152600080516020610b318339815191526020819052604082205482805b828110156103c5576000878152602085815260408083208484526001019091529020546001600160a01b0316156103705785820361035e576000878152602094855260408082209282526001909201909452909220546001600160a01b031692506103ca915050565b6103696001836109df565b91506103b3565b61037b8760006103d0565b80156103a0575060008781526020858152604080832083805260020190915290205481145b156103b3576103b06001836109df565b91505b6103be6001826109df565b90506102f5565b505050505b92915050565b6000918252600080516020610b11833981519152602090815260408084206001600160a01b0393909316845291905290205460ff1690565b6000828152600080516020610b118339815191526020818152604080842084805290915282205460ff16610460576000848152602091825260408082206001600160a01b0386168352909252205460ff1690506103ca565b5060019392505050565b6000818152600080516020610b3183398151915260208190526040822054825b818110156104db576000858152602084815260408083208484526001019091529020546001600160a01b0316156104c9576104c66001856109df565b93505b6104d46001826109df565b905061048a565b506104e78460006103d0565b156104fa576104f76001846109df565b92505b5050919050565b60008281527fd0ebebe8e6445c62babf8fef767eb39f1002bb957bb5b83258275a4e46428ed66020526040902054600080516020610b11833981519152906105499033610553565b61026983836105f5565b6000828152600080516020610b11833981519152602081815260408084206001600160a01b03861685529091529091205460ff166102695761059f826001600160a01b03166014610659565b6105aa846020610659565b6040516020016105bb929190610a16565b60408051601f198184030181529082905262461bcd60e51b825261025691600401610a83565b6105eb82826107fc565b6102d08282610866565b6105ff82826108e2565b6000828152600080516020610b31833981519152602090815260408083206001600160a01b03851680855260028201808552838620805487526001909301855292852080546001600160a01b031916905584529152555050565b60606000610668836002610ab6565b6106739060026109df565b67ffffffffffffffff81111561068b5761068b610acd565b6040519080825280601f01601f1916602001820160405280156106b5576020820181803683370190505b509050600360fc1b816000815181106106d0576106d0610ae3565b60200101906001600160f81b031916908160001a905350600f60fb1b816001815181106106ff576106ff610ae3565b60200101906001600160f81b031916908160001a9053506000610723846002610ab6565b61072e9060016109df565b90505b60018111156107a6576f181899199a1a9b1b9c1cb0b131b232b360811b85600f166010811061076257610762610ae3565b1a60f81b82828151811061077857610778610ae3565b60200101906001600160f81b031916908160001a90535060049490941c9361079f81610af9565b9050610731565b5083156107f55760405162461bcd60e51b815260206004820181905260248201527f537472696e67733a20686578206c656e67746820696e73756666696369656e746044820152606401610256565b9392505050565b6000828152600080516020610b11833981519152602081815260408084206001600160a01b0386168086529252808420805460ff19166001179055519192339286917f2f8788117e7eff1d82e926ec794901d17c78024a50270940304540a733656f0d91a4505050565b6000828152600080516020610b31833981519152602081905260408220805491926001919061089583856109df565b909155505060009384526020918252604080852082865260018101845281862080546001600160a01b039096166001600160a01b0319909616861790559385526002909301909152912055565b600080516020610b118339815191526108fb8383610553565b6000838152602082815260408083206001600160a01b0386168085529252808320805460ff1916905551339286917ff6391f5c32d9c69d2a47ea670b442974b53935d1edc7fd64eb21e047a839171b9190a4505050565b60006020828403121561096457600080fd5b5035919050565b6000806040838503121561097e57600080fd5b8235915060208301356001600160a01b038116811461099c57600080fd5b809150509250929050565b600080604083850312156109ba57600080fd5b50508035926020909101359150565b634e487b7160e01b600052601160045260246000fd5b808201808211156103ca576103ca6109c9565b60005b83811015610a0d5781810151838201526020016109f5565b50506000910152565b7402832b936b4b9b9b4b7b7399d1030b1b1b7bab73a1605d1b815260008351610a468160158501602088016109f2565b7001034b99036b4b9b9b4b733903937b6329607d1b6015918401918201528351610a778160268401602088016109f2565b01602601949350505050565b6020815260008251806020840152610aa28160408501602087016109f2565b601f01601f19169190910160400192915050565b80820281158282048414176103ca576103ca6109c9565b634e487b7160e01b600052604160045260246000fd5b634e487b7160e01b600052603260045260246000fd5b600081610b0857610b086109c9565b50600019019056fed0ebebe8e6445c62babf8fef767eb39f1002bb957bb5b83258275a4e46428ed50c4ba382c0009cf238e4c1ca1a52f51c61e6248a70bdfb34e5ed49d5578a5c0ca264697066735822122071c474d62d62c7a3158e1c5f84c22d2c04179ce156cf4e43e0733b7475e9fd9464736f6c63430008110033","opcodes":"PUSH1 0x80 PUSH1 0x40 MSTORE CALLVALUE DUP1 ISZERO PUSH2 0x10 JUMPI PUSH1 0x0 DUP1 REVERT JUMPDEST POP PUSH2 0xB86 DUP1 PUSH2 0x20 PUSH1 0x0 CODECOPY PUSH1 0x0 RETURN INVALID PUSH1 0x80 PUSH1 0x40 MSTORE CALLVALUE DUP1 ISZERO PUSH2 0x10 JUMPI PUSH1 0x0 DUP1 REVERT JUMPDEST POP PUSH1 0x4 CALLDATASIZE LT PUSH2 0x93 JUMPI PUSH1 0x0 CALLDATALOAD PUSH1 0xE0 SHR DUP1 PUSH4 0x91D14854 GT PUSH2 0x66 JUMPI DUP1 PUSH4 0x91D14854 EQ PUSH2 0x13D JUMPI DUP1 PUSH4 0xA217FDDF EQ PUSH2 0x160 JUMPI DUP1 PUSH4 0xA32FA5B3 EQ PUSH2 0x168 JUMPI DUP1 PUSH4 0xCA15C873 EQ PUSH2 0x17B JUMPI DUP1 PUSH4 0xD547741F EQ PUSH2 0x18E JUMPI PUSH1 0x0 DUP1 REVERT JUMPDEST DUP1 PUSH4 0x248A9CA3 EQ PUSH2 0x98 JUMPI DUP1 PUSH4 0x2F2FF15D EQ PUSH2 0xEA JUMPI DUP1 PUSH4 0x36568ABE EQ PUSH2 0xFF JUMPI DUP1 PUSH4 0x9010D07C EQ PUSH2 0x112 JUMPI JUMPDEST PUSH1 0x0 DUP1 REVERT JUMPDEST PUSH2 0xD7 PUSH2 0xA6 CALLDATASIZE PUSH1 0x4 PUSH2 0x952 JUMP JUMPDEST PUSH1 0x0 SWAP1 DUP2 MSTORE PUSH32 0xD0EBEBE8E6445C62BABF8FEF767EB39F1002BB957BB5B83258275A4E46428ED6 PUSH1 0x20 MSTORE PUSH1 0x40 SWAP1 KECCAK256 SLOAD SWAP1 JUMP JUMPDEST PUSH1 0x40 MLOAD SWAP1 DUP2 MSTORE PUSH1 0x20 ADD JUMPDEST PUSH1 0x40 MLOAD DUP1 SWAP2 SUB SWAP1 RETURN JUMPDEST PUSH2 0xFD PUSH2 0xF8 CALLDATASIZE PUSH1 0x4 PUSH2 0x96B JUMP JUMPDEST PUSH2 0x1A1 JUMP JUMPDEST STOP JUMPDEST PUSH2 0xFD PUSH2 0x10D CALLDATASIZE PUSH1 0x4 PUSH2 0x96B JUMP JUMPDEST PUSH2 0x26E JUMP JUMPDEST PUSH2 0x125 PUSH2 0x120 CALLDATASIZE PUSH1 0x4 PUSH2 0x9A7 JUMP JUMPDEST PUSH2 0x2D4 JUMP JUMPDEST PUSH1 0x40 MLOAD PUSH1 0x1 PUSH1 0x1 PUSH1 0xA0 SHL SUB SWAP1 SWAP2 AND DUP2 MSTORE PUSH1 0x20 ADD PUSH2 0xE1 JUMP JUMPDEST PUSH2 0x150 PUSH2 0x14B CALLDATASIZE PUSH1 0x4 PUSH2 0x96B JUMP JUMPDEST PUSH2 0x3D0 JUMP JUMPDEST PUSH1 0x40 MLOAD SWAP1 ISZERO ISZERO DUP2 MSTORE PUSH1 0x20 ADD PUSH2 0xE1 JUMP JUMPDEST PUSH2 0xD7 PUSH1 0x0 DUP2 JUMP JUMPDEST PUSH2 0x150 PUSH2 0x176 CALLDATASIZE PUSH1 0x4 PUSH2 0x96B JUMP JUMPDEST PUSH2 0x408 JUMP JUMPDEST PUSH2 0xD7 PUSH2 0x189 CALLDATASIZE PUSH1 0x4 PUSH2 0x952 JUMP JUMPDEST PUSH2 0x46A JUMP JUMPDEST PUSH2 0xFD PUSH2 0x19C CALLDATASIZE PUSH1 0x4 PUSH2 0x96B JUMP JUMPDEST PUSH2 0x501 JUMP JUMPDEST PUSH1 0x0 DUP3 DUP2 MSTORE PUSH32 0xD0EBEBE8E6445C62BABF8FEF767EB39F1002BB957BB5B83258275A4E46428ED6 PUSH1 0x20 MSTORE PUSH1 0x40 SWAP1 KECCAK256 SLOAD PUSH1 0x0 DUP1 MLOAD PUSH1 0x20 PUSH2 0xB11 DUP4 CODECOPY DUP2 MLOAD SWAP2 MSTORE SWAP1 PUSH2 0x1E9 SWAP1 CALLER PUSH2 0x553 JUMP JUMPDEST PUSH1 0x0 DUP4 DUP2 MSTORE PUSH1 0x20 DUP3 DUP2 MSTORE PUSH1 0x40 DUP1 DUP4 KECCAK256 PUSH1 0x1 PUSH1 0x1 PUSH1 0xA0 SHL SUB DUP7 AND DUP5 MSTORE SWAP1 SWAP2 MSTORE SWAP1 KECCAK256 SLOAD PUSH1 0xFF AND ISZERO PUSH2 0x25F JUMPI PUSH1 0x40 MLOAD PUSH3 0x461BCD PUSH1 0xE5 SHL DUP2 MSTORE PUSH1 0x20 PUSH1 0x4 DUP3 ADD MSTORE PUSH1 0x1D PUSH1 0x24 DUP3 ADD MSTORE PUSH32 0x43616E206F6E6C79206772616E7420746F206E6F6E20686F6C64657273000000 PUSH1 0x44 DUP3 ADD MSTORE PUSH1 0x64 ADD JUMPDEST PUSH1 0x40 MLOAD DUP1 SWAP2 SUB SWAP1 REVERT JUMPDEST PUSH2 0x269 DUP4 DUP4 PUSH2 0x5E1 JUMP JUMPDEST POP POP POP JUMP JUMPDEST CALLER PUSH1 0x1 PUSH1 0x1 PUSH1 0xA0 SHL SUB DUP3 AND EQ PUSH2 0x2C6 JUMPI PUSH1 0x40 MLOAD PUSH3 0x461BCD PUSH1 0xE5 SHL DUP2 MSTORE PUSH1 0x20 PUSH1 0x4 DUP3 ADD MSTORE PUSH1 0x1A PUSH1 0x24 DUP3 ADD MSTORE PUSH32 0x43616E206F6E6C792072656E6F756E636520666F722073656C66000000000000 PUSH1 0x44 DUP3 ADD MSTORE PUSH1 0x64 ADD PUSH2 0x256 JUMP JUMPDEST PUSH2 0x2D0 DUP3 DUP3 PUSH2 0x5F5 JUMP JUMPDEST POP POP JUMP JUMPDEST PUSH1 0x0 DUP3 DUP2 MSTORE PUSH1 0x0 DUP1 MLOAD PUSH1 0x20 PUSH2 0xB31 DUP4 CODECOPY DUP2 MLOAD SWAP2 MSTORE PUSH1 0x20 DUP2 SWAP1 MSTORE PUSH1 0x40 DUP3 KECCAK256 SLOAD DUP3 DUP1 JUMPDEST DUP3 DUP2 LT ISZERO PUSH2 0x3C5 JUMPI PUSH1 0x0 DUP8 DUP2 MSTORE PUSH1 0x20 DUP6 DUP2 MSTORE PUSH1 0x40 DUP1 DUP4 KECCAK256 DUP5 DUP5 MSTORE PUSH1 0x1 ADD SWAP1 SWAP2 MSTORE SWAP1 KECCAK256 SLOAD PUSH1 0x1 PUSH1 0x1 PUSH1 0xA0 SHL SUB AND ISZERO PUSH2 0x370 JUMPI DUP6 DUP3 SUB PUSH2 0x35E JUMPI PUSH1 0x0 DUP8 DUP2 MSTORE PUSH1 0x20 SWAP5 DUP6 MSTORE PUSH1 0x40 DUP1 DUP3 KECCAK256 SWAP3 DUP3 MSTORE PUSH1 0x1 SWAP1 SWAP3 ADD SWAP1 SWAP5 MSTORE SWAP1 SWAP3 KECCAK256 SLOAD PUSH1 0x1 PUSH1 0x1 PUSH1 0xA0 SHL SUB AND SWAP3 POP PUSH2 0x3CA SWAP2 POP POP JUMP JUMPDEST PUSH2 0x369 PUSH1 0x1 DUP4 PUSH2 0x9DF JUMP JUMPDEST SWAP2 POP PUSH2 0x3B3 JUMP JUMPDEST PUSH2 0x37B DUP8 PUSH1 0x0 PUSH2 0x3D0 JUMP JUMPDEST DUP1 ISZERO PUSH2 0x3A0 JUMPI POP PUSH1 0x0 DUP8 DUP2 MSTORE PUSH1 0x20 DUP6 DUP2 MSTORE PUSH1 0x40 DUP1 DUP4 KECCAK256 DUP4 DUP1 MSTORE PUSH1 0x2 ADD SWAP1 SWAP2 MSTORE SWAP1 KECCAK256 SLOAD DUP2 EQ JUMPDEST ISZERO PUSH2 0x3B3 JUMPI PUSH2 0x3B0 PUSH1 0x1 DUP4 PUSH2 0x9DF JUMP JUMPDEST SWAP2 POP JUMPDEST PUSH2 0x3BE PUSH1 0x1 DUP3 PUSH2 0x9DF JUMP JUMPDEST SWAP1 POP PUSH2 0x2F5 JUMP JUMPDEST POP POP POP POP JUMPDEST SWAP3 SWAP2 POP POP JUMP JUMPDEST PUSH1 0x0 SWAP2 DUP3 MSTORE PUSH1 0x0 DUP1 MLOAD PUSH1 0x20 PUSH2 0xB11 DUP4 CODECOPY DUP2 MLOAD SWAP2 MSTORE PUSH1 0x20 SWAP1 DUP2 MSTORE PUSH1 0x40 DUP1 DUP5 KECCAK256 PUSH1 0x1 PUSH1 0x1 PUSH1 0xA0 SHL SUB SWAP4 SWAP1 SWAP4 AND DUP5 MSTORE SWAP2 SWAP1 MSTORE SWAP1 KECCAK256 SLOAD PUSH1 0xFF AND SWAP1 JUMP JUMPDEST PUSH1 0x0 DUP3 DUP2 MSTORE PUSH1 0x0 DUP1 MLOAD PUSH1 0x20 PUSH2 0xB11 DUP4 CODECOPY DUP2 MLOAD SWAP2 MSTORE PUSH1 0x20 DUP2 DUP2 MSTORE PUSH1 0x40 DUP1 DUP5 KECCAK256 DUP5 DUP1 MSTORE SWAP1 SWAP2 MSTORE DUP3 KECCAK256 SLOAD PUSH1 0xFF AND PUSH2 0x460 JUMPI PUSH1 0x0 DUP5 DUP2 MSTORE PUSH1 0x20 SWAP2 DUP3 MSTORE PUSH1 0x40 DUP1 DUP3 KECCAK256 PUSH1 0x1 PUSH1 0x1 PUSH1 0xA0 SHL SUB DUP7 AND DUP4 MSTORE SWAP1 SWAP3 MSTORE KECCAK256 SLOAD PUSH1 0xFF AND SWAP1 POP PUSH2 0x3CA JUMP JUMPDEST POP PUSH1 0x1 SWAP4 SWAP3 POP POP POP JUMP JUMPDEST PUSH1 0x0 DUP2 DUP2 MSTORE PUSH1 0x0 DUP1 MLOAD PUSH1 0x20 PUSH2 0xB31 DUP4 CODECOPY DUP2 MLOAD SWAP2 MSTORE PUSH1 0x20 DUP2 SWAP1 MSTORE PUSH1 0x40 DUP3 KECCAK256 SLOAD DUP3 JUMPDEST DUP2 DUP2 LT ISZERO PUSH2 0x4DB JUMPI PUSH1 0x0 DUP6 DUP2 MSTORE PUSH1 0x20 DUP5 DUP2 MSTORE PUSH1 0x40 DUP1 DUP4 KECCAK256 DUP5 DUP5 MSTORE PUSH1 0x1 ADD SWAP1 SWAP2 MSTORE SWAP1 KECCAK256 SLOAD PUSH1 0x1 PUSH1 0x1 PUSH1 0xA0 SHL SUB AND ISZERO PUSH2 0x4C9 JUMPI PUSH2 0x4C6 PUSH1 0x1 DUP6 PUSH2 0x9DF JUMP JUMPDEST SWAP4 POP JUMPDEST PUSH2 0x4D4 PUSH1 0x1 DUP3 PUSH2 0x9DF JUMP JUMPDEST SWAP1 POP PUSH2 0x48A JUMP JUMPDEST POP PUSH2 0x4E7 DUP5 PUSH1 0x0 PUSH2 0x3D0 JUMP JUMPDEST ISZERO PUSH2 0x4FA JUMPI PUSH2 0x4F7 PUSH1 0x1 DUP5 PUSH2 0x9DF JUMP JUMPDEST SWAP3 POP JUMPDEST POP POP SWAP2 SWAP1 POP JUMP JUMPDEST PUSH1 0x0 DUP3 DUP2 MSTORE PUSH32 0xD0EBEBE8E6445C62BABF8FEF767EB39F1002BB957BB5B83258275A4E46428ED6 PUSH1 0x20 MSTORE PUSH1 0x40 SWAP1 KECCAK256 SLOAD PUSH1 0x0 DUP1 MLOAD PUSH1 0x20 PUSH2 0xB11 DUP4 CODECOPY DUP2 MLOAD SWAP2 MSTORE SWAP1 PUSH2 0x549 SWAP1 CALLER PUSH2 0x553 JUMP JUMPDEST PUSH2 0x269 DUP4 DUP4 PUSH2 0x5F5 JUMP JUMPDEST PUSH1 0x0 DUP3 DUP2 MSTORE PUSH1 0x0 DUP1 MLOAD PUSH1 0x20 PUSH2 0xB11 DUP4 CODECOPY DUP2 MLOAD SWAP2 MSTORE PUSH1 0x20 DUP2 DUP2 MSTORE PUSH1 0x40 DUP1 DUP5 KECCAK256 PUSH1 0x1 PUSH1 0x1 PUSH1 0xA0 SHL SUB DUP7 AND DUP6 MSTORE SWAP1 SWAP2 MSTORE SWAP1 SWAP2 KECCAK256 SLOAD PUSH1 0xFF AND PUSH2 0x269 JUMPI PUSH2 0x59F DUP3 PUSH1 0x1 PUSH1 0x1 PUSH1 0xA0 SHL SUB AND PUSH1 0x14 PUSH2 0x659 JUMP JUMPDEST PUSH2 0x5AA DUP5 PUSH1 0x20 PUSH2 0x659 JUMP JUMPDEST PUSH1 0x40 MLOAD PUSH1 0x20 ADD PUSH2 0x5BB SWAP3 SWAP2 SWAP1 PUSH2 0xA16 JUMP JUMPDEST PUSH1 0x40 DUP1 MLOAD PUSH1 0x1F NOT DUP2 DUP5 SUB ADD DUP2 MSTORE SWAP1 DUP3 SWAP1 MSTORE PUSH3 0x461BCD PUSH1 0xE5 SHL DUP3 MSTORE PUSH2 0x256 SWAP2 PUSH1 0x4 ADD PUSH2 0xA83 JUMP JUMPDEST PUSH2 0x5EB DUP3 DUP3 PUSH2 0x7FC JUMP JUMPDEST PUSH2 0x2D0 DUP3 DUP3 PUSH2 0x866 JUMP JUMPDEST PUSH2 0x5FF DUP3 DUP3 PUSH2 0x8E2 JUMP JUMPDEST PUSH1 0x0 DUP3 DUP2 MSTORE PUSH1 0x0 DUP1 MLOAD PUSH1 0x20 PUSH2 0xB31 DUP4 CODECOPY DUP2 MLOAD SWAP2 MSTORE PUSH1 0x20 SWAP1 DUP2 MSTORE PUSH1 0x40 DUP1 DUP4 KECCAK256 PUSH1 0x1 PUSH1 0x1 PUSH1 0xA0 SHL SUB DUP6 AND DUP1 DUP6 MSTORE PUSH1 0x2 DUP3 ADD DUP1 DUP6 MSTORE DUP4 DUP7 KECCAK256 DUP1 SLOAD DUP8 MSTORE PUSH1 0x1 SWAP1 SWAP4 ADD DUP6 MSTORE SWAP3 DUP6 KECCAK256 DUP1 SLOAD PUSH1 0x1 PUSH1 0x1 PUSH1 0xA0 SHL SUB NOT AND SWAP1 SSTORE DUP5 MSTORE SWAP2 MSTORE SSTORE POP POP JUMP JUMPDEST PUSH1 0x60 PUSH1 0x0 PUSH2 0x668 DUP4 PUSH1 0x2 PUSH2 0xAB6 JUMP JUMPDEST PUSH2 0x673 SWAP1 PUSH1 0x2 PUSH2 0x9DF JUMP JUMPDEST PUSH8 0xFFFFFFFFFFFFFFFF DUP2 GT ISZERO PUSH2 0x68B JUMPI PUSH2 0x68B PUSH2 0xACD JUMP JUMPDEST PUSH1 0x40 MLOAD SWAP1 DUP1 DUP3 MSTORE DUP1 PUSH1 0x1F ADD PUSH1 0x1F NOT AND PUSH1 0x20 ADD DUP3 ADD PUSH1 0x40 MSTORE DUP1 ISZERO PUSH2 0x6B5 JUMPI PUSH1 0x20 DUP3 ADD DUP2 DUP1 CALLDATASIZE DUP4 CALLDATACOPY ADD SWAP1 POP JUMPDEST POP SWAP1 POP PUSH1 0x3 PUSH1 0xFC SHL DUP2 PUSH1 0x0 DUP2 MLOAD DUP2 LT PUSH2 0x6D0 JUMPI PUSH2 0x6D0 PUSH2 0xAE3 JUMP JUMPDEST PUSH1 0x20 ADD ADD SWAP1 PUSH1 0x1 PUSH1 0x1 PUSH1 0xF8 SHL SUB NOT AND SWAP1 DUP2 PUSH1 0x0 BYTE SWAP1 MSTORE8 POP PUSH1 0xF PUSH1 0xFB SHL DUP2 PUSH1 0x1 DUP2 MLOAD DUP2 LT PUSH2 0x6FF JUMPI PUSH2 0x6FF PUSH2 0xAE3 JUMP JUMPDEST PUSH1 0x20 ADD ADD SWAP1 PUSH1 0x1 PUSH1 0x1 PUSH1 0xF8 SHL SUB NOT AND SWAP1 DUP2 PUSH1 0x0 BYTE SWAP1 MSTORE8 POP PUSH1 0x0 PUSH2 0x723 DUP5 PUSH1 0x2 PUSH2 0xAB6 JUMP JUMPDEST PUSH2 0x72E SWAP1 PUSH1 0x1 PUSH2 0x9DF JUMP JUMPDEST SWAP1 POP JUMPDEST PUSH1 0x1 DUP2 GT ISZERO PUSH2 0x7A6 JUMPI PUSH16 0x181899199A1A9B1B9C1CB0B131B232B3 PUSH1 0x81 SHL DUP6 PUSH1 0xF AND PUSH1 0x10 DUP2 LT PUSH2 0x762 JUMPI PUSH2 0x762 PUSH2 0xAE3 JUMP JUMPDEST BYTE PUSH1 0xF8 SHL DUP3 DUP3 DUP2 MLOAD DUP2 LT PUSH2 0x778 JUMPI PUSH2 0x778 PUSH2 0xAE3 JUMP JUMPDEST PUSH1 0x20 ADD ADD SWAP1 PUSH1 0x1 PUSH1 0x1 PUSH1 0xF8 SHL SUB NOT AND SWAP1 DUP2 PUSH1 0x0 BYTE SWAP1 MSTORE8 POP PUSH1 0x4 SWAP5 SWAP1 SWAP5 SHR SWAP4 PUSH2 0x79F DUP2 PUSH2 0xAF9 JUMP JUMPDEST SWAP1 POP PUSH2 0x731 JUMP JUMPDEST POP DUP4 ISZERO PUSH2 0x7F5 JUMPI PUSH1 0x40 MLOAD PUSH3 0x461BCD PUSH1 0xE5 SHL DUP2 MSTORE PUSH1 0x20 PUSH1 0x4 DUP3 ADD DUP2 SWAP1 MSTORE PUSH1 0x24 DUP3 ADD MSTORE PUSH32 0x537472696E67733A20686578206C656E67746820696E73756666696369656E74 PUSH1 0x44 DUP3 ADD MSTORE PUSH1 0x64 ADD PUSH2 0x256 JUMP JUMPDEST SWAP4 SWAP3 POP POP POP JUMP JUMPDEST PUSH1 0x0 DUP3 DUP2 MSTORE PUSH1 0x0 DUP1 MLOAD PUSH1 0x20 PUSH2 0xB11 DUP4 CODECOPY DUP2 MLOAD SWAP2 MSTORE PUSH1 0x20 DUP2 DUP2 MSTORE PUSH1 0x40 DUP1 DUP5 KECCAK256 PUSH1 0x1 PUSH1 0x1 PUSH1 0xA0 SHL SUB DUP7 AND DUP1 DUP7 MSTORE SWAP3 MSTORE DUP1 DUP5 KECCAK256 DUP1 SLOAD PUSH1 0xFF NOT AND PUSH1 0x1 OR SWAP1 SSTORE MLOAD SWAP2 SWAP3 CALLER SWAP3 DUP7 SWAP2 PUSH32 0x2F8788117E7EFF1D82E926EC794901D17C78024A50270940304540A733656F0D SWAP2 LOG4 POP POP POP JUMP JUMPDEST PUSH1 0x0 DUP3 DUP2 MSTORE PUSH1 0x0 DUP1 MLOAD PUSH1 0x20 PUSH2 0xB31 DUP4 CODECOPY DUP2 MLOAD SWAP2 MSTORE PUSH1 0x20 DUP2 SWAP1 MSTORE PUSH1 0x40 DUP3 KECCAK256 DUP1 SLOAD SWAP2 SWAP3 PUSH1 0x1 SWAP2 SWAP1 PUSH2 0x895 DUP4 DUP6 PUSH2 0x9DF JUMP JUMPDEST SWAP1 SWAP2 SSTORE POP POP PUSH1 0x0 SWAP4 DUP5 MSTORE PUSH1 0x20 SWAP2 DUP3 MSTORE PUSH1 0x40 DUP1 DUP6 KECCAK256 DUP3 DUP7 MSTORE PUSH1 0x1 DUP2 ADD DUP5 MSTORE DUP2 DUP7 KECCAK256 DUP1 SLOAD PUSH1 0x1 PUSH1 0x1 PUSH1 0xA0 SHL SUB SWAP1 SWAP7 AND PUSH1 0x1 PUSH1 0x1 PUSH1 0xA0 SHL SUB NOT SWAP1 SWAP7 AND DUP7 OR SWAP1 SSTORE SWAP4 DUP6 MSTORE PUSH1 0x2 SWAP1 SWAP4 ADD SWAP1 SWAP2 MSTORE SWAP2 KECCAK256 SSTORE JUMP JUMPDEST PUSH1 0x0 DUP1 MLOAD PUSH1 0x20 PUSH2 0xB11 DUP4 CODECOPY DUP2 MLOAD SWAP2 MSTORE PUSH2 0x8FB DUP4 DUP4 PUSH2 0x553 JUMP JUMPDEST PUSH1 0x0 DUP4 DUP2 MSTORE PUSH1 0x20 DUP3 DUP2 MSTORE PUSH1 0x40 DUP1 DUP4 KECCAK256 PUSH1 0x1 PUSH1 0x1 PUSH1 0xA0 SHL SUB DUP7 AND DUP1 DUP6 MSTORE SWAP3 MSTORE DUP1 DUP4 KECCAK256 DUP1 SLOAD PUSH1 0xFF NOT AND SWAP1 SSTORE MLOAD CALLER SWAP3 DUP7 SWAP2 PUSH32 0xF6391F5C32D9C69D2A47EA670B442974B53935D1EDC7FD64EB21E047A839171B SWAP2 SWAP1 LOG4 POP POP POP JUMP JUMPDEST PUSH1 0x0 PUSH1 0x20 DUP3 DUP5 SUB SLT ISZERO PUSH2 0x964 JUMPI PUSH1 0x0 DUP1 REVERT JUMPDEST POP CALLDATALOAD SWAP2 SWAP1 POP JUMP JUMPDEST PUSH1 0x0 DUP1 PUSH1 0x40 DUP4 DUP6 SUB SLT ISZERO PUSH2 0x97E JUMPI PUSH1 0x0 DUP1 REVERT JUMPDEST DUP3 CALLDATALOAD SWAP2 POP PUSH1 0x20 DUP4 ADD CALLDATALOAD PUSH1 0x1 PUSH1 0x1 PUSH1 0xA0 SHL SUB DUP2 AND DUP2 EQ PUSH2 0x99C JUMPI PUSH1 0x0 DUP1 REVERT JUMPDEST DUP1 SWAP2 POP POP SWAP3 POP SWAP3 SWAP1 POP JUMP JUMPDEST PUSH1 0x0 DUP1 PUSH1 0x40 DUP4 DUP6 SUB SLT ISZERO PUSH2 0x9BA JUMPI PUSH1 0x0 DUP1 REVERT JUMPDEST POP POP DUP1 CALLDATALOAD SWAP3 PUSH1 0x20 SWAP1 SWAP2 ADD CALLDATALOAD SWAP2 POP JUMP JUMPDEST PUSH4 0x4E487B71 PUSH1 0xE0 SHL PUSH1 0x0 MSTORE PUSH1 0x11 PUSH1 0x4 MSTORE PUSH1 0x24 PUSH1 0x0 REVERT JUMPDEST DUP1 DUP3 ADD DUP1 DUP3 GT ISZERO PUSH2 0x3CA JUMPI PUSH2 0x3CA PUSH2 0x9C9 JUMP JUMPDEST PUSH1 0x0 JUMPDEST DUP4 DUP2 LT ISZERO PUSH2 0xA0D JUMPI DUP2 DUP2 ADD MLOAD DUP4 DUP3 ADD MSTORE PUSH1 0x20 ADD PUSH2 0x9F5 JUMP JUMPDEST POP POP PUSH1 0x0 SWAP2 ADD MSTORE JUMP JUMPDEST PUSH21 0x2832B936B4B9B9B4B7B7399D1030B1B1B7BAB73A1 PUSH1 0x5D SHL DUP2 MSTORE PUSH1 0x0 DUP4 MLOAD PUSH2 0xA46 DUP2 PUSH1 0x15 DUP6 ADD PUSH1 0x20 DUP9 ADD PUSH2 0x9F2 JUMP JUMPDEST PUSH17 0x1034B99036B4B9B9B4B733903937B6329 PUSH1 0x7D SHL PUSH1 0x15 SWAP2 DUP5 ADD SWAP2 DUP3 ADD MSTORE DUP4 MLOAD PUSH2 0xA77 DUP2 PUSH1 0x26 DUP5 ADD PUSH1 0x20 DUP9 ADD PUSH2 0x9F2 JUMP JUMPDEST ADD PUSH1 0x26 ADD SWAP5 SWAP4 POP POP POP POP JUMP JUMPDEST PUSH1 0x20 DUP2 MSTORE PUSH1 0x0 DUP3 MLOAD DUP1 PUSH1 0x20 DUP5 ADD MSTORE PUSH2 0xAA2 DUP2 PUSH1 0x40 DUP6 ADD PUSH1 0x20 DUP8 ADD PUSH2 0x9F2 JUMP JUMPDEST PUSH1 0x1F ADD PUSH1 0x1F NOT AND SWAP2 SWAP1 SWAP2 ADD PUSH1 0x40 ADD SWAP3 SWAP2 POP POP JUMP JUMPDEST DUP1 DUP3 MUL DUP2 ISZERO DUP3 DUP3 DIV DUP5 EQ OR PUSH2 0x3CA JUMPI PUSH2 0x3CA PUSH2 0x9C9 JUMP JUMPDEST PUSH4 0x4E487B71 PUSH1 0xE0 SHL PUSH1 0x0 MSTORE PUSH1 0x41 PUSH1 0x4 MSTORE PUSH1 0x24 PUSH1 0x0 REVERT JUMPDEST PUSH4 0x4E487B71 PUSH1 0xE0 SHL PUSH1 0x0 MSTORE PUSH1 0x32 PUSH1 0x4 MSTORE PUSH1 0x24 PUSH1 0x0 REVERT JUMPDEST PUSH1 0x0 DUP2 PUSH2 0xB08 JUMPI PUSH2 0xB08 PUSH2 0x9C9 JUMP JUMPDEST POP PUSH1 0x0 NOT ADD SWAP1 JUMP INVALID 0xD0 0xEB 0xEB 0xE8 0xE6 DIFFICULTY 0x5C PUSH3 0xBABF8F 0xEF PUSH23 0x7EB39F1002BB957BB5B83258275A4E46428ED50C4BA382 0xC0 STOP SWAP13 CALLCODE CODESIZE 0xE4 0xC1 0xCA BYTE MSTORE CREATE2 SHR PUSH2 0xE624 DUP11 PUSH17 0xBDFB34E5ED49D5578A5C0CA26469706673 PC 0x22 SLT KECCAK256 PUSH18 0xC474D62D62C7A3158E1C5F84C22D2C04179C 0xE1 JUMP 0xCF 0x4E NUMBER 0xE0 PUSH20 0x3B7475E9FD9464736F6C63430008110033000000 "},"methodIdentifiers":{"DEFAULT_ADMIN_ROLE()":"a217fddf","getRoleAdmin(bytes32)":"248a9ca3","getRoleMember(bytes32,uint256)":"9010d07c","getRoleMemberCount(bytes32)":"ca15c873","grantRole(bytes32,address)":"2f2ff15d","hasRole(bytes32,address)":"91d14854","hasRoleWithSwitch(bytes32,address)":"a32fa5b3","renounceRole(bytes32,address)":"36568abe","revokeRole(bytes32,address)":"d547741f"}}}}}