{"contracts/dependencies/ERC2771ContextStorage.sol":{"ERC2771ContextStorage":{"abi":[{"inputs":[],"name":"ERC2771_CONTEXT_STORAGE_POSITION","outputs":[{"internalType":"bytes32","name":"","type":"bytes32"}],"stateMutability":"view","type":"function"}],"evm":{"bytecode":{"linkReferences":{},"object":"60a6610038600b82828239805160001a607314602b57634e487b7160e01b600052600060045260246000fd5b30600052607381538281f3fe730000000000000000000000000000000000000000301460806040526004361060335760003560e01c8063b41fd635146038575b600080fd5b605e7fa140e363058a6cf3ca062c5e378319d7ddd21cedfbdca620f1c65b05028f156c81565b60405190815260200160405180910390f3fea2646970667358221220b598f4ef9a2a38ce8874b78e16a339625ebb798dbd485dc0f8a8f51bd55dad0264736f6c63430008110033","opcodes":"PUSH1 0xA6 PUSH2 0x38 PUSH1 0xB DUP3 DUP3 DUP3 CODECOPY DUP1 MLOAD PUSH1 0x0 BYTE PUSH1 0x73 EQ PUSH1 0x2B JUMPI PUSH4 0x4E487B71 PUSH1 0xE0 SHL PUSH1 0x0 MSTORE PUSH1 0x0 PUSH1 0x4 MSTORE PUSH1 0x24 PUSH1 0x0 REVERT JUMPDEST ADDRESS PUSH1 0x0 MSTORE PUSH1 0x73 DUP2 MSTORE8 DUP3 DUP2 RETURN INVALID PUSH20 0x0 ADDRESS EQ PUSH1 0x80 PUSH1 0x40 MSTORE PUSH1 0x4 CALLDATASIZE LT PUSH1 0x33 JUMPI PUSH1 0x0 CALLDATALOAD PUSH1 0xE0 SHR DUP1 PUSH4 0xB41FD635 EQ PUSH1 0x38 JUMPI JUMPDEST PUSH1 0x0 DUP1 REVERT JUMPDEST PUSH1 0x5E PUSH32 0xA140E363058A6CF3CA062C5E378319D7DDD21CEDFBDCA620F1C65B05028F156C DUP2 JUMP JUMPDEST PUSH1 0x40 MLOAD SWAP1 DUP2 MSTORE PUSH1 0x20 ADD PUSH1 0x40 MLOAD DUP1 SWAP2 SUB SWAP1 RETURN INVALID LOG2 PUSH5 0x6970667358 0x22 SLT KECCAK256 0xB5 SWAP9 DELEGATECALL 0xEF SWAP11 0x2A CODESIZE 0xCE DUP9 PUSH21 0xB78E16A339625EBB798DBD485DC0F8A8F51BD55DAD MUL PUSH5 0x736F6C6343 STOP ADDMOD GT STOP CALLER "},"methodIdentifiers":{"ERC2771_CONTEXT_STORAGE_POSITION()":"b41fd635"}}}}}