{
  "_format": "hh-sol-artifact-1",
  "contractName": "PermissionsLogic",
  "sourceName": "contracts/dependencies/PermissionsLogic.sol",
  "abi": [
    {
      "anonymous": false,
      "inputs": [
        {
          "indexed": true,
          "internalType": "bytes32",
          "name": "role",
          "type": "bytes32"
        },
        {
          "indexed": true,
          "internalType": "bytes32",
          "name": "previousAdminRole",
          "type": "bytes32"
        },
        {
          "indexed": true,
          "internalType": "bytes32",
          "name": "newAdminRole",
          "type": "bytes32"
        }
      ],
      "name": "RoleAdminChanged",
      "type": "event"
    },
    {
      "anonymous": false,
      "inputs": [
        {
          "indexed": true,
          "internalType": "bytes32",
          "name": "role",
          "type": "bytes32"
        },
        {
          "indexed": true,
          "internalType": "address",
          "name": "account",
          "type": "address"
        },
        {
          "indexed": true,
          "internalType": "address",
          "name": "sender",
          "type": "address"
        }
      ],
      "name": "RoleGranted",
      "type": "event"
    },
    {
      "anonymous": false,
      "inputs": [
        {
          "indexed": true,
          "internalType": "bytes32",
          "name": "role",
          "type": "bytes32"
        },
        {
          "indexed": true,
          "internalType": "address",
          "name": "account",
          "type": "address"
        },
        {
          "indexed": true,
          "internalType": "address",
          "name": "sender",
          "type": "address"
        }
      ],
      "name": "RoleRevoked",
      "type": "event"
    },
    {
      "inputs": [],
      "name": "DEFAULT_ADMIN_ROLE",
      "outputs": [
        {
          "internalType": "bytes32",
          "name": "",
          "type": "bytes32"
        }
      ],
      "stateMutability": "view",
      "type": "function"
    },
    {
      "inputs": [
        {
          "internalType": "bytes32",
          "name": "role",
          "type": "bytes32"
        }
      ],
      "name": "getRoleAdmin",
      "outputs": [
        {
          "internalType": "bytes32",
          "name": "",
          "type": "bytes32"
        }
      ],
      "stateMutability": "view",
      "type": "function"
    },
    {
      "inputs": [
        {
          "internalType": "bytes32",
          "name": "role",
          "type": "bytes32"
        },
        {
          "internalType": "address",
          "name": "account",
          "type": "address"
        }
      ],
      "name": "grantRole",
      "outputs": [],
      "stateMutability": "nonpayable",
      "type": "function"
    },
    {
      "inputs": [
        {
          "internalType": "bytes32",
          "name": "role",
          "type": "bytes32"
        },
        {
          "internalType": "address",
          "name": "account",
          "type": "address"
        }
      ],
      "name": "hasRole",
      "outputs": [
        {
          "internalType": "bool",
          "name": "",
          "type": "bool"
        }
      ],
      "stateMutability": "view",
      "type": "function"
    },
    {
      "inputs": [
        {
          "internalType": "bytes32",
          "name": "role",
          "type": "bytes32"
        },
        {
          "internalType": "address",
          "name": "account",
          "type": "address"
        }
      ],
      "name": "hasRoleWithSwitch",
      "outputs": [
        {
          "internalType": "bool",
          "name": "",
          "type": "bool"
        }
      ],
      "stateMutability": "view",
      "type": "function"
    },
    {
      "inputs": [
        {
          "internalType": "bytes32",
          "name": "role",
          "type": "bytes32"
        },
        {
          "internalType": "address",
          "name": "account",
          "type": "address"
        }
      ],
      "name": "renounceRole",
      "outputs": [],
      "stateMutability": "nonpayable",
      "type": "function"
    },
    {
      "inputs": [
        {
          "internalType": "bytes32",
          "name": "role",
          "type": "bytes32"
        },
        {
          "internalType": "address",
          "name": "account",
          "type": "address"
        }
      ],
      "name": "revokeRole",
      "outputs": [],
      "stateMutability": "nonpayable",
      "type": "function"
    }
  ],
  "bytecode": "0x608060405234801561001057600080fd5b5061086b806100206000396000f3fe608060405234801561001057600080fd5b506004361061007d5760003560e01c806391d148541161005b57806391d14854146100fc578063a217fddf1461011f578063a32fa5b314610127578063d547741f1461013a57600080fd5b8063248a9ca3146100825780632f2ff15d146100d457806336568abe146100e9575b600080fd5b6100c1610090366004610679565b60009081527fd0ebebe8e6445c62babf8fef767eb39f1002bb957bb5b83258275a4e46428ed6602052604090205490565b6040519081526020015b60405180910390f35b6100e76100e2366004610692565b61014d565b005b6100e76100f7366004610692565b61021a565b61010f61010a366004610692565b610280565b60405190151581526020016100cb565b6100c1600081565b61010f610135366004610692565b6102ba565b6100e7610148366004610692565b61031c565b60008281527fd0ebebe8e6445c62babf8fef767eb39f1002bb957bb5b83258275a4e46428ed6602052604090205460008051602061081683398151915290610195903361036e565b6000838152602082815260408083206001600160a01b038616845290915290205460ff161561020b5760405162461bcd60e51b815260206004820152601d60248201527f43616e206f6e6c79206772616e7420746f206e6f6e20686f6c6465727300000060448201526064015b60405180910390fd5b61021583836103fc565b505050565b336001600160a01b038216146102725760405162461bcd60e51b815260206004820152601a60248201527f43616e206f6e6c792072656e6f756e636520666f722073656c660000000000006044820152606401610202565b61027c8282610466565b5050565b6000828152600080516020610816833981519152602090815260408083206001600160a01b038516845290915290205460ff165b92915050565b60008281526000805160206108168339815191526020818152604080842084805290915282205460ff16610312576000848152602091825260408082206001600160a01b0386168352909252205460ff1690506102b4565b5060019392505050565b60008281527fd0ebebe8e6445c62babf8fef767eb39f1002bb957bb5b83258275a4e46428ed6602052604090205460008051602061081683398151915290610364903361036e565b6102158383610466565b6000828152600080516020610816833981519152602081815260408084206001600160a01b03861685529091529091205460ff16610215576103ba826001600160a01b031660146104d6565b6103c58460206104d6565b6040516020016103d69291906106f2565b60408051601f198184030181529082905262461bcd60e51b82526102029160040161075f565b6000828152600080516020610816833981519152602081815260408084206001600160a01b0386168086529252808420805460ff19166001179055519192339286917f2f8788117e7eff1d82e926ec794901d17c78024a50270940304540a733656f0d91a4505050565b60008051602061081683398151915261047f838361036e565b6000838152602082815260408083206001600160a01b0386168085529252808320805460ff1916905551339286917ff6391f5c32d9c69d2a47ea670b442974b53935d1edc7fd64eb21e047a839171b9190a4505050565b606060006104e58360026107a8565b6104f09060026107bf565b67ffffffffffffffff811115610508576105086107d2565b6040519080825280601f01601f191660200182016040528015610532576020820181803683370190505b509050600360fc1b8160008151811061054d5761054d6107e8565b60200101906001600160f81b031916908160001a905350600f60fb1b8160018151811061057c5761057c6107e8565b60200101906001600160f81b031916908160001a90535060006105a08460026107a8565b6105ab9060016107bf565b90505b6001811115610623576f181899199a1a9b1b9c1cb0b131b232b360811b85600f16601081106105df576105df6107e8565b1a60f81b8282815181106105f5576105f56107e8565b60200101906001600160f81b031916908160001a90535060049490941c9361061c816107fe565b90506105ae565b5083156106725760405162461bcd60e51b815260206004820181905260248201527f537472696e67733a20686578206c656e67746820696e73756666696369656e746044820152606401610202565b9392505050565b60006020828403121561068b57600080fd5b5035919050565b600080604083850312156106a557600080fd5b8235915060208301356001600160a01b03811681146106c357600080fd5b809150509250929050565b60005b838110156106e95781810151838201526020016106d1565b50506000910152565b7402832b936b4b9b9b4b7b7399d1030b1b1b7bab73a1605d1b8152600083516107228160158501602088016106ce565b7001034b99036b4b9b9b4b733903937b6329607d1b60159184019182015283516107538160268401602088016106ce565b01602601949350505050565b602081526000825180602084015261077e8160408501602087016106ce565b601f01601f19169190910160400192915050565b634e487b7160e01b600052601160045260246000fd5b80820281158282048414176102b4576102b4610792565b808201808211156102b4576102b4610792565b634e487b7160e01b600052604160045260246000fd5b634e487b7160e01b600052603260045260246000fd5b60008161080d5761080d610792565b50600019019056fed0ebebe8e6445c62babf8fef767eb39f1002bb957bb5b83258275a4e46428ed5a264697066735822122040936aba278b093d7379183253cd370eb6ed99e52b4794a19a6bae8ce415c0e764736f6c63430008110033",
  "linkReferences": {},
  "deployedLinkReferences": {}
}