{
  "_format": "hh-sol-artifact-1",
  "contractName": "ReentrancyGuardStorage",
  "sourceName": "contracts/dependencies/ReentrancyGuardStorage.sol",
  "abi": [
    {
      "inputs": [],
      "name": "REENTRANCY_GUARD_STORAGE_POSITION",
      "outputs": [
        {
          "internalType": "bytes32",
          "name": "",
          "type": "bytes32"
        }
      ],
      "stateMutability": "view",
      "type": "function"
    }
  ],
  "bytecode": "0x60a6610038600b82828239805160001a607314602b57634e487b7160e01b600052600060045260246000fd5b30600052607381538281f3fe730000000000000000000000000000000000000000301460806040526004361060335760003560e01c8063984b83ff146038575b600080fd5b605e7fbbf78d3411d42a81effd97bb8c69faae4e77e75cec462245c1001191a0634c6f81565b60405190815260200160405180910390f3fea2646970667358221220b85ffad67080837ffc015118c7e00929aee373e33e5976d2cb4661608fe57df964736f6c63430008110033",
  "linkReferences": {},
  "deployedLinkReferences": {}
}