{
  "_format": "hh-sol-artifact-1",
  "contractName": "PermissionsStorage",
  "sourceName": "contracts/dependencies/PermissionsStorage.sol",
  "abi": [
    {
      "inputs": [],
      "name": "PERMISSIONS_STORAGE_POSITION",
      "outputs": [
        {
          "internalType": "bytes32",
          "name": "",
          "type": "bytes32"
        }
      ],
      "stateMutability": "view",
      "type": "function"
    }
  ],
  "bytecode": "0x60a6610038600b82828239805160001a607314602b57634e487b7160e01b600052600060045260246000fd5b30600052607381538281f3fe730000000000000000000000000000000000000000301460806040526004361060335760003560e01c80630998ed3b146038575b600080fd5b605e7fd0ebebe8e6445c62babf8fef767eb39f1002bb957bb5b83258275a4e46428ed581565b60405190815260200160405180910390f3fea26469706673582212201ea480235bf659544dcee3e43cead8cd66ea8f241595296b740095d8b180a0e164736f6c63430008110033",
  "linkReferences": {},
  "deployedLinkReferences": {}
}