{
  "_format": "hh-sol-artifact-1",
  "contractName": "PermissionsEnumerableLogic",
  "sourceName": "contracts/dependencies/PermissionsEnumerableLogic.sol",
  "abi": [
    {
      "anonymous": false,
      "inputs": [
        {
          "indexed": true,
          "internalType": "bytes32",
          "name": "role",
          "type": "bytes32"
        },
        {
          "indexed": true,
          "internalType": "bytes32",
          "name": "previousAdminRole",
          "type": "bytes32"
        },
        {
          "indexed": true,
          "internalType": "bytes32",
          "name": "newAdminRole",
          "type": "bytes32"
        }
      ],
      "name": "RoleAdminChanged",
      "type": "event"
    },
    {
      "anonymous": false,
      "inputs": [
        {
          "indexed": true,
          "internalType": "bytes32",
          "name": "role",
          "type": "bytes32"
        },
        {
          "indexed": true,
          "internalType": "address",
          "name": "account",
          "type": "address"
        },
        {
          "indexed": true,
          "internalType": "address",
          "name": "sender",
          "type": "address"
        }
      ],
      "name": "RoleGranted",
      "type": "event"
    },
    {
      "anonymous": false,
      "inputs": [
        {
          "indexed": true,
          "internalType": "bytes32",
          "name": "role",
          "type": "bytes32"
        },
        {
          "indexed": true,
          "internalType": "address",
          "name": "account",
          "type": "address"
        },
        {
          "indexed": true,
          "internalType": "address",
          "name": "sender",
          "type": "address"
        }
      ],
      "name": "RoleRevoked",
      "type": "event"
    },
    {
      "inputs": [],
      "name": "DEFAULT_ADMIN_ROLE",
      "outputs": [
        {
          "internalType": "bytes32",
          "name": "",
          "type": "bytes32"
        }
      ],
      "stateMutability": "view",
      "type": "function"
    },
    {
      "inputs": [
        {
          "internalType": "bytes32",
          "name": "role",
          "type": "bytes32"
        }
      ],
      "name": "getRoleAdmin",
      "outputs": [
        {
          "internalType": "bytes32",
          "name": "",
          "type": "bytes32"
        }
      ],
      "stateMutability": "view",
      "type": "function"
    },
    {
      "inputs": [
        {
          "internalType": "bytes32",
          "name": "role",
          "type": "bytes32"
        },
        {
          "internalType": "uint256",
          "name": "index",
          "type": "uint256"
        }
      ],
      "name": "getRoleMember",
      "outputs": [
        {
          "internalType": "address",
          "name": "member",
          "type": "address"
        }
      ],
      "stateMutability": "view",
      "type": "function"
    },
    {
      "inputs": [
        {
          "internalType": "bytes32",
          "name": "role",
          "type": "bytes32"
        }
      ],
      "name": "getRoleMemberCount",
      "outputs": [
        {
          "internalType": "uint256",
          "name": "count",
          "type": "uint256"
        }
      ],
      "stateMutability": "view",
      "type": "function"
    },
    {
      "inputs": [
        {
          "internalType": "bytes32",
          "name": "role",
          "type": "bytes32"
        },
        {
          "internalType": "address",
          "name": "account",
          "type": "address"
        }
      ],
      "name": "grantRole",
      "outputs": [],
      "stateMutability": "nonpayable",
      "type": "function"
    },
    {
      "inputs": [
        {
          "internalType": "bytes32",
          "name": "role",
          "type": "bytes32"
        },
        {
          "internalType": "address",
          "name": "account",
          "type": "address"
        }
      ],
      "name": "hasRole",
      "outputs": [
        {
          "internalType": "bool",
          "name": "",
          "type": "bool"
        }
      ],
      "stateMutability": "view",
      "type": "function"
    },
    {
      "inputs": [
        {
          "internalType": "bytes32",
          "name": "role",
          "type": "bytes32"
        },
        {
          "internalType": "address",
          "name": "account",
          "type": "address"
        }
      ],
      "name": "hasRoleWithSwitch",
      "outputs": [
        {
          "internalType": "bool",
          "name": "",
          "type": "bool"
        }
      ],
      "stateMutability": "view",
      "type": "function"
    },
    {
      "inputs": [
        {
          "internalType": "bytes32",
          "name": "role",
          "type": "bytes32"
        },
        {
          "internalType": "address",
          "name": "account",
          "type": "address"
        }
      ],
      "name": "renounceRole",
      "outputs": [],
      "stateMutability": "nonpayable",
      "type": "function"
    },
    {
      "inputs": [
        {
          "internalType": "bytes32",
          "name": "role",
          "type": "bytes32"
        },
        {
          "internalType": "address",
          "name": "account",
          "type": "address"
        }
      ],
      "name": "revokeRole",
      "outputs": [],
      "stateMutability": "nonpayable",
      "type": "function"
    }
  ],
  "bytecode": "0x608060405234801561001057600080fd5b50610b86806100206000396000f3fe608060405234801561001057600080fd5b50600436106100935760003560e01c806391d148541161006657806391d148541461013d578063a217fddf14610160578063a32fa5b314610168578063ca15c8731461017b578063d547741f1461018e57600080fd5b8063248a9ca3146100985780632f2ff15d146100ea57806336568abe146100ff5780639010d07c14610112575b600080fd5b6100d76100a6366004610952565b60009081527fd0ebebe8e6445c62babf8fef767eb39f1002bb957bb5b83258275a4e46428ed6602052604090205490565b6040519081526020015b60405180910390f35b6100fd6100f836600461096b565b6101a1565b005b6100fd61010d36600461096b565b61026e565b6101256101203660046109a7565b6102d4565b6040516001600160a01b0390911681526020016100e1565b61015061014b36600461096b565b6103d0565b60405190151581526020016100e1565b6100d7600081565b61015061017636600461096b565b610408565b6100d7610189366004610952565b61046a565b6100fd61019c36600461096b565b610501565b60008281527fd0ebebe8e6445c62babf8fef767eb39f1002bb957bb5b83258275a4e46428ed66020526040902054600080516020610b11833981519152906101e99033610553565b6000838152602082815260408083206001600160a01b038616845290915290205460ff161561025f5760405162461bcd60e51b815260206004820152601d60248201527f43616e206f6e6c79206772616e7420746f206e6f6e20686f6c6465727300000060448201526064015b60405180910390fd5b61026983836105e1565b505050565b336001600160a01b038216146102c65760405162461bcd60e51b815260206004820152601a60248201527f43616e206f6e6c792072656e6f756e636520666f722073656c660000000000006044820152606401610256565b6102d082826105f5565b5050565b6000828152600080516020610b318339815191526020819052604082205482805b828110156103c5576000878152602085815260408083208484526001019091529020546001600160a01b0316156103705785820361035e576000878152602094855260408082209282526001909201909452909220546001600160a01b031692506103ca915050565b6103696001836109df565b91506103b3565b61037b8760006103d0565b80156103a0575060008781526020858152604080832083805260020190915290205481145b156103b3576103b06001836109df565b91505b6103be6001826109df565b90506102f5565b505050505b92915050565b6000918252600080516020610b11833981519152602090815260408084206001600160a01b0393909316845291905290205460ff1690565b6000828152600080516020610b118339815191526020818152604080842084805290915282205460ff16610460576000848152602091825260408082206001600160a01b0386168352909252205460ff1690506103ca565b5060019392505050565b6000818152600080516020610b3183398151915260208190526040822054825b818110156104db576000858152602084815260408083208484526001019091529020546001600160a01b0316156104c9576104c66001856109df565b93505b6104d46001826109df565b905061048a565b506104e78460006103d0565b156104fa576104f76001846109df565b92505b5050919050565b60008281527fd0ebebe8e6445c62babf8fef767eb39f1002bb957bb5b83258275a4e46428ed66020526040902054600080516020610b11833981519152906105499033610553565b61026983836105f5565b6000828152600080516020610b11833981519152602081815260408084206001600160a01b03861685529091529091205460ff166102695761059f826001600160a01b03166014610659565b6105aa846020610659565b6040516020016105bb929190610a16565b60408051601f198184030181529082905262461bcd60e51b825261025691600401610a83565b6105eb82826107fc565b6102d08282610866565b6105ff82826108e2565b6000828152600080516020610b31833981519152602090815260408083206001600160a01b03851680855260028201808552838620805487526001909301855292852080546001600160a01b031916905584529152555050565b60606000610668836002610ab6565b6106739060026109df565b67ffffffffffffffff81111561068b5761068b610acd565b6040519080825280601f01601f1916602001820160405280156106b5576020820181803683370190505b509050600360fc1b816000815181106106d0576106d0610ae3565b60200101906001600160f81b031916908160001a905350600f60fb1b816001815181106106ff576106ff610ae3565b60200101906001600160f81b031916908160001a9053506000610723846002610ab6565b61072e9060016109df565b90505b60018111156107a6576f181899199a1a9b1b9c1cb0b131b232b360811b85600f166010811061076257610762610ae3565b1a60f81b82828151811061077857610778610ae3565b60200101906001600160f81b031916908160001a90535060049490941c9361079f81610af9565b9050610731565b5083156107f55760405162461bcd60e51b815260206004820181905260248201527f537472696e67733a20686578206c656e67746820696e73756666696369656e746044820152606401610256565b9392505050565b6000828152600080516020610b11833981519152602081815260408084206001600160a01b0386168086529252808420805460ff19166001179055519192339286917f2f8788117e7eff1d82e926ec794901d17c78024a50270940304540a733656f0d91a4505050565b6000828152600080516020610b31833981519152602081905260408220805491926001919061089583856109df565b909155505060009384526020918252604080852082865260018101845281862080546001600160a01b039096166001600160a01b0319909616861790559385526002909301909152912055565b600080516020610b118339815191526108fb8383610553565b6000838152602082815260408083206001600160a01b0386168085529252808320805460ff1916905551339286917ff6391f5c32d9c69d2a47ea670b442974b53935d1edc7fd64eb21e047a839171b9190a4505050565b60006020828403121561096457600080fd5b5035919050565b6000806040838503121561097e57600080fd5b8235915060208301356001600160a01b038116811461099c57600080fd5b809150509250929050565b600080604083850312156109ba57600080fd5b50508035926020909101359150565b634e487b7160e01b600052601160045260246000fd5b808201808211156103ca576103ca6109c9565b60005b83811015610a0d5781810151838201526020016109f5565b50506000910152565b7402832b936b4b9b9b4b7b7399d1030b1b1b7bab73a1605d1b815260008351610a468160158501602088016109f2565b7001034b99036b4b9b9b4b733903937b6329607d1b6015918401918201528351610a778160268401602088016109f2565b01602601949350505050565b6020815260008251806020840152610aa28160408501602087016109f2565b601f01601f19169190910160400192915050565b80820281158282048414176103ca576103ca6109c9565b634e487b7160e01b600052604160045260246000fd5b634e487b7160e01b600052603260045260246000fd5b600081610b0857610b086109c9565b50600019019056fed0ebebe8e6445c62babf8fef767eb39f1002bb957bb5b83258275a4e46428ed50c4ba382c0009cf238e4c1ca1a52f51c61e6248a70bdfb34e5ed49d5578a5c0ca264697066735822122071c474d62d62c7a3158e1c5f84c22d2c04179ce156cf4e43e0733b7475e9fd9464736f6c63430008110033",
  "linkReferences": {},
  "deployedLinkReferences": {}
}