{
  "_format": "hh-sol-artifact-1",
  "contractName": "PlatformFeeStorage",
  "sourceName": "contracts/dependencies/PlatformFeeStorage.sol",
  "abi": [
    {
      "inputs": [],
      "name": "PLATFORM_FEE_STORAGE_POSITION",
      "outputs": [
        {
          "internalType": "bytes32",
          "name": "",
          "type": "bytes32"
        }
      ],
      "stateMutability": "view",
      "type": "function"
    }
  ],
  "bytecode": "0x60a6610038600b82828239805160001a607314602b57634e487b7160e01b600052600060045260246000fd5b30600052607381538281f3fe730000000000000000000000000000000000000000301460806040526004361060335760003560e01c806327789ec8146038575b600080fd5b605e7f4aeb3f25cc46659cf4e4966e5c48b11e9400e6e4bfafae7e3dc6cc3fbc858deb81565b60405190815260200160405180910390f3fea264697066735822122001740ed61b6ad35f11cb9faaba97fa3600868af95535cb56852634ae73f0f76b64736f6c63430008110033",
  "linkReferences": {},
  "deployedLinkReferences": {}
}