{
  "_format": "hh-sol-artifact-1",
  "contractName": "ContractMetadataStorage",
  "sourceName": "contracts/dependencies/ContractMetadataStorage.sol",
  "abi": [
    {
      "inputs": [],
      "name": "CONTRACT_METADATA_STORAGE_POSITION",
      "outputs": [
        {
          "internalType": "bytes32",
          "name": "",
          "type": "bytes32"
        }
      ],
      "stateMutability": "view",
      "type": "function"
    }
  ],
  "bytecode": "0x60a6610038600b82828239805160001a607314602b57634e487b7160e01b600052600060045260246000fd5b30600052607381538281f3fe730000000000000000000000000000000000000000301460806040526004361060335760003560e01c80637e837fbf146038575b600080fd5b605e7fa7d40346e44ca145e94a946aa34a7d4a67245577dc18699a626fe0ffc6ce328181565b60405190815260200160405180910390f3fea2646970667358221220689837f8e50e4d3d979887c064cf6cc67dd89d790880a54b442991aa2e6191a964736f6c63430008110033",
  "linkReferences": {},
  "deployedLinkReferences": {}
}