{
  "_format": "hh-sol-artifact-1",
  "contractName": "RouterStorage",
  "sourceName": "contracts/dependencies/Router.sol",
  "abi": [
    {
      "inputs": [],
      "name": "ROUTER_STORAGE_POSITION",
      "outputs": [
        {
          "internalType": "bytes32",
          "name": "",
          "type": "bytes32"
        }
      ],
      "stateMutability": "view",
      "type": "function"
    }
  ],
  "bytecode": "0x60a6610038600b82828239805160001a607314602b57634e487b7160e01b600052600060045260246000fd5b30600052607381538281f3fe730000000000000000000000000000000000000000301460806040526004361060335760003560e01c80632be9b20e146038575b600080fd5b605e7f1a3e4131826bb378aa43abb34a33a366bc4a35b55ab18a884fa205b59285ec4581565b60405190815260200160405180910390f3fea264697066735822122059389a72d66454939a1c96ea4b8cc823c06484f12d69656fc57365c8d38fe68864736f6c63430008110033",
  "linkReferences": {},
  "deployedLinkReferences": {}
}